{
  "_format": "hh-sol-artifact-1",
  "contractName": "NFT",
  "sourceName": "contracts/NFT.sol",
  "abi": [
    {
      "anonymous": false,
      "inputs": [
        {
          "indexed": true,
          "internalType": "address",
          "name": "owner",
          "type": "address"
        },
        {
          "indexed": true,
          "internalType": "address",
          "name": "approved",
          "type": "address"
        },
        {
          "indexed": true,
          "internalType": "uint256",
          "name": "tokenId",
          "type": "uint256"
        }
      ],
      "name": "Approval",
      "type": "event"
    },
    {
      "anonymous": false,
      "inputs": [
        {
          "indexed": true,
          "internalType": "address",
          "name": "owner",
          "type": "address"
        },
        {
          "indexed": true,
          "internalType": "address",
          "name": "operator",
          "type": "address"
        },
        {
          "indexed": false,
          "internalType": "bool",
          "name": "approved",
          "type": "bool"
        }
      ],
      "name": "ApprovalForAll",
      "type": "event"
    },
    {
      "anonymous": false,
      "inputs": [
        {
          "indexed": false,
          "internalType": "uint8",
          "name": "version",
          "type": "uint8"
        }
      ],
      "name": "Initialized",
      "type": "event"
    },
    {
      "anonymous": false,
      "inputs": [
        {
          "indexed": true,
          "internalType": "address",
          "name": "from",
          "type": "address"
        },
        {
          "indexed": true,
          "internalType": "address",
          "name": "to",
          "type": "address"
        },
        {
          "indexed": true,
          "internalType": "uint256",
          "name": "tokenId",
          "type": "uint256"
        }
      ],
      "name": "Transfer",
      "type": "event"
    },
    {
      "inputs": [
        {
          "internalType": "address",
          "name": "to",
          "type": "address"
        },
        {
          "internalType": "uint256",
          "name": "tokenId",
          "type": "uint256"
        }
      ],
      "name": "approve",
      "outputs": [],
      "stateMutability": "nonpayable",
      "type": "function"
    },
    {
      "inputs": [
        {
          "internalType": "address",
          "name": "owner",
          "type": "address"
        }
      ],
      "name": "balanceOf",
      "outputs": [
        {
          "internalType": "uint256",
          "name": "",
          "type": "uint256"
        }
      ],
      "stateMutability": "view",
      "type": "function"
    },
    {
      "inputs": [
        {
          "internalType": "string",
          "name": "tokenURI",
          "type": "string"
        }
      ],
      "name": "createToken",
      "outputs": [
        {
          "internalType": "uint256",
          "name": "",
          "type": "uint256"
        }
      ],
      "stateMutability": "nonpayable",
      "type": "function"
    },
    {
      "inputs": [
        {
          "internalType": "uint256",
          "name": "tokenId",
          "type": "uint256"
        }
      ],
      "name": "getApproved",
      "outputs": [
        {
          "internalType": "address",
          "name": "",
          "type": "address"
        }
      ],
      "stateMutability": "view",
      "type": "function"
    },
    {
      "inputs": [],
      "name": "initialize",
      "outputs": [],
      "stateMutability": "nonpayable",
      "type": "function"
    },
    {
      "inputs": [
        {
          "internalType": "address",
          "name": "owner",
          "type": "address"
        },
        {
          "internalType": "address",
          "name": "operator",
          "type": "address"
        }
      ],
      "name": "isApprovedForAll",
      "outputs": [
        {
          "internalType": "bool",
          "name": "",
          "type": "bool"
        }
      ],
      "stateMutability": "view",
      "type": "function"
    },
    {
      "inputs": [],
      "name": "name",
      "outputs": [
        {
          "internalType": "string",
          "name": "",
          "type": "string"
        }
      ],
      "stateMutability": "view",
      "type": "function"
    },
    {
      "inputs": [
        {
          "internalType": "uint256",
          "name": "tokenId",
          "type": "uint256"
        }
      ],
      "name": "ownerOf",
      "outputs": [
        {
          "internalType": "address",
          "name": "",
          "type": "address"
        }
      ],
      "stateMutability": "view",
      "type": "function"
    },
    {
      "inputs": [
        {
          "internalType": "address",
          "name": "from",
          "type": "address"
        },
        {
          "internalType": "address",
          "name": "to",
          "type": "address"
        },
        {
          "internalType": "uint256",
          "name": "tokenId",
          "type": "uint256"
        }
      ],
      "name": "safeTransferFrom",
      "outputs": [],
      "stateMutability": "nonpayable",
      "type": "function"
    },
    {
      "inputs": [
        {
          "internalType": "address",
          "name": "from",
          "type": "address"
        },
        {
          "internalType": "address",
          "name": "to",
          "type": "address"
        },
        {
          "internalType": "uint256",
          "name": "tokenId",
          "type": "uint256"
        },
        {
          "internalType": "bytes",
          "name": "data",
          "type": "bytes"
        }
      ],
      "name": "safeTransferFrom",
      "outputs": [],
      "stateMutability": "nonpayable",
      "type": "function"
    },
    {
      "inputs": [
        {
          "internalType": "address",
          "name": "operator",
          "type": "address"
        },
        {
          "internalType": "bool",
          "name": "approved",
          "type": "bool"
        }
      ],
      "name": "setApprovalForAll",
      "outputs": [],
      "stateMutability": "nonpayable",
      "type": "function"
    },
    {
      "inputs": [
        {
          "internalType": "bytes4",
          "name": "interfaceId",
          "type": "bytes4"
        }
      ],
      "name": "supportsInterface",
      "outputs": [
        {
          "internalType": "bool",
          "name": "",
          "type": "bool"
        }
      ],
      "stateMutability": "view",
      "type": "function"
    },
    {
      "inputs": [],
      "name": "symbol",
      "outputs": [
        {
          "internalType": "string",
          "name": "",
          "type": "string"
        }
      ],
      "stateMutability": "view",
      "type": "function"
    },
    {
      "inputs": [
        {
          "internalType": "uint256",
          "name": "tokenId",
          "type": "uint256"
        }
      ],
      "name": "tokenURI",
      "outputs": [
        {
          "internalType": "string",
          "name": "",
          "type": "string"
        }
      ],
      "stateMutability": "view",
      "type": "function"
    },
    {
      "inputs": [
        {
          "internalType": "address",
          "name": "from",
          "type": "address"
        },
        {
          "internalType": "address",
          "name": "to",
          "type": "address"
        },
        {
          "internalType": "uint256",
          "name": "tokenId",
          "type": "uint256"
        }
      ],
      "name": "transferFrom",
      "outputs": [],
      "stateMutability": "nonpayable",
      "type": "function"
    }
  ],
  "bytecode": "0x608060405234801561001057600080fd5b50612d42806100206000396000f3fe608060405234801561001057600080fd5b50600436106100f55760003560e01c80636352211e11610097578063a22cb46511610066578063a22cb46514610284578063b88d4fde146102a0578063c87b56dd146102bc578063e985e9c5146102ec576100f5565b80636352211e146101fc57806370a082311461022c5780638129fc1c1461025c57806395d89b4114610266576100f5565b8063095ea7b3116100d3578063095ea7b31461017857806323b872dd1461019457806342842e0e146101b057806345576f94146101cc576100f5565b806301ffc9a7146100fa57806306fdde031461012a578063081812fc14610148575b600080fd5b610114600480360381019061010f9190612042565b61031c565b6040516101219190612452565b60405180910390f35b6101326103fe565b60405161013f9190612488565b60405180910390f35b610162600480360381019061015d91906120d5565b610490565b60405161016f91906123eb565b60405180910390f35b610192600480360381019061018d9190612006565b6104d6565b005b6101ae60048036038101906101a99190611f00565b6105ee565b005b6101ca60048036038101906101c59190611f00565b61064e565b005b6101e660048036038101906101e19190612094565b61066e565b6040516101f3919061266a565b60405180910390f35b610216600480360381019061021191906120d5565b6106a5565b60405161022391906123eb565b60405180910390f35b61024660048036038101906102419190611e9b565b61072c565b604051610253919061266a565b60405180910390f35b6102646107e4565b005b61026e61098e565b60405161027b9190612488565b60405180910390f35b61029e60048036038101906102999190611fca565b610a20565b005b6102ba60048036038101906102b59190611f4f565b610a36565b005b6102d660048036038101906102d191906120d5565b610a98565b6040516102e39190612488565b60405180910390f35b61030660048036038101906103019190611ec4565b610bab565b6040516103139190612452565b60405180910390f35b60007f80ac58cd000000000000000000000000000000000000000000000000000000007bffffffffffffffffffffffffffffffffffffffffffffffffffffffff1916827bffffffffffffffffffffffffffffffffffffffffffffffffffffffff191614806103e757507f5b5e139f000000000000000000000000000000000000000000000000000000007bffffffffffffffffffffffffffffffffffffffffffffffffffffffff1916827bffffffffffffffffffffffffffffffffffffffffffffffffffffffff1916145b806103f757506103f682610c3f565b5b9050919050565b60606065805461040d90612824565b80601f016020809104026020016040519081016040528092919081815260200182805461043990612824565b80156104865780601f1061045b57610100808354040283529160200191610486565b820191906000526020600020905b81548152906001019060200180831161046957829003601f168201915b5050505050905090565b600061049b82610ca9565b6069600083815260200190815260200160002060009054906101000a900473ffffffffffffffffffffffffffffffffffffffff169050919050565b60006104e1826106a5565b90508073ffffffffffffffffffffffffffffffffffffffff168373ffffffffffffffffffffffffffffffffffffffff161415610552576040517f08c379a00000000000000000000000000000000000000000000000000000000081526004016105499061260a565b60405180910390fd5b8073ffffffffffffffffffffffffffffffffffffffff16610571610cf4565b73ffffffffffffffffffffffffffffffffffffffff1614806105a0575061059f8161059a610cf4565b610bab565b5b6105df576040517f08c379a00000000000000000000000000000000000000000000000000000000081526004016105d69061262a565b60405180910390fd5b6105e98383610cfc565b505050565b6105ff6105f9610cf4565b82610db5565b61063e576040517f08c379a0000000000000000000000000000000000000000000000000000000008152600401610635906124aa565b60405180910390fd5b610649838383610e4a565b505050565b61066983838360405180602001604052806000815250610a36565b505050565b600061067a60c9611144565b600061068660c961115a565b90506106923382611168565b61069c8184611386565b80915050919050565b6000806106b1836113fa565b9050600073ffffffffffffffffffffffffffffffffffffffff168173ffffffffffffffffffffffffffffffffffffffff161415610723576040517f08c379a000000000000000000000000000000000000000000000000000000000815260040161071a906125ea565b60405180910390fd5b80915050919050565b60008073ffffffffffffffffffffffffffffffffffffffff168273ffffffffffffffffffffffffffffffffffffffff16141561079d576040517f08c379a00000000000000000000000000000000000000000000000000000000081526004016107949061256a565b60405180910390fd5b606860008373ffffffffffffffffffffffffffffffffffffffff1673ffffffffffffffffffffffffffffffffffffffff168152602001908152602001600020549050919050565b60008060019054906101000a900460ff161590508080156108155750600160008054906101000a900460ff1660ff16105b80610842575061082430611437565b1580156108415750600160008054906101000a900460ff1660ff16145b5b610881576040517f08c379a0000000000000000000000000000000000000000000000000000000008152600401610878906125aa565b60405180910390fd5b60016000806101000a81548160ff021916908360ff16021790555080156108be576001600060016101000a81548160ff0219169083151502179055505b6109326040518060400160405280600d81526020017f586f6c746f6e20546f6b656e73000000000000000000000000000000000000008152506040518060400160405280600381526020017f58544b000000000000000000000000000000000000000000000000000000000081525061145a565b801561098b5760008060016101000a81548160ff0219169083151502179055507f7f26b83ff96e1f2b6a682f133852f6798a09c465da95921460cefb38474024986001604051610982919061246d565b60405180910390a15b50565b60606066805461099d90612824565b80601f01602080910402602001604051908101604052809291908181526020018280546109c990612824565b8015610a165780601f106109eb57610100808354040283529160200191610a16565b820191906000526020600020905b8154815290600101906020018083116109f957829003601f168201915b5050505050905090565b610a32610a2b610cf4565b83836114b7565b5050565b610a47610a41610cf4565b83610db5565b610a86576040517f08c379a0000000000000000000000000000000000000000000000000000000008152600401610a7d906124aa565b60405180910390fd5b610a9284848484611624565b50505050565b6060610aa382610ca9565b6000609760008481526020019081526020016000208054610ac390612824565b80601f0160208091040260200160405190810160405280929190818152602001828054610aef90612824565b8015610b3c5780601f10610b1157610100808354040283529160200191610b3c565b820191906000526020600020905b815481529060010190602001808311610b1f57829003601f168201915b505050505090506000610b4d611680565b9050600081511415610b63578192505050610ba6565b600082511115610b98578082604051602001610b809291906123c7565b60405160208183030381529060405292505050610ba6565b610ba184611697565b925050505b919050565b6000606a60008473ffffffffffffffffffffffffffffffffffffffff1673ffffffffffffffffffffffffffffffffffffffff16815260200190815260200160002060008373ffffffffffffffffffffffffffffffffffffffff1673ffffffffffffffffffffffffffffffffffffffff16815260200190815260200160002060009054906101000a900460ff16905092915050565b60007f01ffc9a7000000000000000000000000000000000000000000000000000000007bffffffffffffffffffffffffffffffffffffffffffffffffffffffff1916827bffffffffffffffffffffffffffffffffffffffffffffffffffffffff1916149050919050565b610cb2816116ff565b610cf1576040517f08c379a0000000000000000000000000000000000000000000000000000000008152600401610ce8906125ea565b60405180910390fd5b50565b600033905090565b816069600083815260200190815260200160002060006101000a81548173ffffffffffffffffffffffffffffffffffffffff021916908373ffffffffffffffffffffffffffffffffffffffff160217905550808273ffffffffffffffffffffffffffffffffffffffff16610d6f836106a5565b73ffffffffffffffffffffffffffffffffffffffff167f8c5be1e5ebec7d5bd14f71427d1e84f3dd0314c0f7b2291e5b200ac8c7c3b92560405160405180910390a45050565b600080610dc1836106a5565b90508073ffffffffffffffffffffffffffffffffffffffff168473ffffffffffffffffffffffffffffffffffffffff161480610e035750610e028185610bab565b5b80610e4157508373ffffffffffffffffffffffffffffffffffffffff16610e2984610490565b73ffffffffffffffffffffffffffffffffffffffff16145b91505092915050565b8273ffffffffffffffffffffffffffffffffffffffff16610e6a826106a5565b73ffffffffffffffffffffffffffffffffffffffff1614610ec0576040517f08c379a0000000000000000000000000000000000000000000000000000000008152600401610eb7906124ea565b60405180910390fd5b600073ffffffffffffffffffffffffffffffffffffffff168273ffffffffffffffffffffffffffffffffffffffff161415610f30576040517f08c379a0000000000000000000000000000000000000000000000000000000008152600401610f279061252a565b60405180910390fd5b610f3d8383836001611740565b8273ffffffffffffffffffffffffffffffffffffffff16610f5d826106a5565b73ffffffffffffffffffffffffffffffffffffffff1614610fb3576040517f08c379a0000000000000000000000000000000000000000000000000000000008152600401610faa906124ea565b60405180910390fd5b6069600082815260200190815260200160002060006101000a81549073ffffffffffffffffffffffffffffffffffffffff02191690556001606860008573ffffffffffffffffffffffffffffffffffffffff1673ffffffffffffffffffffffffffffffffffffffff168152602001908152602001600020600082825403925050819055506001606860008473ffffffffffffffffffffffffffffffffffffffff1673ffffffffffffffffffffffffffffffffffffffff16815260200190815260200160002060008282540192505081905550816067600083815260200190815260200160002060006101000a81548173ffffffffffffffffffffffffffffffffffffffff021916908373ffffffffffffffffffffffffffffffffffffffff160217905550808273ffffffffffffffffffffffffffffffffffffffff168473ffffffffffffffffffffffffffffffffffffffff167fddf252ad1be2c89b69c2b068fc378daa952ba7f163c4a11628f55a4df523b3ef60405160405180910390a461113f8383836001611746565b505050565b6001816000016000828254019250508190555050565b600081600001549050919050565b600073ffffffffffffffffffffffffffffffffffffffff168273ffffffffffffffffffffffffffffffffffffffff1614156111d8576040517f08c379a00000000000000000000000000000000000000000000000000000000081526004016111cf906125ca565b60405180910390fd5b6111e1816116ff565b15611221576040517f08c379a00000000000000000000000000000000000000000000000000000000081526004016112189061250a565b60405180910390fd5b61122f600083836001611740565b611238816116ff565b15611278576040517f08c379a000000000000000000000000000000000000000000000000000000000815260040161126f9061250a565b60405180910390fd5b6001606860008473ffffffffffffffffffffffffffffffffffffffff1673ffffffffffffffffffffffffffffffffffffffff16815260200190815260200160002060008282540192505081905550816067600083815260200190815260200160002060006101000a81548173ffffffffffffffffffffffffffffffffffffffff021916908373ffffffffffffffffffffffffffffffffffffffff160217905550808273ffffffffffffffffffffffffffffffffffffffff16600073ffffffffffffffffffffffffffffffffffffffff167fddf252ad1be2c89b69c2b068fc378daa952ba7f163c4a11628f55a4df523b3ef60405160405180910390a4611382600083836001611746565b5050565b61138f826116ff565b6113ce576040517f08c379a00000000000000000000000000000000000000000000000000000000081526004016113c59061258a565b60405180910390fd5b806097600084815260200190815260200160002090805190602001906113f5929190611cbf565b505050565b60006067600083815260200190815260200160002060009054906101000a900473ffffffffffffffffffffffffffffffffffffffff169050919050565b6000808273ffffffffffffffffffffffffffffffffffffffff163b119050919050565b600060019054906101000a900460ff166114a9576040517f08c379a00000000000000000000000000000000000000000000000000000000081526004016114a09061264a565b60405180910390fd5b6114b3828261174c565b5050565b8173ffffffffffffffffffffffffffffffffffffffff168373ffffffffffffffffffffffffffffffffffffffff161415611526576040517f08c379a000000000000000000000000000000000000000000000000000000000815260040161151d9061254a565b60405180910390fd5b80606a60008573ffffffffffffffffffffffffffffffffffffffff1673ffffffffffffffffffffffffffffffffffffffff16815260200190815260200160002060008473ffffffffffffffffffffffffffffffffffffffff1673ffffffffffffffffffffffffffffffffffffffff16815260200190815260200160002060006101000a81548160ff0219169083151502179055508173ffffffffffffffffffffffffffffffffffffffff168373ffffffffffffffffffffffffffffffffffffffff167f17307eab39ab6107e8899845ad3d59bd9653f200f220920489ca2b5937696c31836040516116179190612452565b60405180910390a3505050565b61162f848484610e4a565b61163b848484846117cd565b61167a576040517f08c379a0000000000000000000000000000000000000000000000000000000008152600401611671906124ca565b60405180910390fd5b50505050565b606060405180602001604052806000815250905090565b60606116a282610ca9565b60006116ac611680565b905060008151116116cc57604051806020016040528060008152506116f7565b806116d684611964565b6040516020016116e79291906123c7565b6040516020818303038152906040525b915050919050565b60008073ffffffffffffffffffffffffffffffffffffffff16611721836113fa565b73ffffffffffffffffffffffffffffffffffffffff1614159050919050565b50505050565b50505050565b600060019054906101000a900460ff1661179b576040517f08c379a00000000000000000000000000000000000000000000000000000000081526004016117929061264a565b60405180910390fd5b81606590805190602001906117b1929190611cbf565b5080606690805190602001906117c8929190611cbf565b505050565b60006117ee8473ffffffffffffffffffffffffffffffffffffffff16611437565b15611957578373ffffffffffffffffffffffffffffffffffffffff1663150b7a02611817610cf4565b8786866040518563ffffffff1660e01b81526004016118399493929190612406565b602060405180830381600087803b15801561185357600080fd5b505af192505050801561188457506040513d601f19601f82011682018060405250810190611881919061206b565b60015b611907573d80600081146118b4576040519150601f19603f3d011682016040523d82523d6000602084013e6118b9565b606091505b506000815114156118ff576040517f08c379a00000000000000000000000000000000000000000000000000000000081526004016118f6906124ca565b60405180910390fd5b805181602001fd5b63150b7a0260e01b7bffffffffffffffffffffffffffffffffffffffffffffffffffffffff1916817bffffffffffffffffffffffffffffffffffffffffffffffffffffffff19161491505061195c565b600190505b949350505050565b60606000600161197384611a88565b01905060008167ffffffffffffffff8111156119b8577f4e487b7100000000000000000000000000000000000000000000000000000000600052604160045260246000fd5b6040519080825280601f01601f1916602001820160405280156119ea5781602001600182028036833780820191505090505b509050600082602001820190505b600115611a7d578080600190039150507f3031323334353637383961626364656600000000000000000000000000000000600a86061a8153600a8581611a67577f4e487b7100000000000000000000000000000000000000000000000000000000600052601260045260246000fd5b0494506000851415611a7857611a7d565b6119f8565b819350505050919050565b600080600090507a184f03e93ff9f4daa797ed6e38ed64bf6a1f0100000000000000008310611b0c577a184f03e93ff9f4daa797ed6e38ed64bf6a1f0100000000000000008381611b02577f4e487b7100000000000000000000000000000000000000000000000000000000600052601260045260246000fd5b0492506040810190505b6d04ee2d6d415b85acef81000000008310611b6f576d04ee2d6d415b85acef81000000008381611b65577f4e487b7100000000000000000000000000000000000000000000000000000000600052601260045260246000fd5b0492506020810190505b662386f26fc100008310611bc457662386f26fc100008381611bba577f4e487b7100000000000000000000000000000000000000000000000000000000600052601260045260246000fd5b0492506010810190505b6305f5e1008310611c13576305f5e1008381611c09577f4e487b7100000000000000000000000000000000000000000000000000000000600052601260045260246000fd5b0492506008810190505b6127108310611c5e576127108381611c54577f4e487b7100000000000000000000000000000000000000000000000000000000600052601260045260246000fd5b0492506004810190505b60648310611ca75760648381611c9d577f4e487b7100000000000000000000000000000000000000000000000000000000600052601260045260246000fd5b0492506002810190505b600a8310611cb6576001810190505b80915050919050565b828054611ccb90612824565b90600052602060002090601f016020900481019282611ced5760008555611d34565b82601f10611d0657805160ff1916838001178555611d34565b82800160010185558215611d34579182015b82811115611d33578251825591602001919060010190611d18565b5b509050611d419190611d45565b5090565b5b80821115611d5e576000816000905550600101611d46565b5090565b6000611d75611d70846126aa565b612685565b905082815260208101848484011115611d8d57600080fd5b611d988482856127e2565b509392505050565b6000611db3611dae846126db565b612685565b905082815260208101848484011115611dcb57600080fd5b611dd68482856127e2565b509392505050565b600081359050611ded81612cb0565b92915050565b600081359050611e0281612cc7565b92915050565b600081359050611e1781612cde565b92915050565b600081519050611e2c81612cde565b92915050565b600082601f830112611e4357600080fd5b8135611e53848260208601611d62565b91505092915050565b600082601f830112611e6d57600080fd5b8135611e7d848260208601611da0565b91505092915050565b600081359050611e9581612cf5565b92915050565b600060208284031215611ead57600080fd5b6000611ebb84828501611dde565b91505092915050565b60008060408385031215611ed757600080fd5b6000611ee585828601611dde565b9250506020611ef685828601611dde565b9150509250929050565b600080600060608486031215611f1557600080fd5b6000611f2386828701611dde565b9350506020611f3486828701611dde565b9250506040611f4586828701611e86565b9150509250925092565b60008060008060808587031215611f6557600080fd5b6000611f7387828801611dde565b9450506020611f8487828801611dde565b9350506040611f9587828801611e86565b925050606085013567ffffffffffffffff811115611fb257600080fd5b611fbe87828801611e32565b91505092959194509250565b60008060408385031215611fdd57600080fd5b6000611feb85828601611dde565b9250506020611ffc85828601611df3565b9150509250929050565b6000806040838503121561201957600080fd5b600061202785828601611dde565b925050602061203885828601611e86565b9150509250929050565b60006020828403121561205457600080fd5b600061206284828501611e08565b91505092915050565b60006020828403121561207d57600080fd5b600061208b84828501611e1d565b91505092915050565b6000602082840312156120a657600080fd5b600082013567ffffffffffffffff8111156120c057600080fd5b6120cc84828501611e5c565b91505092915050565b6000602082840312156120e757600080fd5b60006120f584828501611e86565b91505092915050565b6121078161274f565b82525050565b61211681612761565b82525050565b60006121278261270c565b6121318185612722565b93506121418185602086016127f1565b61214a816128e5565b840191505092915050565b61215e816127d0565b82525050565b600061216f82612717565b6121798185612733565b93506121898185602086016127f1565b612192816128e5565b840191505092915050565b60006121a882612717565b6121b28185612744565b93506121c28185602086016127f1565b80840191505092915050565b60006121db602d83612733565b91506121e6826128f6565b604082019050919050565b60006121fe603283612733565b915061220982612945565b604082019050919050565b6000612221602583612733565b915061222c82612994565b604082019050919050565b6000612244601c83612733565b915061224f826129e3565b602082019050919050565b6000612267602483612733565b915061227282612a0c565b604082019050919050565b600061228a601983612733565b915061229582612a5b565b602082019050919050565b60006122ad602983612733565b91506122b882612a84565b604082019050919050565b60006122d0602e83612733565b91506122db82612ad3565b604082019050919050565b60006122f3602e83612733565b91506122fe82612b22565b604082019050919050565b6000612316602083612733565b915061232182612b71565b602082019050919050565b6000612339601883612733565b915061234482612b9a565b602082019050919050565b600061235c602183612733565b915061236782612bc3565b604082019050919050565b600061237f603d83612733565b915061238a82612c12565b604082019050919050565b60006123a2602b83612733565b91506123ad82612c61565b604082019050919050565b6123c1816127b9565b82525050565b60006123d3828561219d565b91506123df828461219d565b91508190509392505050565b600060208201905061240060008301846120fe565b92915050565b600060808201905061241b60008301876120fe565b61242860208301866120fe565b61243560408301856123b8565b8181036060830152612447818461211c565b905095945050505050565b6000602082019050612467600083018461210d565b92915050565b60006020820190506124826000830184612155565b92915050565b600060208201905081810360008301526124a28184612164565b905092915050565b600060208201905081810360008301526124c3816121ce565b9050919050565b600060208201905081810360008301526124e3816121f1565b9050919050565b6000602082019050818103600083015261250381612214565b9050919050565b6000602082019050818103600083015261252381612237565b9050919050565b600060208201905081810360008301526125438161225a565b9050919050565b600060208201905081810360008301526125638161227d565b9050919050565b60006020820190508181036000830152612583816122a0565b9050919050565b600060208201905081810360008301526125a3816122c3565b9050919050565b600060208201905081810360008301526125c3816122e6565b9050919050565b600060208201905081810360008301526125e381612309565b9050919050565b600060208201905081810360008301526126038161232c565b9050919050565b600060208201905081810360008301526126238161234f565b9050919050565b6000602082019050818103600083015261264381612372565b9050919050565b6000602082019050818103600083015261266381612395565b9050919050565b600060208201905061267f60008301846123b8565b92915050565b600061268f6126a0565b905061269b8282612856565b919050565b6000604051905090565b600067ffffffffffffffff8211156126c5576126c46128b6565b5b6126ce826128e5565b9050602081019050919050565b600067ffffffffffffffff8211156126f6576126f56128b6565b5b6126ff826128e5565b9050602081019050919050565b600081519050919050565b600081519050919050565b600082825260208201905092915050565b600082825260208201905092915050565b600081905092915050565b600061275a82612799565b9050919050565b60008115159050919050565b60007fffffffff0000000000000000000000000000000000000000000000000000000082169050919050565b600073ffffffffffffffffffffffffffffffffffffffff82169050919050565b6000819050919050565b600060ff82169050919050565b60006127db826127c3565b9050919050565b82818337600083830152505050565b60005b8381101561280f5780820151818401526020810190506127f4565b8381111561281e576000848401525b50505050565b6000600282049050600182168061283c57607f821691505b602082108114156128505761284f612887565b5b50919050565b61285f826128e5565b810181811067ffffffffffffffff8211171561287e5761287d6128b6565b5b80604052505050565b7f4e487b7100000000000000000000000000000000000000000000000000000000600052602260045260246000fd5b7f4e487b7100000000000000000000000000000000000000000000000000000000600052604160045260246000fd5b6000601f19601f8301169050919050565b7f4552433732313a2063616c6c6572206973206e6f7420746f6b656e206f776e6560008201527f72206f7220617070726f76656400000000000000000000000000000000000000602082015250565b7f4552433732313a207472616e7366657220746f206e6f6e20455243373231526560008201527f63656976657220696d706c656d656e7465720000000000000000000000000000602082015250565b7f4552433732313a207472616e736665722066726f6d20696e636f72726563742060008201527f6f776e6572000000000000000000000000000000000000000000000000000000602082015250565b7f4552433732313a20746f6b656e20616c7265616479206d696e74656400000000600082015250565b7f4552433732313a207472616e7366657220746f20746865207a65726f2061646460008201527f7265737300000000000000000000000000000000000000000000000000000000602082015250565b7f4552433732313a20617070726f766520746f2063616c6c657200000000000000600082015250565b7f4552433732313a2061646472657373207a65726f206973206e6f74206120766160008201527f6c6964206f776e65720000000000000000000000000000000000000000000000602082015250565b7f45524337323155524953746f726167653a2055524920736574206f66206e6f6e60008201527f6578697374656e7420746f6b656e000000000000000000000000000000000000602082015250565b7f496e697469616c697a61626c653a20636f6e747261637420697320616c72656160008201527f647920696e697469616c697a6564000000000000000000000000000000000000602082015250565b7f4552433732313a206d696e7420746f20746865207a65726f2061646472657373600082015250565b7f4552433732313a20696e76616c696420746f6b656e2049440000000000000000600082015250565b7f4552433732313a20617070726f76616c20746f2063757272656e74206f776e6560008201527f7200000000000000000000000000000000000000000000000000000000000000602082015250565b7f4552433732313a20617070726f76652063616c6c6572206973206e6f7420746f60008201527f6b656e206f776e6572206f7220617070726f76656420666f7220616c6c000000602082015250565b7f496e697469616c697a61626c653a20636f6e7472616374206973206e6f74206960008201527f6e697469616c697a696e67000000000000000000000000000000000000000000602082015250565b612cb98161274f565b8114612cc457600080fd5b50565b612cd081612761565b8114612cdb57600080fd5b50565b612ce78161276d565b8114612cf257600080fd5b50565b612cfe816127b9565b8114612d0957600080fd5b5056fea26469706673582212208ff92daad9ce675a5747588df7795650e22b2ab214aafc0309fbd69fd8f7155a64736f6c63430008040033",
  "linkReferences": {},
  "deployedLinkReferences": {}
}