{
    "_format": "hh-sol-artifact-1",
    "contractName": "NFT",
    "sourceName": "contracts/NFT.sol",
    "abi": [
        {
            "inputs": [
                {
                    "internalType": "address",
                    "name": "marketPlaceAddress",
                    "type": "address"
                }
            ],
            "stateMutability": "nonpayable",
            "type": "constructor"
        },
        {
            "anonymous": false,
            "inputs": [
                {
                    "indexed": true,
                    "internalType": "address",
                    "name": "owner",
                    "type": "address"
                },
                {
                    "indexed": true,
                    "internalType": "address",
                    "name": "approved",
                    "type": "address"
                },
                {
                    "indexed": true,
                    "internalType": "uint256",
                    "name": "tokenId",
                    "type": "uint256"
                }
            ],
            "name": "Approval",
            "type": "event"
        },
        {
            "anonymous": false,
            "inputs": [
                {
                    "indexed": true,
                    "internalType": "address",
                    "name": "owner",
                    "type": "address"
                },
                {
                    "indexed": true,
                    "internalType": "address",
                    "name": "operator",
                    "type": "address"
                },
                {
                    "indexed": false,
                    "internalType": "bool",
                    "name": "approved",
                    "type": "bool"
                }
            ],
            "name": "ApprovalForAll",
            "type": "event"
        },
        {
            "anonymous": false,
            "inputs": [
                {
                    "indexed": true,
                    "internalType": "address",
                    "name": "from",
                    "type": "address"
                },
                {
                    "indexed": true,
                    "internalType": "address",
                    "name": "to",
                    "type": "address"
                },
                {
                    "indexed": true,
                    "internalType": "uint256",
                    "name": "tokenId",
                    "type": "uint256"
                }
            ],
            "name": "Transfer",
            "type": "event"
        },
        {
            "inputs": [
                {
                    "internalType": "address",
                    "name": "to",
                    "type": "address"
                },
                {
                    "internalType": "uint256",
                    "name": "tokenId",
                    "type": "uint256"
                }
            ],
            "name": "approve",
            "outputs": [],
            "stateMutability": "nonpayable",
            "type": "function"
        },
        {
            "inputs": [
                {
                    "internalType": "address",
                    "name": "owner",
                    "type": "address"
                }
            ],
            "name": "balanceOf",
            "outputs": [
                {
                    "internalType": "uint256",
                    "name": "",
                    "type": "uint256"
                }
            ],
            "stateMutability": "view",
            "type": "function"
        },
        {
            "inputs": [],
            "name": "contractAddress",
            "outputs": [
                {
                    "internalType": "address",
                    "name": "",
                    "type": "address"
                }
            ],
            "stateMutability": "view",
            "type": "function"
        },
        {
            "inputs": [
                {
                    "internalType": "string",
                    "name": "tokenURI",
                    "type": "string"
                }
            ],
            "name": "createToken",
            "outputs": [
                {
                    "internalType": "uint256",
                    "name": "",
                    "type": "uint256"
                }
            ],
            "stateMutability": "nonpayable",
            "type": "function"
        },
        {
            "inputs": [
                {
                    "internalType": "uint256",
                    "name": "tokenId",
                    "type": "uint256"
                }
            ],
            "name": "getApproved",
            "outputs": [
                {
                    "internalType": "address",
                    "name": "",
                    "type": "address"
                }
            ],
            "stateMutability": "view",
            "type": "function"
        },
        {
            "inputs": [
                {
                    "internalType": "address",
                    "name": "owner",
                    "type": "address"
                },
                {
                    "internalType": "address",
                    "name": "operator",
                    "type": "address"
                }
            ],
            "name": "isApprovedForAll",
            "outputs": [
                {
                    "internalType": "bool",
                    "name": "",
                    "type": "bool"
                }
            ],
            "stateMutability": "view",
            "type": "function"
        },
        {
            "inputs": [],
            "name": "name",
            "outputs": [
                {
                    "internalType": "string",
                    "name": "",
                    "type": "string"
                }
            ],
            "stateMutability": "view",
            "type": "function"
        },
        {
            "inputs": [
                {
                    "internalType": "uint256",
                    "name": "tokenId",
                    "type": "uint256"
                }
            ],
            "name": "ownerOf",
            "outputs": [
                {
                    "internalType": "address",
                    "name": "",
                    "type": "address"
                }
            ],
            "stateMutability": "view",
            "type": "function"
        },
        {
            "inputs": [
                {
                    "internalType": "address",
                    "name": "from",
                    "type": "address"
                },
                {
                    "internalType": "address",
                    "name": "to",
                    "type": "address"
                },
                {
                    "internalType": "uint256",
                    "name": "tokenId",
                    "type": "uint256"
                }
            ],
            "name": "safeTransferFrom",
            "outputs": [],
            "stateMutability": "nonpayable",
            "type": "function"
        },
        {
            "inputs": [
                {
                    "internalType": "address",
                    "name": "from",
                    "type": "address"
                },
                {
                    "internalType": "address",
                    "name": "to",
                    "type": "address"
                },
                {
                    "internalType": "uint256",
                    "name": "tokenId",
                    "type": "uint256"
                },
                {
                    "internalType": "bytes",
                    "name": "data",
                    "type": "bytes"
                }
            ],
            "name": "safeTransferFrom",
            "outputs": [],
            "stateMutability": "nonpayable",
            "type": "function"
        },
        {
            "inputs": [
                {
                    "internalType": "address",
                    "name": "operator",
                    "type": "address"
                },
                {
                    "internalType": "bool",
                    "name": "approved",
                    "type": "bool"
                }
            ],
            "name": "setApprovalForAll",
            "outputs": [],
            "stateMutability": "nonpayable",
            "type": "function"
        },
        {
            "inputs": [
                {
                    "internalType": "bytes4",
                    "name": "interfaceId",
                    "type": "bytes4"
                }
            ],
            "name": "supportsInterface",
            "outputs": [
                {
                    "internalType": "bool",
                    "name": "",
                    "type": "bool"
                }
            ],
            "stateMutability": "view",
            "type": "function"
        },
        {
            "inputs": [],
            "name": "symbol",
            "outputs": [
                {
                    "internalType": "string",
                    "name": "",
                    "type": "string"
                }
            ],
            "stateMutability": "view",
            "type": "function"
        },
        {
            "inputs": [
                {
                    "internalType": "uint256",
                    "name": "tokenId",
                    "type": "uint256"
                }
            ],
            "name": "tokenURI",
            "outputs": [
                {
                    "internalType": "string",
                    "name": "",
                    "type": "string"
                }
            ],
            "stateMutability": "view",
            "type": "function"
        },
        {
            "inputs": [
                {
                    "internalType": "address",
                    "name": "from",
                    "type": "address"
                },
                {
                    "internalType": "address",
                    "name": "to",
                    "type": "address"
                },
                {
                    "internalType": "uint256",
                    "name": "tokenId",
                    "type": "uint256"
                }
            ],
            "name": "transferFrom",
            "outputs": [],
            "stateMutability": "nonpayable",
            "type": "function"
        }
    ],
    "bytecode": "0x60806040523480156200001157600080fd5b5060405162002e6238038062002e628339818101604052810190620000379190620001e6565b6040518060400160405280600d81526020017f586f6c746f6e20546f6b656e73000000000000000000000000000000000000008152506040518060400160405280600381526020017f58544b00000000000000000000000000000000000000000000000000000000008152508160009080519060200190620000bb9291906200011f565b508060019080519060200190620000d49291906200011f565b50505080600860006101000a81548173ffffffffffffffffffffffffffffffffffffffff021916908373ffffffffffffffffffffffffffffffffffffffff16021790555050620002c5565b8280546200012d9062000246565b90600052602060002090601f0160209004810192826200015157600085556200019d565b82601f106200016c57805160ff19168380011785556200019d565b828001600101855582156200019d579182015b828111156200019c5782518255916020019190600101906200017f565b5b509050620001ac9190620001b0565b5090565b5b80821115620001cb576000816000905550600101620001b1565b5090565b600081519050620001e081620002ab565b92915050565b600060208284031215620001f957600080fd5b60006200020984828501620001cf565b91505092915050565b60006200021f8262000226565b9050919050565b600073ffffffffffffffffffffffffffffffffffffffff82169050919050565b600060028204905060018216806200025f57607f821691505b602082108114156200027657620002756200027c565b5b50919050565b7f4e487b7100000000000000000000000000000000000000000000000000000000600052602260045260246000fd5b620002b68162000212565b8114620002c257600080fd5b50565b612b8d80620002d56000396000f3fe608060405234801561001057600080fd5b50600436106100f55760003560e01c80636352211e11610097578063b88d4fde11610066578063b88d4fde14610296578063c87b56dd146102b2578063e985e9c5146102e2578063f6b4dfb414610312576100f5565b80636352211e146101fc57806370a082311461022c57806395d89b411461025c578063a22cb4651461027a576100f5565b8063095ea7b3116100d3578063095ea7b31461017857806323b872dd1461019457806342842e0e146101b057806345576f94146101cc576100f5565b806301ffc9a7146100fa57806306fdde031461012a578063081812fc14610148575b600080fd5b610114600480360381019061010f9190611f41565b610330565b60405161012191906122fc565b60405180910390f35b610132610412565b60405161013f9190612317565b60405180910390f35b610162600480360381019061015d9190611fd4565b6104a4565b60405161016f9190612295565b60405180910390f35b610192600480360381019061018d9190611f05565b6104ea565b005b6101ae60048036038101906101a99190611dff565b610602565b005b6101ca60048036038101906101c59190611dff565b610662565b005b6101e660048036038101906101e19190611f93565b610682565b6040516101f391906124b9565b60405180910390f35b61021660048036038101906102119190611fd4565b6106e6565b6040516102239190612295565b60405180910390f35b61024660048036038101906102419190611d9a565b61076d565b60405161025391906124b9565b60405180910390f35b610264610825565b6040516102719190612317565b60405180910390f35b610294600480360381019061028f9190611ec9565b6108b7565b005b6102b060048036038101906102ab9190611e4e565b6108cd565b005b6102cc60048036038101906102c79190611fd4565b61092f565b6040516102d99190612317565b60405180910390f35b6102fc60048036038101906102f79190611dc3565b610a42565b60405161030991906122fc565b60405180910390f35b61031a610ad6565b6040516103279190612295565b60405180910390f35b60007f80ac58cd000000000000000000000000000000000000000000000000000000007bffffffffffffffffffffffffffffffffffffffffffffffffffffffff1916827bffffffffffffffffffffffffffffffffffffffffffffffffffffffff191614806103fb57507f5b5e139f000000000000000000000000000000000000000000000000000000007bffffffffffffffffffffffffffffffffffffffffffffffffffffffff1916827bffffffffffffffffffffffffffffffffffffffffffffffffffffffff1916145b8061040b575061040a82610afc565b5b9050919050565b606060008054610421906126de565b80601f016020809104026020016040519081016040528092919081815260200182805461044d906126de565b801561049a5780601f1061046f5761010080835404028352916020019161049a565b820191906000526020600020905b81548152906001019060200180831161047d57829003601f168201915b5050505050905090565b60006104af82610b66565b6004600083815260200190815260200160002060009054906101000a900473ffffffffffffffffffffffffffffffffffffffff169050919050565b60006104f5826106e6565b90508073ffffffffffffffffffffffffffffffffffffffff168373ffffffffffffffffffffffffffffffffffffffff161415610566576040517f08c379a000000000000000000000000000000000000000000000000000000000815260040161055d90612479565b60405180910390fd5b8073ffffffffffffffffffffffffffffffffffffffff16610585610bb1565b73ffffffffffffffffffffffffffffffffffffffff1614806105b457506105b3816105ae610bb1565b610a42565b5b6105f3576040517f08c379a00000000000000000000000000000000000000000000000000000000081526004016105ea90612499565b60405180910390fd5b6105fd8383610bb9565b505050565b61061361060d610bb1565b82610c72565b610652576040517f08c379a000000000000000000000000000000000000000000000000000000000815260040161064990612339565b60405180910390fd5b61065d838383610d07565b505050565b61067d838383604051806020016040528060008152506108cd565b505050565b600061068e6007611001565b600061069a6007611017565b90506106a63382611025565b6106d3600860009054906101000a900473ffffffffffffffffffffffffffffffffffffffff1660016108b7565b6106dd8184611243565b80915050919050565b6000806106f2836112b7565b9050600073ffffffffffffffffffffffffffffffffffffffff168173ffffffffffffffffffffffffffffffffffffffff161415610764576040517f08c379a000000000000000000000000000000000000000000000000000000000815260040161075b90612459565b60405180910390fd5b80915050919050565b60008073ffffffffffffffffffffffffffffffffffffffff168273ffffffffffffffffffffffffffffffffffffffff1614156107de576040517f08c379a00000000000000000000000000000000000000000000000000000000081526004016107d5906123f9565b60405180910390fd5b600360008373ffffffffffffffffffffffffffffffffffffffff1673ffffffffffffffffffffffffffffffffffffffff168152602001908152602001600020549050919050565b606060018054610834906126de565b80601f0160208091040260200160405190810160405280929190818152602001828054610860906126de565b80156108ad5780601f10610882576101008083540402835291602001916108ad565b820191906000526020600020905b81548152906001019060200180831161089057829003601f168201915b5050505050905090565b6108c96108c2610bb1565b83836112f4565b5050565b6108de6108d8610bb1565b83610c72565b61091d576040517f08c379a000000000000000000000000000000000000000000000000000000000815260040161091490612339565b60405180910390fd5b61092984848484611461565b50505050565b606061093a82610b66565b600060066000848152602001908152602001600020805461095a906126de565b80601f0160208091040260200160405190810160405280929190818152602001828054610986906126de565b80156109d35780601f106109a8576101008083540402835291602001916109d3565b820191906000526020600020905b8154815290600101906020018083116109b657829003601f168201915b5050505050905060006109e46114bd565b90506000815114156109fa578192505050610a3d565b600082511115610a2f578082604051602001610a17929190612271565b60405160208183030381529060405292505050610a3d565b610a38846114d4565b925050505b919050565b6000600560008473ffffffffffffffffffffffffffffffffffffffff1673ffffffffffffffffffffffffffffffffffffffff16815260200190815260200160002060008373ffffffffffffffffffffffffffffffffffffffff1673ffffffffffffffffffffffffffffffffffffffff16815260200190815260200160002060009054906101000a900460ff16905092915050565b600860009054906101000a900473ffffffffffffffffffffffffffffffffffffffff1681565b60007f01ffc9a7000000000000000000000000000000000000000000000000000000007bffffffffffffffffffffffffffffffffffffffffffffffffffffffff1916827bffffffffffffffffffffffffffffffffffffffffffffffffffffffff1916149050919050565b610b6f8161153c565b610bae576040517f08c379a0000000000000000000000000000000000000000000000000000000008152600401610ba590612459565b60405180910390fd5b50565b600033905090565b816004600083815260200190815260200160002060006101000a81548173ffffffffffffffffffffffffffffffffffffffff021916908373ffffffffffffffffffffffffffffffffffffffff160217905550808273ffffffffffffffffffffffffffffffffffffffff16610c2c836106e6565b73ffffffffffffffffffffffffffffffffffffffff167f8c5be1e5ebec7d5bd14f71427d1e84f3dd0314c0f7b2291e5b200ac8c7c3b92560405160405180910390a45050565b600080610c7e836106e6565b90508073ffffffffffffffffffffffffffffffffffffffff168473ffffffffffffffffffffffffffffffffffffffff161480610cc05750610cbf8185610a42565b5b80610cfe57508373ffffffffffffffffffffffffffffffffffffffff16610ce6846104a4565b73ffffffffffffffffffffffffffffffffffffffff16145b91505092915050565b8273ffffffffffffffffffffffffffffffffffffffff16610d27826106e6565b73ffffffffffffffffffffffffffffffffffffffff1614610d7d576040517f08c379a0000000000000000000000000000000000000000000000000000000008152600401610d7490612379565b60405180910390fd5b600073ffffffffffffffffffffffffffffffffffffffff168273ffffffffffffffffffffffffffffffffffffffff161415610ded576040517f08c379a0000000000000000000000000000000000000000000000000000000008152600401610de4906123b9565b60405180910390fd5b610dfa838383600161157d565b8273ffffffffffffffffffffffffffffffffffffffff16610e1a826106e6565b73ffffffffffffffffffffffffffffffffffffffff1614610e70576040517f08c379a0000000000000000000000000000000000000000000000000000000008152600401610e6790612379565b60405180910390fd5b6004600082815260200190815260200160002060006101000a81549073ffffffffffffffffffffffffffffffffffffffff02191690556001600360008573ffffffffffffffffffffffffffffffffffffffff1673ffffffffffffffffffffffffffffffffffffffff168152602001908152602001600020600082825403925050819055506001600360008473ffffffffffffffffffffffffffffffffffffffff1673ffffffffffffffffffffffffffffffffffffffff16815260200190815260200160002060008282540192505081905550816002600083815260200190815260200160002060006101000a81548173ffffffffffffffffffffffffffffffffffffffff021916908373ffffffffffffffffffffffffffffffffffffffff160217905550808273ffffffffffffffffffffffffffffffffffffffff168473ffffffffffffffffffffffffffffffffffffffff167fddf252ad1be2c89b69c2b068fc378daa952ba7f163c4a11628f55a4df523b3ef60405160405180910390a4610ffc83838360016116a3565b505050565b6001816000016000828254019250508190555050565b600081600001549050919050565b600073ffffffffffffffffffffffffffffffffffffffff168273ffffffffffffffffffffffffffffffffffffffff161415611095576040517f08c379a000000000000000000000000000000000000000000000000000000000815260040161108c90612439565b60405180910390fd5b61109e8161153c565b156110de576040517f08c379a00000000000000000000000000000000000000000000000000000000081526004016110d590612399565b60405180910390fd5b6110ec60008383600161157d565b6110f58161153c565b15611135576040517f08c379a000000000000000000000000000000000000000000000000000000000815260040161112c90612399565b60405180910390fd5b6001600360008473ffffffffffffffffffffffffffffffffffffffff1673ffffffffffffffffffffffffffffffffffffffff16815260200190815260200160002060008282540192505081905550816002600083815260200190815260200160002060006101000a81548173ffffffffffffffffffffffffffffffffffffffff021916908373ffffffffffffffffffffffffffffffffffffffff160217905550808273ffffffffffffffffffffffffffffffffffffffff16600073ffffffffffffffffffffffffffffffffffffffff167fddf252ad1be2c89b69c2b068fc378daa952ba7f163c4a11628f55a4df523b3ef60405160405180910390a461123f6000838360016116a3565b5050565b61124c8261153c565b61128b576040517f08c379a000000000000000000000000000000000000000000000000000000000815260040161128290612419565b60405180910390fd5b806006600084815260200190815260200160002090805190602001906112b2929190611bbe565b505050565b60006002600083815260200190815260200160002060009054906101000a900473ffffffffffffffffffffffffffffffffffffffff169050919050565b8173ffffffffffffffffffffffffffffffffffffffff168373ffffffffffffffffffffffffffffffffffffffff161415611363576040517f08c379a000000000000000000000000000000000000000000000000000000000815260040161135a906123d9565b60405180910390fd5b80600560008573ffffffffffffffffffffffffffffffffffffffff1673ffffffffffffffffffffffffffffffffffffffff16815260200190815260200160002060008473ffffffffffffffffffffffffffffffffffffffff1673ffffffffffffffffffffffffffffffffffffffff16815260200190815260200160002060006101000a81548160ff0219169083151502179055508173ffffffffffffffffffffffffffffffffffffffff168373ffffffffffffffffffffffffffffffffffffffff167f17307eab39ab6107e8899845ad3d59bd9653f200f220920489ca2b5937696c318360405161145491906122fc565b60405180910390a3505050565b61146c848484610d07565b611478848484846116a9565b6114b7576040517f08c379a00000000000000000000000000000000000000000000000000000000081526004016114ae90612359565b60405180910390fd5b50505050565b606060405180602001604052806000815250905090565b60606114df82610b66565b60006114e96114bd565b905060008151116115095760405180602001604052806000815250611534565b8061151384611840565b604051602001611524929190612271565b6040516020818303038152906040525b915050919050565b60008073ffffffffffffffffffffffffffffffffffffffff1661155e836112b7565b73ffffffffffffffffffffffffffffffffffffffff1614159050919050565b600181111561169d57600073ffffffffffffffffffffffffffffffffffffffff168473ffffffffffffffffffffffffffffffffffffffff16146116115780600360008673ffffffffffffffffffffffffffffffffffffffff1673ffffffffffffffffffffffffffffffffffffffff168152602001908152602001600020600082825461160991906125f4565b925050819055505b600073ffffffffffffffffffffffffffffffffffffffff168373ffffffffffffffffffffffffffffffffffffffff161461169c5780600360008573ffffffffffffffffffffffffffffffffffffffff1673ffffffffffffffffffffffffffffffffffffffff1681526020019081526020016000206000828254611694919061259e565b925050819055505b5b50505050565b50505050565b60006116ca8473ffffffffffffffffffffffffffffffffffffffff16611964565b15611833578373ffffffffffffffffffffffffffffffffffffffff1663150b7a026116f3610bb1565b8786866040518563ffffffff1660e01b815260040161171594939291906122b0565b602060405180830381600087803b15801561172f57600080fd5b505af192505050801561176057506040513d601f19601f8201168201806040525081019061175d9190611f6a565b60015b6117e3573d8060008114611790576040519150601f19603f3d011682016040523d82523d6000602084013e611795565b606091505b506000815114156117db576040517f08c379a00000000000000000000000000000000000000000000000000000000081526004016117d290612359565b60405180910390fd5b805181602001fd5b63150b7a0260e01b7bffffffffffffffffffffffffffffffffffffffffffffffffffffffff1916817bffffffffffffffffffffffffffffffffffffffffffffffffffffffff191614915050611838565b600190505b949350505050565b60606000600161184f84611987565b01905060008167ffffffffffffffff811115611894577f4e487b7100000000000000000000000000000000000000000000000000000000600052604160045260246000fd5b6040519080825280601f01601f1916602001820160405280156118c65781602001600182028036833780820191505090505b509050600082602001820190505b600115611959578080600190039150507f3031323334353637383961626364656600000000000000000000000000000000600a86061a8153600a8581611943577f4e487b7100000000000000000000000000000000000000000000000000000000600052601260045260246000fd5b049450600085141561195457611959565b6118d4565b819350505050919050565b6000808273ffffffffffffffffffffffffffffffffffffffff163b119050919050565b600080600090507a184f03e93ff9f4daa797ed6e38ed64bf6a1f0100000000000000008310611a0b577a184f03e93ff9f4daa797ed6e38ed64bf6a1f0100000000000000008381611a01577f4e487b7100000000000000000000000000000000000000000000000000000000600052601260045260246000fd5b0492506040810190505b6d04ee2d6d415b85acef81000000008310611a6e576d04ee2d6d415b85acef81000000008381611a64577f4e487b7100000000000000000000000000000000000000000000000000000000600052601260045260246000fd5b0492506020810190505b662386f26fc100008310611ac357662386f26fc100008381611ab9577f4e487b7100000000000000000000000000000000000000000000000000000000600052601260045260246000fd5b0492506010810190505b6305f5e1008310611b12576305f5e1008381611b08577f4e487b7100000000000000000000000000000000000000000000000000000000600052601260045260246000fd5b0492506008810190505b6127108310611b5d576127108381611b53577f4e487b7100000000000000000000000000000000000000000000000000000000600052601260045260246000fd5b0492506004810190505b60648310611ba65760648381611b9c577f4e487b7100000000000000000000000000000000000000000000000000000000600052601260045260246000fd5b0492506002810190505b600a8310611bb5576001810190505b80915050919050565b828054611bca906126de565b90600052602060002090601f016020900481019282611bec5760008555611c33565b82601f10611c0557805160ff1916838001178555611c33565b82800160010185558215611c33579182015b82811115611c32578251825591602001919060010190611c17565b5b509050611c409190611c44565b5090565b5b80821115611c5d576000816000905550600101611c45565b5090565b6000611c74611c6f846124f9565b6124d4565b905082815260208101848484011115611c8c57600080fd5b611c9784828561269c565b509392505050565b6000611cb2611cad8461252a565b6124d4565b905082815260208101848484011115611cca57600080fd5b611cd584828561269c565b509392505050565b600081359050611cec81612afb565b92915050565b600081359050611d0181612b12565b92915050565b600081359050611d1681612b29565b92915050565b600081519050611d2b81612b29565b92915050565b600082601f830112611d4257600080fd5b8135611d52848260208601611c61565b91505092915050565b600082601f830112611d6c57600080fd5b8135611d7c848260208601611c9f565b91505092915050565b600081359050611d9481612b40565b92915050565b600060208284031215611dac57600080fd5b6000611dba84828501611cdd565b91505092915050565b60008060408385031215611dd657600080fd5b6000611de485828601611cdd565b9250506020611df585828601611cdd565b9150509250929050565b600080600060608486031215611e1457600080fd5b6000611e2286828701611cdd565b9350506020611e3386828701611cdd565b9250506040611e4486828701611d85565b9150509250925092565b60008060008060808587031215611e6457600080fd5b6000611e7287828801611cdd565b9450506020611e8387828801611cdd565b9350506040611e9487828801611d85565b925050606085013567ffffffffffffffff811115611eb157600080fd5b611ebd87828801611d31565b91505092959194509250565b60008060408385031215611edc57600080fd5b6000611eea85828601611cdd565b9250506020611efb85828601611cf2565b9150509250929050565b60008060408385031215611f1857600080fd5b6000611f2685828601611cdd565b9250506020611f3785828601611d85565b9150509250929050565b600060208284031215611f5357600080fd5b6000611f6184828501611d07565b91505092915050565b600060208284031215611f7c57600080fd5b6000611f8a84828501611d1c565b91505092915050565b600060208284031215611fa557600080fd5b600082013567ffffffffffffffff811115611fbf57600080fd5b611fcb84828501611d5b565b91505092915050565b600060208284031215611fe657600080fd5b6000611ff484828501611d85565b91505092915050565b61200681612628565b82525050565b6120158161263a565b82525050565b60006120268261255b565b6120308185612571565b93506120408185602086016126ab565b612049816127ce565b840191505092915050565b600061205f82612566565b6120698185612582565b93506120798185602086016126ab565b612082816127ce565b840191505092915050565b600061209882612566565b6120a28185612593565b93506120b28185602086016126ab565b80840191505092915050565b60006120cb602d83612582565b91506120d6826127df565b604082019050919050565b60006120ee603283612582565b91506120f98261282e565b604082019050919050565b6000612111602583612582565b915061211c8261287d565b604082019050919050565b6000612134601c83612582565b915061213f826128cc565b602082019050919050565b6000612157602483612582565b9150612162826128f5565b604082019050919050565b600061217a601983612582565b915061218582612944565b602082019050919050565b600061219d602983612582565b91506121a88261296d565b604082019050919050565b60006121c0602e83612582565b91506121cb826129bc565b604082019050919050565b60006121e3602083612582565b91506121ee82612a0b565b602082019050919050565b6000612206601883612582565b915061221182612a34565b602082019050919050565b6000612229602183612582565b915061223482612a5d565b604082019050919050565b600061224c603d83612582565b915061225782612aac565b604082019050919050565b61226b81612692565b82525050565b600061227d828561208d565b9150612289828461208d565b91508190509392505050565b60006020820190506122aa6000830184611ffd565b92915050565b60006080820190506122c56000830187611ffd565b6122d26020830186611ffd565b6122df6040830185612262565b81810360608301526122f1818461201b565b905095945050505050565b6000602082019050612311600083018461200c565b92915050565b600060208201905081810360008301526123318184612054565b905092915050565b60006020820190508181036000830152612352816120be565b9050919050565b60006020820190508181036000830152612372816120e1565b9050919050565b6000602082019050818103600083015261239281612104565b9050919050565b600060208201905081810360008301526123b281612127565b9050919050565b600060208201905081810360008301526123d28161214a565b9050919050565b600060208201905081810360008301526123f28161216d565b9050919050565b6000602082019050818103600083015261241281612190565b9050919050565b60006020820190508181036000830152612432816121b3565b9050919050565b60006020820190508181036000830152612452816121d6565b9050919050565b60006020820190508181036000830152612472816121f9565b9050919050565b600060208201905081810360008301526124928161221c565b9050919050565b600060208201905081810360008301526124b28161223f565b9050919050565b60006020820190506124ce6000830184612262565b92915050565b60006124de6124ef565b90506124ea8282612710565b919050565b6000604051905090565b600067ffffffffffffffff8211156125145761251361279f565b5b61251d826127ce565b9050602081019050919050565b600067ffffffffffffffff8211156125455761254461279f565b5b61254e826127ce565b9050602081019050919050565b600081519050919050565b600081519050919050565b600082825260208201905092915050565b600082825260208201905092915050565b600081905092915050565b60006125a982612692565b91506125b483612692565b9250827fffffffffffffffffffffffffffffffffffffffffffffffffffffffffffffffff038211156125e9576125e8612741565b5b828201905092915050565b60006125ff82612692565b915061260a83612692565b92508282101561261d5761261c612741565b5b828203905092915050565b600061263382612672565b9050919050565b60008115159050919050565b60007fffffffff0000000000000000000000000000000000000000000000000000000082169050919050565b600073ffffffffffffffffffffffffffffffffffffffff82169050919050565b6000819050919050565b82818337600083830152505050565b60005b838110156126c95780820151818401526020810190506126ae565b838111156126d8576000848401525b50505050565b600060028204905060018216806126f657607f821691505b6020821081141561270a57612709612770565b5b50919050565b612719826127ce565b810181811067ffffffffffffffff821117156127385761273761279f565b5b80604052505050565b7f4e487b7100000000000000000000000000000000000000000000000000000000600052601160045260246000fd5b7f4e487b7100000000000000000000000000000000000000000000000000000000600052602260045260246000fd5b7f4e487b7100000000000000000000000000000000000000000000000000000000600052604160045260246000fd5b6000601f19601f8301169050919050565b7f4552433732313a2063616c6c6572206973206e6f7420746f6b656e206f776e6560008201527f72206f7220617070726f76656400000000000000000000000000000000000000602082015250565b7f4552433732313a207472616e7366657220746f206e6f6e20455243373231526560008201527f63656976657220696d706c656d656e7465720000000000000000000000000000602082015250565b7f4552433732313a207472616e736665722066726f6d20696e636f72726563742060008201527f6f776e6572000000000000000000000000000000000000000000000000000000602082015250565b7f4552433732313a20746f6b656e20616c7265616479206d696e74656400000000600082015250565b7f4552433732313a207472616e7366657220746f20746865207a65726f2061646460008201527f7265737300000000000000000000000000000000000000000000000000000000602082015250565b7f4552433732313a20617070726f766520746f2063616c6c657200000000000000600082015250565b7f4552433732313a2061646472657373207a65726f206973206e6f74206120766160008201527f6c6964206f776e65720000000000000000000000000000000000000000000000602082015250565b7f45524337323155524953746f726167653a2055524920736574206f66206e6f6e60008201527f6578697374656e7420746f6b656e000000000000000000000000000000000000602082015250565b7f4552433732313a206d696e7420746f20746865207a65726f2061646472657373600082015250565b7f4552433732313a20696e76616c696420746f6b656e2049440000000000000000600082015250565b7f4552433732313a20617070726f76616c20746f2063757272656e74206f776e6560008201527f7200000000000000000000000000000000000000000000000000000000000000602082015250565b7f4552433732313a20617070726f76652063616c6c6572206973206e6f7420746f60008201527f6b656e206f776e6572206f7220617070726f76656420666f7220616c6c000000602082015250565b612b0481612628565b8114612b0f57600080fd5b50565b612b1b8161263a565b8114612b2657600080fd5b50565b612b3281612646565b8114612b3d57600080fd5b50565b612b4981612692565b8114612b5457600080fd5b5056fea2646970667358221220879cd3a2323c7dc42ed4366bc8808c420fd5645a187eb3f433b8733cb75981ed64736f6c63430008040033",
    "linkReferences": {},
    "deployedLinkReferences": {}
}