{
  "_format": "hh-sol-artifact-1",
  "contractName": "NFTMarket",
  "sourceName": "contracts/NFTMarket.sol",
  "abi": [
    {
      "inputs": [],
      "name": "Failed",
      "type": "error"
    },
    {
      "inputs": [
        {
          "internalType": "uint256",
          "name": "available",
          "type": "uint256"
        },
        {
          "internalType": "uint256",
          "name": "required",
          "type": "uint256"
        }
      ],
      "name": "InSufficientAllowance",
      "type": "error"
    },
    {
      "inputs": [],
      "name": "InValidSignature",
      "type": "error"
    },
    {
      "inputs": [],
      "name": "InValidTokenId",
      "type": "error"
    },
    {
      "inputs": [],
      "name": "InvalidOwner",
      "type": "error"
    },
    {
      "inputs": [],
      "name": "InvalidPrice",
      "type": "error"
    },
    {
      "inputs": [],
      "name": "OrderExectued",
      "type": "error"
    },
    {
      "inputs": [],
      "name": "UnAuthorized",
      "type": "error"
    },
    {
      "inputs": [],
      "name": "UnAuthorizedApproval",
      "type": "error"
    },
    {
      "inputs": [
        {
          "internalType": "address",
          "name": "available",
          "type": "address"
        },
        {
          "internalType": "address",
          "name": "required",
          "type": "address"
        }
      ],
      "name": "UnAuthorizedOwner",
      "type": "error"
    },
    {
      "inputs": [],
      "name": "WrongOrder",
      "type": "error"
    },
    {
      "inputs": [],
      "name": "ZeroAddress",
      "type": "error"
    },
    {
      "anonymous": false,
      "inputs": [
        {
          "indexed": false,
          "internalType": "uint8",
          "name": "version",
          "type": "uint8"
        }
      ],
      "name": "Initialized",
      "type": "event"
    },
    {
      "anonymous": false,
      "inputs": [
        {
          "indexed": true,
          "internalType": "address",
          "name": "previousOwner",
          "type": "address"
        },
        {
          "indexed": true,
          "internalType": "address",
          "name": "newOwner",
          "type": "address"
        }
      ],
      "name": "OwnershipTransferred",
      "type": "event"
    },
    {
      "anonymous": false,
      "inputs": [
        {
          "indexed": true,
          "internalType": "bytes32",
          "name": "role",
          "type": "bytes32"
        },
        {
          "indexed": true,
          "internalType": "bytes32",
          "name": "previousAdminRole",
          "type": "bytes32"
        },
        {
          "indexed": true,
          "internalType": "bytes32",
          "name": "newAdminRole",
          "type": "bytes32"
        }
      ],
      "name": "RoleAdminChanged",
      "type": "event"
    },
    {
      "anonymous": false,
      "inputs": [
        {
          "indexed": true,
          "internalType": "bytes32",
          "name": "role",
          "type": "bytes32"
        },
        {
          "indexed": true,
          "internalType": "address",
          "name": "account",
          "type": "address"
        },
        {
          "indexed": true,
          "internalType": "address",
          "name": "sender",
          "type": "address"
        }
      ],
      "name": "RoleGranted",
      "type": "event"
    },
    {
      "anonymous": false,
      "inputs": [
        {
          "indexed": true,
          "internalType": "bytes32",
          "name": "role",
          "type": "bytes32"
        },
        {
          "indexed": true,
          "internalType": "address",
          "name": "account",
          "type": "address"
        },
        {
          "indexed": true,
          "internalType": "address",
          "name": "sender",
          "type": "address"
        }
      ],
      "name": "RoleRevoked",
      "type": "event"
    },
    {
      "anonymous": false,
      "inputs": [
        {
          "indexed": false,
          "internalType": "address",
          "name": "nftContract",
          "type": "address"
        },
        {
          "indexed": false,
          "internalType": "address",
          "name": "from",
          "type": "address"
        },
        {
          "indexed": false,
          "internalType": "address",
          "name": "to",
          "type": "address"
        },
        {
          "indexed": true,
          "internalType": "uint256",
          "name": "tokenId",
          "type": "uint256"
        },
        {
          "indexed": false,
          "internalType": "uint256",
          "name": "price",
          "type": "uint256"
        }
      ],
      "name": "TransferNft",
      "type": "event"
    },
    {
      "inputs": [],
      "name": "DEFAULT_ADMIN_ROLE",
      "outputs": [
        {
          "internalType": "bytes32",
          "name": "",
          "type": "bytes32"
        }
      ],
      "stateMutability": "view",
      "type": "function"
    },
    {
      "inputs": [
        {
          "internalType": "bytes32",
          "name": "role",
          "type": "bytes32"
        }
      ],
      "name": "getRoleAdmin",
      "outputs": [
        {
          "internalType": "bytes32",
          "name": "",
          "type": "bytes32"
        }
      ],
      "stateMutability": "view",
      "type": "function"
    },
    {
      "inputs": [
        {
          "internalType": "bytes32",
          "name": "role",
          "type": "bytes32"
        },
        {
          "internalType": "address",
          "name": "account",
          "type": "address"
        }
      ],
      "name": "grantRole",
      "outputs": [],
      "stateMutability": "nonpayable",
      "type": "function"
    },
    {
      "inputs": [
        {
          "internalType": "bytes32",
          "name": "role",
          "type": "bytes32"
        },
        {
          "internalType": "address",
          "name": "account",
          "type": "address"
        }
      ],
      "name": "hasRole",
      "outputs": [
        {
          "internalType": "bool",
          "name": "",
          "type": "bool"
        }
      ],
      "stateMutability": "view",
      "type": "function"
    },
    {
      "inputs": [
        {
          "internalType": "address",
          "name": "token",
          "type": "address"
        }
      ],
      "name": "initialize",
      "outputs": [],
      "stateMutability": "nonpayable",
      "type": "function"
    },
    {
      "inputs": [
        {
          "components": [
            {
              "internalType": "bool",
              "name": "isOrderAsk",
              "type": "bool"
            },
            {
              "internalType": "address",
              "name": "taker",
              "type": "address"
            },
            {
              "internalType": "uint256",
              "name": "price",
              "type": "uint256"
            },
            {
              "internalType": "uint256",
              "name": "tokenId",
              "type": "uint256"
            }
          ],
          "internalType": "struct OrderTypes.TakerOrder",
          "name": "takerBid",
          "type": "tuple"
        },
        {
          "components": [
            {
              "internalType": "bool",
              "name": "isOrderAsk",
              "type": "bool"
            },
            {
              "internalType": "address",
              "name": "signer",
              "type": "address"
            },
            {
              "internalType": "address",
              "name": "baseAccount",
              "type": "address"
            },
            {
              "internalType": "address",
              "name": "nftContract",
              "type": "address"
            },
            {
              "internalType": "address",
              "name": "nftOwner",
              "type": "address"
            },
            {
              "internalType": "uint256",
              "name": "price",
              "type": "uint256"
            },
            {
              "internalType": "uint256",
              "name": "tokenId",
              "type": "uint256"
            },
            {
              "internalType": "uint256",
              "name": "tax",
              "type": "uint256"
            },
            {
              "internalType": "uint256",
              "name": "nonce",
              "type": "uint256"
            },
            {
              "internalType": "uint8",
              "name": "v",
              "type": "uint8"
            },
            {
              "internalType": "bytes32",
              "name": "r",
              "type": "bytes32"
            },
            {
              "internalType": "bytes32",
              "name": "s",
              "type": "bytes32"
            }
          ],
          "internalType": "struct OrderTypes.MakerOrder",
          "name": "makerAsk",
          "type": "tuple"
        }
      ],
      "name": "matchAskWithTakerBid",
      "outputs": [],
      "stateMutability": "payable",
      "type": "function"
    },
    {
      "inputs": [
        {
          "components": [
            {
              "internalType": "bool",
              "name": "isOrderAsk",
              "type": "bool"
            },
            {
              "internalType": "address",
              "name": "taker",
              "type": "address"
            },
            {
              "internalType": "uint256",
              "name": "price",
              "type": "uint256"
            },
            {
              "internalType": "uint256",
              "name": "tokenId",
              "type": "uint256"
            }
          ],
          "internalType": "struct OrderTypes.TakerOrder",
          "name": "takerAsk",
          "type": "tuple"
        },
        {
          "components": [
            {
              "internalType": "bool",
              "name": "isOrderAsk",
              "type": "bool"
            },
            {
              "internalType": "address",
              "name": "signer",
              "type": "address"
            },
            {
              "internalType": "address",
              "name": "baseAccount",
              "type": "address"
            },
            {
              "internalType": "address",
              "name": "nftContract",
              "type": "address"
            },
            {
              "internalType": "address",
              "name": "nftOwner",
              "type": "address"
            },
            {
              "internalType": "uint256",
              "name": "price",
              "type": "uint256"
            },
            {
              "internalType": "uint256",
              "name": "tokenId",
              "type": "uint256"
            },
            {
              "internalType": "uint256",
              "name": "tax",
              "type": "uint256"
            },
            {
              "internalType": "uint256",
              "name": "nonce",
              "type": "uint256"
            },
            {
              "internalType": "uint8",
              "name": "v",
              "type": "uint8"
            },
            {
              "internalType": "bytes32",
              "name": "r",
              "type": "bytes32"
            },
            {
              "internalType": "bytes32",
              "name": "s",
              "type": "bytes32"
            }
          ],
          "internalType": "struct OrderTypes.MakerOrder",
          "name": "makerBid",
          "type": "tuple"
        }
      ],
      "name": "matchBidWithTakerAsk",
      "outputs": [],
      "stateMutability": "nonpayable",
      "type": "function"
    },
    {
      "inputs": [],
      "name": "owner",
      "outputs": [
        {
          "internalType": "address",
          "name": "",
          "type": "address"
        }
      ],
      "stateMutability": "view",
      "type": "function"
    },
    {
      "inputs": [],
      "name": "renounceOwnership",
      "outputs": [],
      "stateMutability": "nonpayable",
      "type": "function"
    },
    {
      "inputs": [
        {
          "internalType": "bytes32",
          "name": "role",
          "type": "bytes32"
        },
        {
          "internalType": "address",
          "name": "account",
          "type": "address"
        }
      ],
      "name": "renounceRole",
      "outputs": [],
      "stateMutability": "nonpayable",
      "type": "function"
    },
    {
      "inputs": [
        {
          "internalType": "bytes32",
          "name": "role",
          "type": "bytes32"
        },
        {
          "internalType": "address",
          "name": "account",
          "type": "address"
        }
      ],
      "name": "revokeRole",
      "outputs": [],
      "stateMutability": "nonpayable",
      "type": "function"
    },
    {
      "inputs": [
        {
          "internalType": "bytes4",
          "name": "interfaceId",
          "type": "bytes4"
        }
      ],
      "name": "supportsInterface",
      "outputs": [
        {
          "internalType": "bool",
          "name": "",
          "type": "bool"
        }
      ],
      "stateMutability": "view",
      "type": "function"
    },
    {
      "inputs": [
        {
          "internalType": "address",
          "name": "newOwner",
          "type": "address"
        }
      ],
      "name": "transferOwnership",
      "outputs": [],
      "stateMutability": "nonpayable",
      "type": "function"
    }
  ],
  "bytecode": "0x608060405234801561001057600080fd5b5061355d806100206000396000f3fe6080604052600436106100c25760003560e01c80638da5cb5b1161007f578063aef2c93111610059578063aef2c93114610266578063c4d66de814610282578063d547741f146102ab578063f2fde38b146102d4576100c2565b80638da5cb5b146101d357806391d14854146101fe578063a217fddf1461023b576100c2565b806301ffc9a7146100c7578063248a9ca3146101045780632f2ff15d1461014157806336568abe1461016a57806367be1c3914610193578063715018a6146101bc575b600080fd5b3480156100d357600080fd5b506100ee60048036038101906100e99190612690565b6102fd565b6040516100fb91906126d8565b60405180910390f35b34801561011057600080fd5b5061012b60048036038101906101269190612729565b610377565b6040516101389190612765565b60405180910390f35b34801561014d57600080fd5b50610168600480360381019061016391906127de565b610397565b005b34801561017657600080fd5b50610191600480360381019061018c91906127de565b6103b8565b005b34801561019f57600080fd5b506101ba60048036038101906101b59190612862565b61043b565b005b3480156101c857600080fd5b506101d1610e59565b005b3480156101df57600080fd5b506101e8610e6d565b6040516101f591906128b2565b60405180910390f35b34801561020a57600080fd5b50610225600480360381019061022091906127de565b610e97565b60405161023291906126d8565b60405180910390f35b34801561024757600080fd5b50610250610f02565b60405161025d9190612765565b60405180910390f35b610280600480360381019061027b9190612862565b610f09565b005b34801561028e57600080fd5b506102a960048036038101906102a491906128cd565b611770565b005b3480156102b757600080fd5b506102d260048036038101906102cd91906127de565b6118f8565b005b3480156102e057600080fd5b506102fb60048036038101906102f691906128cd565b611919565b005b60007f7965db0b000000000000000000000000000000000000000000000000000000007bffffffffffffffffffffffffffffffffffffffffffffffffffffffff1916827bffffffffffffffffffffffffffffffffffffffffffffffffffffffff19161480610370575061036f8261199d565b5b9050919050565b600060976000838152602001908152602001600020600101549050919050565b6103a082610377565b6103a981611a07565b6103b38383611a1b565b505050565b6103c0611afc565b73ffffffffffffffffffffffffffffffffffffffff168173ffffffffffffffffffffffffffffffffffffffff161461042d576040517f08c379a00000000000000000000000000000000000000000000000000000000081526004016104249061297d565b60405180910390fd5b6104378282611b04565b5050565b610443611be6565b60fd600082602001602081019061045a91906128cd565b73ffffffffffffffffffffffffffffffffffffffff1673ffffffffffffffffffffffffffffffffffffffff1681526020019081526020016000206000826101000135815260200190815260200160002060009054906101000a900460ff16156104ef576040517fb27a358b00000000000000000000000000000000000000000000000000000000815260040160405180910390fd5b81600001602081019061050291906129c9565b801561051e575080600001602081019061051c91906129c9565b155b610554576040517f09686b3200000000000000000000000000000000000000000000000000000000815260040160405180910390fd5b600073ffffffffffffffffffffffffffffffffffffffff163373ffffffffffffffffffffffffffffffffffffffff1614156105bb576040517fd92e233d00000000000000000000000000000000000000000000000000000000815260040160405180910390fd5b600073ffffffffffffffffffffffffffffffffffffffff168160200160208101906105e691906128cd565b73ffffffffffffffffffffffffffffffffffffffff161415610634576040517fd92e233d00000000000000000000000000000000000000000000000000000000815260040160405180910390fd5b80606001602081019061064791906128cd565b73ffffffffffffffffffffffffffffffffffffffff16636352211e8260c001356040518263ffffffff1660e01b81526004016106839190612a0f565b60206040518083038186803b15801561069b57600080fd5b505afa1580156106af573d6000803e3d6000fd5b505050506040513d601f19601f820116820180604052508101906106d39190612a3f565b73ffffffffffffffffffffffffffffffffffffffff163373ffffffffffffffffffffffffffffffffffffffff1614610737576040517f49e27cff00000000000000000000000000000000000000000000000000000000815260040160405180910390fd5b80606001602081019061074a91906128cd565b73ffffffffffffffffffffffffffffffffffffffff16636352211e8260c001356040518263ffffffff1660e01b81526004016107869190612a0f565b60206040518083038186803b15801561079e57600080fd5b505afa1580156107b2573d6000803e3d6000fd5b505050506040513d601f19601f820116820180604052508101906107d69190612a3f565b73ffffffffffffffffffffffffffffffffffffffff168160800160208101906107ff91906128cd565b73ffffffffffffffffffffffffffffffffffffffff161461084c576040517f49e27cff00000000000000000000000000000000000000000000000000000000815260040160405180910390fd5b81606001358160c001351461088d576040517f90d85bce00000000000000000000000000000000000000000000000000000000815260040160405180910390fd5b600060fc60009054906101000a900473ffffffffffffffffffffffffffffffffffffffff1690508160e001358260a001356108c89190612a9b565b8173ffffffffffffffffffffffffffffffffffffffff1663dd62ed3e8460200160208101906108f791906128cd565b306040518363ffffffff1660e01b8152600401610915929190612af1565b60206040518083038186803b15801561092d57600080fd5b505afa158015610941573d6000803e3d6000fd5b505050506040513d601f19601f820116820180604052508101906109659190612b46565b1015610a59578073ffffffffffffffffffffffffffffffffffffffff1663dd62ed3e83602001602081019061099a91906128cd565b306040518363ffffffff1660e01b81526004016109b8929190612af1565b60206040518083038186803b1580156109d057600080fd5b505afa1580156109e4573d6000803e3d6000fd5b505050506040513d601f19601f82011682018060405250810190610a089190612b46565b8260e001358360a00135610a1c9190612a9b565b6040517f415820ce000000000000000000000000000000000000000000000000000000008152600401610a50929190612b73565b60405180910390fd5b6000610a7783600180811115610a7257610a71612b9c565b5b611c36565b905080610ab0576040517f74d40f3a00000000000000000000000000000000000000000000000000000000815260040160405180910390fd5b600160fd6000856020016020810190610ac991906128cd565b73ffffffffffffffffffffffffffffffffffffffff1673ffffffffffffffffffffffffffffffffffffffff1681526020019081526020016000206000856101000135815260200190815260200160002060006101000a81548160ff02191690831515021790555060008273ffffffffffffffffffffffffffffffffffffffff166323b872dd856020016020810190610b6191906128cd565b866040016020810190610b7491906128cd565b8760e001358860a00135610b889190612bcb565b6040518463ffffffff1660e01b8152600401610ba693929190612bff565b602060405180830381600087803b158015610bc057600080fd5b505af1158015610bd4573d6000803e3d6000fd5b505050506040513d601f19601f82011682018060405250810190610bf89190612c4b565b905080610c31576040517f625a40e600000000000000000000000000000000000000000000000000000000815260040160405180910390fd5b60008373ffffffffffffffffffffffffffffffffffffffff166323b872dd866020016020810190610c6291906128cd565b610c6a610e6d565b60028960e00135610c7b9190612c78565b6040518463ffffffff1660e01b8152600401610c9993929190612bff565b602060405180830381600087803b158015610cb357600080fd5b505af1158015610cc7573d6000803e3d6000fd5b505050506040513d601f19601f82011682018060405250810190610ceb9190612c4b565b905080610d24576040517f625a40e600000000000000000000000000000000000000000000000000000000815260040160405180910390fd5b846060016020810190610d3791906128cd565b73ffffffffffffffffffffffffffffffffffffffff166323b872dd866080016020810190610d6591906128cd565b876020016020810190610d7891906128cd565b8860c001356040518463ffffffff1660e01b8152600401610d9b93929190612bff565b600060405180830381600087803b158015610db557600080fd5b505af1158015610dc9573d6000803e3d6000fd5b505050508460c001357f6366d51f57b6146ec74b8df7acf2bbd7506c7e6f81786de0c37b5d52845187e5866060016020810190610e0691906128cd565b876080016020810190610e1991906128cd565b886020016020810190610e2c91906128cd565b8960a00135604051610e419493929190612cd2565b60405180910390a250505050610e55611eab565b5050565b610e61611eb4565b610e6b6000611f32565b565b600060c960009054906101000a900473ffffffffffffffffffffffffffffffffffffffff16905090565b60006097600084815260200190815260200160002060000160008373ffffffffffffffffffffffffffffffffffffffff1673ffffffffffffffffffffffffffffffffffffffff16815260200190815260200160002060009054906101000a900460ff16905092915050565b6000801b81565b610f11611be6565b60fd6000826020016020810190610f2891906128cd565b73ffffffffffffffffffffffffffffffffffffffff1673ffffffffffffffffffffffffffffffffffffffff1681526020019081526020016000206000826101000135815260200190815260200160002060009054906101000a900460ff1615610fbd576040517fb27a358b00000000000000000000000000000000000000000000000000000000815260040160405180910390fd5b816020016020810190610fd091906128cd565b73ffffffffffffffffffffffffffffffffffffffff16816020016020810190610ff991906128cd565b73ffffffffffffffffffffffffffffffffffffffff161415611047576040517f09686b3200000000000000000000000000000000000000000000000000000000815260040160405180910390fd5b80600001602081019061105a91906129c9565b8015611076575081600001602081019061107491906129c9565b155b6110ac576040517f09686b3200000000000000000000000000000000000000000000000000000000815260040160405180910390fd5b8160200160208101906110bf91906128cd565b73ffffffffffffffffffffffffffffffffffffffff163373ffffffffffffffffffffffffffffffffffffffff1614611142573382602001602081019061110591906128cd565b6040517f0998336e000000000000000000000000000000000000000000000000000000008152600401611139929190612af1565b60405180910390fd5b81606001358160c0013514611183576040517f90d85bce00000000000000000000000000000000000000000000000000000000815260040160405180910390fd5b80606001602081019061119691906128cd565b73ffffffffffffffffffffffffffffffffffffffff16636352211e8260c001356040518263ffffffff1660e01b81526004016111d29190612a0f565b60206040518083038186803b1580156111ea57600080fd5b505afa1580156111fe573d6000803e3d6000fd5b505050506040513d601f19601f820116820180604052508101906112229190612a3f565b73ffffffffffffffffffffffffffffffffffffffff1681608001602081019061124b91906128cd565b73ffffffffffffffffffffffffffffffffffffffff1614611298576040517f49e27cff00000000000000000000000000000000000000000000000000000000815260040160405180910390fd5b600073ffffffffffffffffffffffffffffffffffffffff168160200160208101906112c391906128cd565b73ffffffffffffffffffffffffffffffffffffffff1614806113235750600073ffffffffffffffffffffffffffffffffffffffff1681604001602081019061130b91906128cd565b73ffffffffffffffffffffffffffffffffffffffff16145b1561135a576040517fd92e233d00000000000000000000000000000000000000000000000000000000815260040160405180910390fd5b600061136a348360e00135611ff8565b90508160a001358360400135146113ac576040517ebfc92100000000000000000000000000000000000000000000000000000000815260040160405180910390fd5b8160a001358110156113e9576040517ebfc92100000000000000000000000000000000000000000000000000000000815260040160405180910390fd5b6000611408836000600181111561140357611402612b9c565b5b611c36565b905080611441576040517f74d40f3a00000000000000000000000000000000000000000000000000000000815260040160405180910390fd5b600160fd600085602001602081019061145a91906128cd565b73ffffffffffffffffffffffffffffffffffffffff1673ffffffffffffffffffffffffffffffffffffffff1681526020019081526020016000206000856101000135815260200190815260200160002060006101000a81548160ff02191690831515021790555060008360400160208101906114d691906128cd565b73ffffffffffffffffffffffffffffffffffffffff168460e00135846114fc9190612bcb565b60405161150890612d48565b60006040518083038185875af1925050503d8060008114611545576040519150601f19603f3d011682016040523d82523d6000602084013e61154a565b606091505b5050905080611585576040517f625a40e600000000000000000000000000000000000000000000000000000000815260040160405180910390fd5b600061158f610e6d565b73ffffffffffffffffffffffffffffffffffffffff1660028660e001356115b69190612c78565b6040516115c290612d48565b60006040518083038185875af1925050503d80600081146115ff576040519150601f19603f3d011682016040523d82523d6000602084013e611604565b606091505b505090508061163f576040517f625a40e600000000000000000000000000000000000000000000000000000000815260040160405180910390fd5b84606001602081019061165291906128cd565b73ffffffffffffffffffffffffffffffffffffffff166323b872dd86602001602081019061168091906128cd565b88602001602081019061169391906128cd565b8860c001356040518463ffffffff1660e01b81526004016116b693929190612bff565b600060405180830381600087803b1580156116d057600080fd5b505af11580156116e4573d6000803e3d6000fd5b505050508460c001357f6366d51f57b6146ec74b8df7acf2bbd7506c7e6f81786de0c37b5d52845187e586606001602081019061172191906128cd565b87602001602081019061173491906128cd565b89602001602081019061174791906128cd565b886040516117589493929190612cd2565b60405180910390a25050505061176c611eab565b5050565b60008060019054906101000a900460ff161590508080156117a15750600160008054906101000a900460ff1660ff16105b806117ce57506117b03061200e565b1580156117cd5750600160008054906101000a900460ff1660ff16145b5b61180d576040517f08c379a000000000000000000000000000000000000000000000000000000000815260040161180490612dcf565b60405180910390fd5b60016000806101000a81548160ff021916908360ff160217905550801561184a576001600060016101000a81548160ff0219169083151502179055505b8160fc60006101000a81548173ffffffffffffffffffffffffffffffffffffffff021916908373ffffffffffffffffffffffffffffffffffffffff160217905550611893612031565b61189b61208a565b80156118f45760008060016101000a81548160ff0219169083151502179055507f7f26b83ff96e1f2b6a682f133852f6798a09c465da95921460cefb384740249860016040516118eb9190612e41565b60405180910390a15b5050565b61190182610377565b61190a81611a07565b6119148383611b04565b505050565b611921611eb4565b600073ffffffffffffffffffffffffffffffffffffffff168173ffffffffffffffffffffffffffffffffffffffff161415611991576040517f08c379a000000000000000000000000000000000000000000000000000000000815260040161198890612ece565b60405180910390fd5b61199a81611f32565b50565b60007f01ffc9a7000000000000000000000000000000000000000000000000000000007bffffffffffffffffffffffffffffffffffffffffffffffffffffffff1916827bffffffffffffffffffffffffffffffffffffffffffffffffffffffff1916149050919050565b611a1881611a13611afc565b6120e3565b50565b611a258282610e97565b611af85760016097600084815260200190815260200160002060000160008373ffffffffffffffffffffffffffffffffffffffff1673ffffffffffffffffffffffffffffffffffffffff16815260200190815260200160002060006101000a81548160ff021916908315150217905550611a9d611afc565b73ffffffffffffffffffffffffffffffffffffffff168173ffffffffffffffffffffffffffffffffffffffff16837f2f8788117e7eff1d82e926ec794901d17c78024a50270940304540a733656f0d60405160405180910390a45b5050565b600033905090565b611b0e8282610e97565b15611be25760006097600084815260200190815260200160002060000160008373ffffffffffffffffffffffffffffffffffffffff1673ffffffffffffffffffffffffffffffffffffffff16815260200190815260200160002060006101000a81548160ff021916908315150217905550611b87611afc565b73ffffffffffffffffffffffffffffffffffffffff168173ffffffffffffffffffffffffffffffffffffffff16837ff6391f5c32d9c69d2a47ea670b442974b53935d1edc7fd64eb21e047a839171b60405160405180910390a45b5050565b60026001541415611c2c576040517f08c379a0000000000000000000000000000000000000000000000000000000008152600401611c2390612f3a565b60405180910390fd5b6002600181905550565b600080611c41612168565b90506000808460ff161415611cbb57611cb4856020016020810190611c6691906128cd565b866060016020810190611c7991906128cd565b876040016020810190611c8c91906128cd565b886080016020810190611c9f91906128cd565b8961010001358a60a001358b60c00135612239565b9050611d22565b611d1f856020016020810190611cd191906128cd565b866060016020810190611ce491906128cd565b876040016020810190611cf791906128cd565b886080016020810190611d0a91906128cd565b8961010001358a60a001358b60c001356122a5565b90505b60008282604051602001611d37929190612fd2565b604051602081830303815290604052805190602001209050600060018288610120016020810190611d689190613035565b8961014001358a610160013560405160008152602001604052604051611d919493929190613071565b6020604051602081039080840390855afa158015611db3573d6000803e3d6000fd5b505050602060405103519050866020016020810190611dd291906128cd565b73ffffffffffffffffffffffffffffffffffffffff168173ffffffffffffffffffffffffffffffffffffffff1614611e36576040517f74d40f3a00000000000000000000000000000000000000000000000000000000815260040160405180910390fd5b600073ffffffffffffffffffffffffffffffffffffffff168173ffffffffffffffffffffffffffffffffffffffff161415611e9d576040517f74d40f3a00000000000000000000000000000000000000000000000000000000815260040160405180910390fd5b600194505050505092915050565b60018081905550565b611ebc611afc565b73ffffffffffffffffffffffffffffffffffffffff16611eda610e6d565b73ffffffffffffffffffffffffffffffffffffffff1614611f30576040517f08c379a0000000000000000000000000000000000000000000000000000000008152600401611f2790613102565b60405180910390fd5b565b600060c960009054906101000a900473ffffffffffffffffffffffffffffffffffffffff1690508160c960006101000a81548173ffffffffffffffffffffffffffffffffffffffff021916908373ffffffffffffffffffffffffffffffffffffffff1602179055508173ffffffffffffffffffffffffffffffffffffffff168173ffffffffffffffffffffffffffffffffffffffff167f8be0079c531659141344cd1fd0a4f28419497f9722a3daafe3b4186f6b6457e060405160405180910390a35050565b600081836120069190612bcb565b905092915050565b6000808273ffffffffffffffffffffffffffffffffffffffff163b119050919050565b600060019054906101000a900460ff16612080576040517f08c379a000000000000000000000000000000000000000000000000000000000815260040161207790613194565b60405180910390fd5b612088612311565b565b600060019054906101000a900460ff166120d9576040517f08c379a00000000000000000000000000000000000000000000000000000000081526004016120d090613194565b60405180910390fd5b6120e1612372565b565b6120ed8282610e97565b612164576120fa816123ca565b6121088360001c60206123f7565b6040516020016121199291906132bb565b6040516020818303038152906040526040517f08c379a000000000000000000000000000000000000000000000000000000000815260040161215b919061333f565b60405180910390fd5b5050565b6000807f91ab3d17e3a50a9d89e63fd30b92be7f5336b03b287bb946787a83a9d62a27666040518060400160405280600b81526020017f4d61726b6574506c616365000000000000000000000000000000000000000000815250805190602001206040518060400160405280600181526020017f3100000000000000000000000000000000000000000000000000000000000000815250805190602001203060405160200161221a9493929190613361565b6040516020818303038152906040528051906020012090508091505090565b6000807f298f45d49efffb4cbb9a9615986f9f2fe51d8f6692aa022060b41b2fc3b97cea60018a8a8a8a898b8a60405160200161227e999897969594939291906133a6565b60405160208183030381529060405280519060200120905080915050979650505050505050565b6000807f746a9afdd96199d1e13739e1d2193afeb3a3f557820b3542e5e99fcc1367d7f760008a8a8a8a898b8a6040516020016122ea999897969594939291906133a6565b60405160208183030381529060405280519060200120905080915050979650505050505050565b600060019054906101000a900460ff16612360576040517f08c379a000000000000000000000000000000000000000000000000000000000815260040161235790613194565b60405180910390fd5b61237061236b611afc565b611f32565b565b600060019054906101000a900460ff166123c1576040517f08c379a00000000000000000000000000000000000000000000000000000000081526004016123b890613194565b60405180910390fd5b60018081905550565b60606123f08273ffffffffffffffffffffffffffffffffffffffff16601460ff166123f7565b9050919050565b60606000600283600261240a9190612c78565b6124149190612a9b565b67ffffffffffffffff81111561242d5761242c613433565b5b6040519080825280601f01601f19166020018201604052801561245f5781602001600182028036833780820191505090505b5090507f30000000000000000000000000000000000000000000000000000000000000008160008151811061249757612496613462565b5b60200101907effffffffffffffffffffffffffffffffffffffffffffffffffffffffffffff1916908160001a9053507f7800000000000000000000000000000000000000000000000000000000000000816001815181106124fb576124fa613462565b5b60200101907effffffffffffffffffffffffffffffffffffffffffffffffffffffffffffff1916908160001a9053506000600184600261253b9190612c78565b6125459190612a9b565b90505b60018111156125e5577f3031323334353637383961626364656600000000000000000000000000000000600f86166010811061258757612586613462565b5b1a60f81b82828151811061259e5761259d613462565b5b60200101907effffffffffffffffffffffffffffffffffffffffffffffffffffffffffffff1916908160001a905350600485901c9450806125de90613491565b9050612548565b5060008414612629576040517f08c379a000000000000000000000000000000000000000000000000000000000815260040161262090613507565b60405180910390fd5b8091505092915050565b600080fd5b60007fffffffff0000000000000000000000000000000000000000000000000000000082169050919050565b61266d81612638565b811461267857600080fd5b50565b60008135905061268a81612664565b92915050565b6000602082840312156126a6576126a5612633565b5b60006126b48482850161267b565b91505092915050565b60008115159050919050565b6126d2816126bd565b82525050565b60006020820190506126ed60008301846126c9565b92915050565b6000819050919050565b612706816126f3565b811461271157600080fd5b50565b600081359050612723816126fd565b92915050565b60006020828403121561273f5761273e612633565b5b600061274d84828501612714565b91505092915050565b61275f816126f3565b82525050565b600060208201905061277a6000830184612756565b92915050565b600073ffffffffffffffffffffffffffffffffffffffff82169050919050565b60006127ab82612780565b9050919050565b6127bb816127a0565b81146127c657600080fd5b50565b6000813590506127d8816127b2565b92915050565b600080604083850312156127f5576127f4612633565b5b600061280385828601612714565b9250506020612814858286016127c9565b9150509250929050565b600080fd5b6000608082840312156128395761283861281e565b5b81905092915050565b600061018082840312156128595761285861281e565b5b81905092915050565b600080610200838503121561287a57612879612633565b5b600061288885828601612823565b925050608061289985828601612842565b9150509250929050565b6128ac816127a0565b82525050565b60006020820190506128c760008301846128a3565b92915050565b6000602082840312156128e3576128e2612633565b5b60006128f1848285016127c9565b91505092915050565b600082825260208201905092915050565b7f416363657373436f6e74726f6c3a2063616e206f6e6c792072656e6f756e636560008201527f20726f6c657320666f722073656c660000000000000000000000000000000000602082015250565b6000612967602f836128fa565b91506129728261290b565b604082019050919050565b600060208201905081810360008301526129968161295a565b9050919050565b6129a6816126bd565b81146129b157600080fd5b50565b6000813590506129c38161299d565b92915050565b6000602082840312156129df576129de612633565b5b60006129ed848285016129b4565b91505092915050565b6000819050919050565b612a09816129f6565b82525050565b6000602082019050612a246000830184612a00565b92915050565b600081519050612a39816127b2565b92915050565b600060208284031215612a5557612a54612633565b5b6000612a6384828501612a2a565b91505092915050565b7f4e487b7100000000000000000000000000000000000000000000000000000000600052601160045260246000fd5b6000612aa6826129f6565b9150612ab1836129f6565b9250827fffffffffffffffffffffffffffffffffffffffffffffffffffffffffffffffff03821115612ae657612ae5612a6c565b5b828201905092915050565b6000604082019050612b0660008301856128a3565b612b1360208301846128a3565b9392505050565b612b23816129f6565b8114612b2e57600080fd5b50565b600081519050612b4081612b1a565b92915050565b600060208284031215612b5c57612b5b612633565b5b6000612b6a84828501612b31565b91505092915050565b6000604082019050612b886000830185612a00565b612b956020830184612a00565b9392505050565b7f4e487b7100000000000000000000000000000000000000000000000000000000600052602160045260246000fd5b6000612bd6826129f6565b9150612be1836129f6565b925082821015612bf457612bf3612a6c565b5b828203905092915050565b6000606082019050612c1460008301866128a3565b612c2160208301856128a3565b612c2e6040830184612a00565b949350505050565b600081519050612c458161299d565b92915050565b600060208284031215612c6157612c60612633565b5b6000612c6f84828501612c36565b91505092915050565b6000612c83826129f6565b9150612c8e836129f6565b9250817fffffffffffffffffffffffffffffffffffffffffffffffffffffffffffffffff0483118215151615612cc757612cc6612a6c565b5b828202905092915050565b6000608082019050612ce760008301876128a3565b612cf460208301866128a3565b612d0160408301856128a3565b612d0e6060830184612a00565b95945050505050565b600081905092915050565b50565b6000612d32600083612d17565b9150612d3d82612d22565b600082019050919050565b6000612d5382612d25565b9150819050919050565b7f496e697469616c697a61626c653a20636f6e747261637420697320616c72656160008201527f647920696e697469616c697a6564000000000000000000000000000000000000602082015250565b6000612db9602e836128fa565b9150612dc482612d5d565b604082019050919050565b60006020820190508181036000830152612de881612dac565b9050919050565b6000819050919050565b600060ff82169050919050565b6000819050919050565b6000612e2b612e26612e2184612def565b612e06565b612df9565b9050919050565b612e3b81612e10565b82525050565b6000602082019050612e566000830184612e32565b92915050565b7f4f776e61626c653a206e6577206f776e657220697320746865207a65726f206160008201527f6464726573730000000000000000000000000000000000000000000000000000602082015250565b6000612eb86026836128fa565b9150612ec382612e5c565b604082019050919050565b60006020820190508181036000830152612ee781612eab565b9050919050565b7f5265656e7472616e637947756172643a207265656e7472616e742063616c6c00600082015250565b6000612f24601f836128fa565b9150612f2f82612eee565b602082019050919050565b60006020820190508181036000830152612f5381612f17565b9050919050565b600081905092915050565b7f1901000000000000000000000000000000000000000000000000000000000000600082015250565b6000612f9b600283612f5a565b9150612fa682612f65565b600282019050919050565b6000819050919050565b612fcc612fc7826126f3565b612fb1565b82525050565b6000612fdd82612f8e565b9150612fe98285612fbb565b602082019150612ff98284612fbb565b6020820191508190509392505050565b61301281612df9565b811461301d57600080fd5b50565b60008135905061302f81613009565b92915050565b60006020828403121561304b5761304a612633565b5b600061305984828501613020565b91505092915050565b61306b81612df9565b82525050565b60006080820190506130866000830187612756565b6130936020830186613062565b6130a06040830185612756565b6130ad6060830184612756565b95945050505050565b7f4f776e61626c653a2063616c6c6572206973206e6f7420746865206f776e6572600082015250565b60006130ec6020836128fa565b91506130f7826130b6565b602082019050919050565b6000602082019050818103600083015261311b816130df565b9050919050565b7f496e697469616c697a61626c653a20636f6e7472616374206973206e6f74206960008201527f6e697469616c697a696e67000000000000000000000000000000000000000000602082015250565b600061317e602b836128fa565b915061318982613122565b604082019050919050565b600060208201905081810360008301526131ad81613171565b9050919050565b7f416363657373436f6e74726f6c3a206163636f756e7420000000000000000000600082015250565b60006131ea601783612f5a565b91506131f5826131b4565b601782019050919050565b600081519050919050565b60005b8381101561322957808201518184015260208101905061320e565b83811115613238576000848401525b50505050565b600061324982613200565b6132538185612f5a565b935061326381856020860161320b565b80840191505092915050565b7f206973206d697373696e6720726f6c6520000000000000000000000000000000600082015250565b60006132a5601183612f5a565b91506132b08261326f565b601182019050919050565b60006132c6826131dd565b91506132d2828561323e565b91506132dd82613298565b91506132e9828461323e565b91508190509392505050565b6000601f19601f8301169050919050565b600061331182613200565b61331b81856128fa565b935061332b81856020860161320b565b613334816132f5565b840191505092915050565b600060208201905081810360008301526133598184613306565b905092915050565b60006080820190506133766000830187612756565b6133836020830186612756565b6133906040830185612756565b61339d60608301846128a3565b95945050505050565b6000610120820190506133bc600083018c612756565b6133c9602083018b6126c9565b6133d6604083018a6128a3565b6133e360608301896128a3565b6133f060808301886128a3565b6133fd60a08301876128a3565b61340a60c0830186612a00565b61341760e0830185612a00565b613425610100830184612a00565b9a9950505050505050505050565b7f4e487b7100000000000000000000000000000000000000000000000000000000600052604160045260246000fd5b7f4e487b7100000000000000000000000000000000000000000000000000000000600052603260045260246000fd5b600061349c826129f6565b915060008214156134b0576134af612a6c565b5b600182039050919050565b7f537472696e67733a20686578206c656e67746820696e73756666696369656e74600082015250565b60006134f16020836128fa565b91506134fc826134bb565b602082019050919050565b60006020820190508181036000830152613520816134e4565b905091905056fea2646970667358221220d0872b4b11a6d41ac63969fc9d01cde065353844460959e9c80b4d2626f7a21264736f6c63430008090033",
  "linkReferences": {},
  "deployedLinkReferences": {}
}