{
    "_format": "hh-sol-artifact-1",
    "contractName": "NFTMarket",
    "sourceName": "contracts/NFTMarket.sol",
    "abi": [
        {
            "inputs": [],
            "stateMutability": "nonpayable",
            "type": "constructor"
        },
        {
            "inputs": [],
            "name": "Failed",
            "type": "error"
        },
        {
            "inputs": [
                {
                    "internalType": "uint256",
                    "name": "available",
                    "type": "uint256"
                },
                {
                    "internalType": "uint256",
                    "name": "required",
                    "type": "uint256"
                }
            ],
            "name": "InSufficientAllowance",
            "type": "error"
        },
        {
            "inputs": [],
            "name": "InValidSignature",
            "type": "error"
        },
        {
            "inputs": [],
            "name": "InValidTokenId",
            "type": "error"
        },
        {
            "inputs": [],
            "name": "InvalidPrice",
            "type": "error"
        },
        {
            "inputs": [],
            "name": "OrderExectued",
            "type": "error"
        },
        {
            "inputs": [],
            "name": "UnAuthorized",
            "type": "error"
        },
        {
            "inputs": [],
            "name": "UnAuthorizedApproval",
            "type": "error"
        },
        {
            "inputs": [
                {
                    "internalType": "address",
                    "name": "available",
                    "type": "address"
                },
                {
                    "internalType": "address",
                    "name": "required",
                    "type": "address"
                }
            ],
            "name": "UnAuthorizedOwner",
            "type": "error"
        },
        {
            "inputs": [],
            "name": "WrongOrder",
            "type": "error"
        },
        {
            "inputs": [],
            "name": "ZeroAddress",
            "type": "error"
        },
        {
            "anonymous": false,
            "inputs": [
                {
                    "indexed": true,
                    "internalType": "address",
                    "name": "previousOwner",
                    "type": "address"
                },
                {
                    "indexed": true,
                    "internalType": "address",
                    "name": "newOwner",
                    "type": "address"
                }
            ],
            "name": "OwnershipTransferred",
            "type": "event"
        },
        {
            "anonymous": false,
            "inputs": [
                {
                    "indexed": true,
                    "internalType": "bytes32",
                    "name": "role",
                    "type": "bytes32"
                },
                {
                    "indexed": true,
                    "internalType": "bytes32",
                    "name": "previousAdminRole",
                    "type": "bytes32"
                },
                {
                    "indexed": true,
                    "internalType": "bytes32",
                    "name": "newAdminRole",
                    "type": "bytes32"
                }
            ],
            "name": "RoleAdminChanged",
            "type": "event"
        },
        {
            "anonymous": false,
            "inputs": [
                {
                    "indexed": true,
                    "internalType": "bytes32",
                    "name": "role",
                    "type": "bytes32"
                },
                {
                    "indexed": true,
                    "internalType": "address",
                    "name": "account",
                    "type": "address"
                },
                {
                    "indexed": true,
                    "internalType": "address",
                    "name": "sender",
                    "type": "address"
                }
            ],
            "name": "RoleGranted",
            "type": "event"
        },
        {
            "anonymous": false,
            "inputs": [
                {
                    "indexed": true,
                    "internalType": "bytes32",
                    "name": "role",
                    "type": "bytes32"
                },
                {
                    "indexed": true,
                    "internalType": "address",
                    "name": "account",
                    "type": "address"
                },
                {
                    "indexed": true,
                    "internalType": "address",
                    "name": "sender",
                    "type": "address"
                }
            ],
            "name": "RoleRevoked",
            "type": "event"
        },
        {
            "anonymous": false,
            "inputs": [
                {
                    "indexed": false,
                    "internalType": "address",
                    "name": "nftContract",
                    "type": "address"
                },
                {
                    "indexed": false,
                    "internalType": "address",
                    "name": "from",
                    "type": "address"
                },
                {
                    "indexed": false,
                    "internalType": "address",
                    "name": "to",
                    "type": "address"
                },
                {
                    "indexed": true,
                    "internalType": "uint256",
                    "name": "tokenId",
                    "type": "uint256"
                },
                {
                    "indexed": false,
                    "internalType": "uint256",
                    "name": "price",
                    "type": "uint256"
                }
            ],
            "name": "TransferNft",
            "type": "event"
        },
        {
            "inputs": [],
            "name": "DEFAULT_ADMIN_ROLE",
            "outputs": [
                {
                    "internalType": "bytes32",
                    "name": "",
                    "type": "bytes32"
                }
            ],
            "stateMutability": "view",
            "type": "function"
        },
        {
            "inputs": [
                {
                    "internalType": "bytes32",
                    "name": "role",
                    "type": "bytes32"
                }
            ],
            "name": "getRoleAdmin",
            "outputs": [
                {
                    "internalType": "bytes32",
                    "name": "",
                    "type": "bytes32"
                }
            ],
            "stateMutability": "view",
            "type": "function"
        },
        {
            "inputs": [
                {
                    "internalType": "bytes32",
                    "name": "role",
                    "type": "bytes32"
                },
                {
                    "internalType": "address",
                    "name": "account",
                    "type": "address"
                }
            ],
            "name": "grantRole",
            "outputs": [],
            "stateMutability": "nonpayable",
            "type": "function"
        },
        {
            "inputs": [
                {
                    "internalType": "bytes32",
                    "name": "role",
                    "type": "bytes32"
                },
                {
                    "internalType": "address",
                    "name": "account",
                    "type": "address"
                }
            ],
            "name": "hasRole",
            "outputs": [
                {
                    "internalType": "bool",
                    "name": "",
                    "type": "bool"
                }
            ],
            "stateMutability": "view",
            "type": "function"
        },
        {
            "inputs": [
                {
                    "components": [
                        {
                            "internalType": "bool",
                            "name": "isOrderAsk",
                            "type": "bool"
                        },
                        {
                            "internalType": "address",
                            "name": "taker",
                            "type": "address"
                        },
                        {
                            "internalType": "uint256",
                            "name": "price",
                            "type": "uint256"
                        },
                        {
                            "internalType": "uint256",
                            "name": "tokenId",
                            "type": "uint256"
                        }
                    ],
                    "internalType": "struct OrderTypes.TakerOrder",
                    "name": "takerBid",
                    "type": "tuple"
                },
                {
                    "components": [
                        {
                            "internalType": "bool",
                            "name": "isOrderAsk",
                            "type": "bool"
                        },
                        {
                            "internalType": "address",
                            "name": "signer",
                            "type": "address"
                        },
                        {
                            "internalType": "address",
                            "name": "baseAccount",
                            "type": "address"
                        },
                        {
                            "internalType": "address",
                            "name": "nftContract",
                            "type": "address"
                        },
                        {
                            "internalType": "uint256",
                            "name": "price",
                            "type": "uint256"
                        },
                        {
                            "internalType": "uint256",
                            "name": "tokenId",
                            "type": "uint256"
                        },
                        {
                            "internalType": "uint256",
                            "name": "tax",
                            "type": "uint256"
                        },
                        {
                            "internalType": "uint256",
                            "name": "nonce",
                            "type": "uint256"
                        },
                        {
                            "internalType": "uint8",
                            "name": "v",
                            "type": "uint8"
                        },
                        {
                            "internalType": "bytes32",
                            "name": "r",
                            "type": "bytes32"
                        },
                        {
                            "internalType": "bytes32",
                            "name": "s",
                            "type": "bytes32"
                        }
                    ],
                    "internalType": "struct OrderTypes.MakerOrder",
                    "name": "makerAsk",
                    "type": "tuple"
                }
            ],
            "name": "matchAskWithTakerBid",
            "outputs": [],
            "stateMutability": "payable",
            "type": "function"
        },
        {
            "inputs": [],
            "name": "owner",
            "outputs": [
                {
                    "internalType": "address",
                    "name": "",
                    "type": "address"
                }
            ],
            "stateMutability": "view",
            "type": "function"
        },
        {
            "inputs": [],
            "name": "renounceOwnership",
            "outputs": [],
            "stateMutability": "nonpayable",
            "type": "function"
        },
        {
            "inputs": [
                {
                    "internalType": "bytes32",
                    "name": "role",
                    "type": "bytes32"
                },
                {
                    "internalType": "address",
                    "name": "account",
                    "type": "address"
                }
            ],
            "name": "renounceRole",
            "outputs": [],
            "stateMutability": "nonpayable",
            "type": "function"
        },
        {
            "inputs": [
                {
                    "internalType": "bytes32",
                    "name": "role",
                    "type": "bytes32"
                },
                {
                    "internalType": "address",
                    "name": "account",
                    "type": "address"
                }
            ],
            "name": "revokeRole",
            "outputs": [],
            "stateMutability": "nonpayable",
            "type": "function"
        },
        {
            "inputs": [
                {
                    "internalType": "bytes4",
                    "name": "interfaceId",
                    "type": "bytes4"
                }
            ],
            "name": "supportsInterface",
            "outputs": [
                {
                    "internalType": "bool",
                    "name": "",
                    "type": "bool"
                }
            ],
            "stateMutability": "view",
            "type": "function"
        },
        {
            "inputs": [
                {
                    "internalType": "address",
                    "name": "newOwner",
                    "type": "address"
                }
            ],
            "name": "transferOwnership",
            "outputs": [],
            "stateMutability": "nonpayable",
            "type": "function"
        }
    ],
    "bytecode": "0x608060405234801561001057600080fd5b50600160008190555061003561002a61003a60201b60201c565b61004260201b60201c565b610108565b600033905090565b6000600260009054906101000a900473ffffffffffffffffffffffffffffffffffffffff16905081600260006101000a81548173ffffffffffffffffffffffffffffffffffffffff021916908373ffffffffffffffffffffffffffffffffffffffff1602179055508173ffffffffffffffffffffffffffffffffffffffff168173ffffffffffffffffffffffffffffffffffffffff167f8be0079c531659141344cd1fd0a4f28419497f9722a3daafe3b4186f6b6457e060405160405180910390a35050565b6121ce80620001186000396000f3fe60806040526004361061009c5760003560e01c80638da5cb5b116100645780638da5cb5b1461018457806391d14854146101af578063a217fddf146101ec578063d547741f14610217578063f2fde38b14610240578063ff4494e2146102695761009c565b806301ffc9a7146100a1578063248a9ca3146100de5780632f2ff15d1461011b57806336568abe14610144578063715018a61461016d575b600080fd5b3480156100ad57600080fd5b506100c860048036038101906100c3919061176a565b610285565b6040516100d59190611b46565b60405180910390f35b3480156100ea57600080fd5b5061010560048036038101906101009190611705565b6102ff565b6040516101129190611b61565b60405180910390f35b34801561012757600080fd5b50610142600480360381019061013d919061172e565b61031f565b005b34801561015057600080fd5b5061016b6004803603810190610166919061172e565b610340565b005b34801561017957600080fd5b506101826103c3565b005b34801561019057600080fd5b506101996103d7565b6040516101a69190611a86565b60405180910390f35b3480156101bb57600080fd5b506101d660048036038101906101d1919061172e565b610401565b6040516101e39190611b46565b60405180910390f35b3480156101f857600080fd5b5061020161046c565b60405161020e9190611b61565b60405180910390f35b34801561022357600080fd5b5061023e6004803603810190610239919061172e565b610473565b005b34801561024c57600080fd5b50610267600480360381019061026291906116b3565b610494565b005b610283600480360381019061027e9190611793565b610518565b005b60007f7965db0b000000000000000000000000000000000000000000000000000000007bffffffffffffffffffffffffffffffffffffffffffffffffffffffff1916827bffffffffffffffffffffffffffffffffffffffffffffffffffffffff191614806102f857506102f782610bd2565b5b9050919050565b600060016000838152602001908152602001600020600101549050919050565b610328826102ff565b61033181610c3c565b61033b8383610c50565b505050565b610348610d30565b73ffffffffffffffffffffffffffffffffffffffff168173ffffffffffffffffffffffffffffffffffffffff16146103b5576040517f08c379a00000000000000000000000000000000000000000000000000000000081526004016103ac90611d26565b60405180910390fd5b6103bf8282610d38565b5050565b6103cb610e1a565b6103d56000610e98565b565b6000600260009054906101000a900473ffffffffffffffffffffffffffffffffffffffff16905090565b60006001600084815260200190815260200160002060000160008373ffffffffffffffffffffffffffffffffffffffff1673ffffffffffffffffffffffffffffffffffffffff16815260200190815260200160002060009054906101000a900460ff16905092915050565b6000801b81565b61047c826102ff565b61048581610c3c565b61048f8383610d38565b505050565b61049c610e1a565b600073ffffffffffffffffffffffffffffffffffffffff168173ffffffffffffffffffffffffffffffffffffffff16141561050c576040517f08c379a000000000000000000000000000000000000000000000000000000000815260040161050390611cc6565b60405180910390fd5b61051581610e98565b50565b610520610f5e565b6004600082602001602081019061053791906116b3565b73ffffffffffffffffffffffffffffffffffffffff1673ffffffffffffffffffffffffffffffffffffffff16815260200190815260200160002060008260e00135815260200190815260200160002060009054906101000a900460ff16156105cb576040517fb27a358b00000000000000000000000000000000000000000000000000000000815260040160405180910390fd5b8060000160208101906105de91906116dc565b80156105fa57508160000160208101906105f891906116dc565b155b610630576040517f09686b3200000000000000000000000000000000000000000000000000000000815260040160405180910390fd5b81602001602081019061064391906116b3565b73ffffffffffffffffffffffffffffffffffffffff163373ffffffffffffffffffffffffffffffffffffffff16146106c6573382602001602081019061068991906116b3565b6040517f0998336e0000000000000000000000000000000000000000000000000000000081526004016106bd929190611aa1565b60405180910390fd5b81606001358160a0013514610707576040517f90d85bce00000000000000000000000000000000000000000000000000000000815260040160405180910390fd5b600073ffffffffffffffffffffffffffffffffffffffff1681602001602081019061073291906116b3565b73ffffffffffffffffffffffffffffffffffffffff1614806107925750600073ffffffffffffffffffffffffffffffffffffffff1681604001602081019061077a91906116b3565b73ffffffffffffffffffffffffffffffffffffffff16145b156107c9576040517fd92e233d00000000000000000000000000000000000000000000000000000000815260040160405180910390fd5b60006107d9348360c00135610fae565b90508160800135811015610818576040517ebfc92100000000000000000000000000000000000000000000000000000000815260040160405180910390fd5b60006108868361010001602081019061083191906117d0565b84610120013585610140013586602001602081019061085091906116b3565b87606001602081019061086391906116b3565b88604001602081019061087691906116b3565b8960e00135898b60a00135610fc4565b9050806108bf576040517f74d40f3a00000000000000000000000000000000000000000000000000000000815260040160405180910390fd5b6001600460008560200160208101906108d891906116b3565b73ffffffffffffffffffffffffffffffffffffffff1673ffffffffffffffffffffffffffffffffffffffff16815260200190815260200160002060008560e00135815260200190815260200160002060006101000a81548160ff02191690831515021790555060006109486103d7565b73ffffffffffffffffffffffffffffffffffffffff168460c0013560405161096f90611a37565b60006040518083038185875af1925050503d80600081146109ac576040519150601f19603f3d011682016040523d82523d6000602084013e6109b1565b606091505b50509050806109ec576040517f625a40e600000000000000000000000000000000000000000000000000000000815260040160405180910390fd5b6000846040016020810190610a0191906116b3565b73ffffffffffffffffffffffffffffffffffffffff1684604051610a2490611a37565b60006040518083038185875af1925050503d8060008114610a61576040519150601f19603f3d011682016040523d82523d6000602084013e610a66565b606091505b5050905080610aa1576040517f625a40e600000000000000000000000000000000000000000000000000000000815260040160405180910390fd5b846060016020810190610ab491906116b3565b73ffffffffffffffffffffffffffffffffffffffff166323b872dd866020016020810190610ae291906116b3565b886020016020810190610af591906116b3565b8860a001356040518463ffffffff1660e01b8152600401610b1893929190611b0f565b600060405180830381600087803b158015610b3257600080fd5b505af1158015610b46573d6000803e3d6000fd5b505050508460a001357f6366d51f57b6146ec74b8df7acf2bbd7506c7e6f81786de0c37b5d52845187e5866060016020810190610b8391906116b3565b876020016020810190610b9691906116b3565b896020016020810190610ba991906116b3565b88604051610bba9493929190611aca565b60405180910390a250505050610bce61118c565b5050565b60007f01ffc9a7000000000000000000000000000000000000000000000000000000007bffffffffffffffffffffffffffffffffffffffffffffffffffffffff1916827bffffffffffffffffffffffffffffffffffffffffffffffffffffffff1916149050919050565b610c4d81610c48610d30565b611196565b50565b610c5a8282610401565b610d2c57600180600084815260200190815260200160002060000160008373ffffffffffffffffffffffffffffffffffffffff1673ffffffffffffffffffffffffffffffffffffffff16815260200190815260200160002060006101000a81548160ff021916908315150217905550610cd1610d30565b73ffffffffffffffffffffffffffffffffffffffff168173ffffffffffffffffffffffffffffffffffffffff16837f2f8788117e7eff1d82e926ec794901d17c78024a50270940304540a733656f0d60405160405180910390a45b5050565b600033905090565b610d428282610401565b15610e165760006001600084815260200190815260200160002060000160008373ffffffffffffffffffffffffffffffffffffffff1673ffffffffffffffffffffffffffffffffffffffff16815260200190815260200160002060006101000a81548160ff021916908315150217905550610dbb610d30565b73ffffffffffffffffffffffffffffffffffffffff168173ffffffffffffffffffffffffffffffffffffffff16837ff6391f5c32d9c69d2a47ea670b442974b53935d1edc7fd64eb21e047a839171b60405160405180910390a45b5050565b610e22610d30565b73ffffffffffffffffffffffffffffffffffffffff16610e406103d7565b73ffffffffffffffffffffffffffffffffffffffff1614610e96576040517f08c379a0000000000000000000000000000000000000000000000000000000008152600401610e8d90611ce6565b60405180910390fd5b565b6000600260009054906101000a900473ffffffffffffffffffffffffffffffffffffffff16905081600260006101000a81548173ffffffffffffffffffffffffffffffffffffffff021916908373ffffffffffffffffffffffffffffffffffffffff1602179055508173ffffffffffffffffffffffffffffffffffffffff168173ffffffffffffffffffffffffffffffffffffffff167f8be0079c531659141344cd1fd0a4f28419497f9722a3daafe3b4186f6b6457e060405160405180910390a35050565b60026000541415610fa4576040517f08c379a0000000000000000000000000000000000000000000000000000000008152600401610f9b90611d06565b60405180910390fd5b6002600081905550565b60008183610fbc9190611e28565b905092915050565b600080610fcf61121b565b905060007fbe589f2ff551cc0e34e0fd2c45e991803d1e17147e70abd459351cea519b745060018a8a8a898b8a604051602001611013989796959493929190611b7c565b60405160208183030381529060405280519060200120905060008282604051602001611040929190611a00565b60405160208183030381529060405280519060200120905060006001828f8f8f6040516000815260200160405260405161107d9493929190611c3f565b6020604051602081039080840390855afa15801561109f573d6000803e3d6000fd5b5050506020604051035190508a73ffffffffffffffffffffffffffffffffffffffff168173ffffffffffffffffffffffffffffffffffffffff1614611110576040517f74d40f3a00000000000000000000000000000000000000000000000000000000815260040160405180910390fd5b600073ffffffffffffffffffffffffffffffffffffffff168173ffffffffffffffffffffffffffffffffffffffff161415611177576040517f74d40f3a00000000000000000000000000000000000000000000000000000000815260040160405180910390fd5b60019450505050509998505050505050505050565b6001600081905550565b6111a08282610401565b611217576111ad816112ec565b6111bb8360001c6020611319565b6040516020016111cc929190611a4c565b6040516020818303038152906040526040517f08c379a000000000000000000000000000000000000000000000000000000000815260040161120e9190611c84565b60405180910390fd5b5050565b6000807f91ab3d17e3a50a9d89e63fd30b92be7f5336b03b287bb946787a83a9d62a27666040518060400160405280600b81526020017f4d61726b6574506c616365000000000000000000000000000000000000000000815250805190602001206040518060400160405280600181526020017f310000000000000000000000000000000000000000000000000000000000000081525080519060200120306040516020016112cd9493929190611bfa565b6040516020818303038152906040528051906020012090508091505090565b60606113128273ffffffffffffffffffffffffffffffffffffffff16601460ff16611319565b9050919050565b60606000600283600261132c9190611dce565b6113369190611d78565b67ffffffffffffffff811115611375577f4e487b7100000000000000000000000000000000000000000000000000000000600052604160045260246000fd5b6040519080825280601f01601f1916602001820160405280156113a75781602001600182028036833780820191505090505b5090507f300000000000000000000000000000000000000000000000000000000000000081600081518110611405577f4e487b7100000000000000000000000000000000000000000000000000000000600052603260045260246000fd5b60200101907effffffffffffffffffffffffffffffffffffffffffffffffffffffffffffff1916908160001a9053507f78000000000000000000000000000000000000000000000000000000000000008160018151811061148f577f4e487b7100000000000000000000000000000000000000000000000000000000600052603260045260246000fd5b60200101907effffffffffffffffffffffffffffffffffffffffffffffffffffffffffffff1916908160001a905350600060018460026114cf9190611dce565b6114d99190611d78565b90505b60018111156115c5577f3031323334353637383961626364656600000000000000000000000000000000600f861660108110611541577f4e487b7100000000000000000000000000000000000000000000000000000000600052603260045260246000fd5b1a60f81b82828151811061157e577f4e487b7100000000000000000000000000000000000000000000000000000000600052603260045260246000fd5b60200101907effffffffffffffffffffffffffffffffffffffffffffffffffffffffffffff1916908160001a905350600485901c9450806115be90611f1a565b90506114dc565b5060008414611609576040517f08c379a000000000000000000000000000000000000000000000000000000000815260040161160090611ca6565b60405180910390fd5b8091505092915050565b60008135905061162281612125565b92915050565b6000813590506116378161213c565b92915050565b60008135905061164c81612153565b92915050565b6000813590506116618161216a565b92915050565b6000610160828403121561167a57600080fd5b81905092915050565b60006080828403121561169557600080fd5b81905092915050565b6000813590506116ad81612181565b92915050565b6000602082840312156116c557600080fd5b60006116d384828501611613565b91505092915050565b6000602082840312156116ee57600080fd5b60006116fc84828501611628565b91505092915050565b60006020828403121561171757600080fd5b60006117258482850161163d565b91505092915050565b6000806040838503121561174157600080fd5b600061174f8582860161163d565b925050602061176085828601611613565b9150509250929050565b60006020828403121561177c57600080fd5b600061178a84828501611652565b91505092915050565b6000806101e083850312156117a757600080fd5b60006117b585828601611683565b92505060806117c685828601611667565b9150509250929050565b6000602082840312156117e257600080fd5b60006117f08482850161169e565b91505092915050565b61180281611e5c565b82525050565b61181181611e6e565b82525050565b61182081611e7a565b82525050565b61183761183282611e7a565b611f44565b82525050565b600061184882611d46565b6118528185611d5c565b9350611862818560208601611ee7565b61186b81611f7d565b840191505092915050565b600061188182611d46565b61188b8185611d6d565b935061189b818560208601611ee7565b80840191505092915050565b60006118b4602083611d5c565b91506118bf82611f8e565b602082019050919050565b60006118d7602683611d5c565b91506118e282611fb7565b604082019050919050565b60006118fa600283611d6d565b915061190582612006565b600282019050919050565b600061191d602083611d5c565b91506119288261202f565b602082019050919050565b6000611940600083611d51565b915061194b82612058565b600082019050919050565b6000611963601783611d6d565b915061196e8261205b565b601782019050919050565b6000611986601f83611d5c565b915061199182612084565b602082019050919050565b60006119a9601183611d6d565b91506119b4826120ad565b601182019050919050565b60006119cc602f83611d5c565b91506119d7826120d6565b604082019050919050565b6119eb81611ed0565b82525050565b6119fa81611eda565b82525050565b6000611a0b826118ed565b9150611a178285611826565b602082019150611a278284611826565b6020820191508190509392505050565b6000611a4282611933565b9150819050919050565b6000611a5782611956565b9150611a638285611876565b9150611a6e8261199c565b9150611a7a8284611876565b91508190509392505050565b6000602082019050611a9b60008301846117f9565b92915050565b6000604082019050611ab660008301856117f9565b611ac360208301846117f9565b9392505050565b6000608082019050611adf60008301876117f9565b611aec60208301866117f9565b611af960408301856117f9565b611b0660608301846119e2565b95945050505050565b6000606082019050611b2460008301866117f9565b611b3160208301856117f9565b611b3e60408301846119e2565b949350505050565b6000602082019050611b5b6000830184611808565b92915050565b6000602082019050611b766000830184611817565b92915050565b600061010082019050611b92600083018b611817565b611b9f602083018a611808565b611bac60408301896117f9565b611bb960608301886117f9565b611bc660808301876117f9565b611bd360a08301866119e2565b611be060c08301856119e2565b611bed60e08301846119e2565b9998505050505050505050565b6000608082019050611c0f6000830187611817565b611c1c6020830186611817565b611c296040830185611817565b611c3660608301846117f9565b95945050505050565b6000608082019050611c546000830187611817565b611c6160208301866119f1565b611c6e6040830185611817565b611c7b6060830184611817565b95945050505050565b60006020820190508181036000830152611c9e818461183d565b905092915050565b60006020820190508181036000830152611cbf816118a7565b9050919050565b60006020820190508181036000830152611cdf816118ca565b9050919050565b60006020820190508181036000830152611cff81611910565b9050919050565b60006020820190508181036000830152611d1f81611979565b9050919050565b60006020820190508181036000830152611d3f816119bf565b9050919050565b600081519050919050565b600081905092915050565b600082825260208201905092915050565b600081905092915050565b6000611d8382611ed0565b9150611d8e83611ed0565b9250827fffffffffffffffffffffffffffffffffffffffffffffffffffffffffffffffff03821115611dc357611dc2611f4e565b5b828201905092915050565b6000611dd982611ed0565b9150611de483611ed0565b9250817fffffffffffffffffffffffffffffffffffffffffffffffffffffffffffffffff0483118215151615611e1d57611e1c611f4e565b5b828202905092915050565b6000611e3382611ed0565b9150611e3e83611ed0565b925082821015611e5157611e50611f4e565b5b828203905092915050565b6000611e6782611eb0565b9050919050565b60008115159050919050565b6000819050919050565b60007fffffffff0000000000000000000000000000000000000000000000000000000082169050919050565b600073ffffffffffffffffffffffffffffffffffffffff82169050919050565b6000819050919050565b600060ff82169050919050565b60005b83811015611f05578082015181840152602081019050611eea565b83811115611f14576000848401525b50505050565b6000611f2582611ed0565b91506000821415611f3957611f38611f4e565b5b600182039050919050565b6000819050919050565b7f4e487b7100000000000000000000000000000000000000000000000000000000600052601160045260246000fd5b6000601f19601f8301169050919050565b7f537472696e67733a20686578206c656e67746820696e73756666696369656e74600082015250565b7f4f776e61626c653a206e6577206f776e657220697320746865207a65726f206160008201527f6464726573730000000000000000000000000000000000000000000000000000602082015250565b7f1901000000000000000000000000000000000000000000000000000000000000600082015250565b7f4f776e61626c653a2063616c6c6572206973206e6f7420746865206f776e6572600082015250565b50565b7f416363657373436f6e74726f6c3a206163636f756e7420000000000000000000600082015250565b7f5265656e7472616e637947756172643a207265656e7472616e742063616c6c00600082015250565b7f206973206d697373696e6720726f6c6520000000000000000000000000000000600082015250565b7f416363657373436f6e74726f6c3a2063616e206f6e6c792072656e6f756e636560008201527f20726f6c657320666f722073656c660000000000000000000000000000000000602082015250565b61212e81611e5c565b811461213957600080fd5b50565b61214581611e6e565b811461215057600080fd5b50565b61215c81611e7a565b811461216757600080fd5b50565b61217381611e84565b811461217e57600080fd5b50565b61218a81611eda565b811461219557600080fd5b5056fea2646970667358221220bc3953b77b671ad78a372d77e00a8ae3c57d62063bd87ebb681e1a96d3c12ace64736f6c63430008040033",
    "linkReferences": {},
    "deployedLinkReferences": {}
}