{
  "_format": "hh-sol-artifact-1",
  "contractName": "NFTMarket",
  "sourceName": "contracts/NFTMarket.sol",
  "abi": [
    {
      "inputs": [],
      "name": "Failed",
      "type": "error"
    },
    {
      "inputs": [
        {
          "internalType": "uint256",
          "name": "available",
          "type": "uint256"
        },
        {
          "internalType": "uint256",
          "name": "required",
          "type": "uint256"
        }
      ],
      "name": "InSufficientAllowance",
      "type": "error"
    },
    {
      "inputs": [],
      "name": "InValidSignature",
      "type": "error"
    },
    {
      "inputs": [],
      "name": "InValidTokenId",
      "type": "error"
    },
    {
      "inputs": [],
      "name": "InvalidOwner",
      "type": "error"
    },
    {
      "inputs": [],
      "name": "InvalidPrice",
      "type": "error"
    },
    {
      "inputs": [],
      "name": "OrderExectued",
      "type": "error"
    },
    {
      "inputs": [],
      "name": "UnAuthorized",
      "type": "error"
    },
    {
      "inputs": [],
      "name": "UnAuthorizedApproval",
      "type": "error"
    },
    {
      "inputs": [
        {
          "internalType": "address",
          "name": "available",
          "type": "address"
        },
        {
          "internalType": "address",
          "name": "required",
          "type": "address"
        }
      ],
      "name": "UnAuthorizedOwner",
      "type": "error"
    },
    {
      "inputs": [],
      "name": "WrongOrder",
      "type": "error"
    },
    {
      "inputs": [],
      "name": "ZeroAddress",
      "type": "error"
    },
    {
      "anonymous": false,
      "inputs": [
        {
          "indexed": false,
          "internalType": "uint8",
          "name": "version",
          "type": "uint8"
        }
      ],
      "name": "Initialized",
      "type": "event"
    },
    {
      "anonymous": false,
      "inputs": [
        {
          "indexed": true,
          "internalType": "address",
          "name": "previousOwner",
          "type": "address"
        },
        {
          "indexed": true,
          "internalType": "address",
          "name": "newOwner",
          "type": "address"
        }
      ],
      "name": "OwnershipTransferred",
      "type": "event"
    },
    {
      "anonymous": false,
      "inputs": [
        {
          "indexed": true,
          "internalType": "bytes32",
          "name": "role",
          "type": "bytes32"
        },
        {
          "indexed": true,
          "internalType": "bytes32",
          "name": "previousAdminRole",
          "type": "bytes32"
        },
        {
          "indexed": true,
          "internalType": "bytes32",
          "name": "newAdminRole",
          "type": "bytes32"
        }
      ],
      "name": "RoleAdminChanged",
      "type": "event"
    },
    {
      "anonymous": false,
      "inputs": [
        {
          "indexed": true,
          "internalType": "bytes32",
          "name": "role",
          "type": "bytes32"
        },
        {
          "indexed": true,
          "internalType": "address",
          "name": "account",
          "type": "address"
        },
        {
          "indexed": true,
          "internalType": "address",
          "name": "sender",
          "type": "address"
        }
      ],
      "name": "RoleGranted",
      "type": "event"
    },
    {
      "anonymous": false,
      "inputs": [
        {
          "indexed": true,
          "internalType": "bytes32",
          "name": "role",
          "type": "bytes32"
        },
        {
          "indexed": true,
          "internalType": "address",
          "name": "account",
          "type": "address"
        },
        {
          "indexed": true,
          "internalType": "address",
          "name": "sender",
          "type": "address"
        }
      ],
      "name": "RoleRevoked",
      "type": "event"
    },
    {
      "anonymous": false,
      "inputs": [
        {
          "indexed": false,
          "internalType": "address",
          "name": "nftContract",
          "type": "address"
        },
        {
          "indexed": false,
          "internalType": "address",
          "name": "from",
          "type": "address"
        },
        {
          "indexed": false,
          "internalType": "address",
          "name": "to",
          "type": "address"
        },
        {
          "indexed": true,
          "internalType": "uint256",
          "name": "tokenId",
          "type": "uint256"
        },
        {
          "indexed": false,
          "internalType": "uint256",
          "name": "price",
          "type": "uint256"
        }
      ],
      "name": "TransferNft",
      "type": "event"
    },
    {
      "inputs": [],
      "name": "DEFAULT_ADMIN_ROLE",
      "outputs": [
        {
          "internalType": "bytes32",
          "name": "",
          "type": "bytes32"
        }
      ],
      "stateMutability": "view",
      "type": "function"
    },
    {
      "inputs": [
        {
          "internalType": "bytes32",
          "name": "role",
          "type": "bytes32"
        }
      ],
      "name": "getRoleAdmin",
      "outputs": [
        {
          "internalType": "bytes32",
          "name": "",
          "type": "bytes32"
        }
      ],
      "stateMutability": "view",
      "type": "function"
    },
    {
      "inputs": [
        {
          "internalType": "bytes32",
          "name": "role",
          "type": "bytes32"
        },
        {
          "internalType": "address",
          "name": "account",
          "type": "address"
        }
      ],
      "name": "grantRole",
      "outputs": [],
      "stateMutability": "nonpayable",
      "type": "function"
    },
    {
      "inputs": [
        {
          "internalType": "bytes32",
          "name": "role",
          "type": "bytes32"
        },
        {
          "internalType": "address",
          "name": "account",
          "type": "address"
        }
      ],
      "name": "hasRole",
      "outputs": [
        {
          "internalType": "bool",
          "name": "",
          "type": "bool"
        }
      ],
      "stateMutability": "view",
      "type": "function"
    },
    {
      "inputs": [],
      "name": "initialize",
      "outputs": [],
      "stateMutability": "nonpayable",
      "type": "function"
    },
    {
      "inputs": [
        {
          "components": [
            {
              "internalType": "bool",
              "name": "isOrderAsk",
              "type": "bool"
            },
            {
              "internalType": "address",
              "name": "taker",
              "type": "address"
            },
            {
              "internalType": "uint256",
              "name": "price",
              "type": "uint256"
            },
            {
              "internalType": "uint256",
              "name": "tokenId",
              "type": "uint256"
            }
          ],
          "internalType": "struct OrderTypes.TakerOrder",
          "name": "takerBid",
          "type": "tuple"
        },
        {
          "components": [
            {
              "internalType": "bool",
              "name": "isOrderAsk",
              "type": "bool"
            },
            {
              "internalType": "address",
              "name": "signer",
              "type": "address"
            },
            {
              "internalType": "address",
              "name": "baseAccount",
              "type": "address"
            },
            {
              "internalType": "address",
              "name": "nftContract",
              "type": "address"
            },
            {
              "internalType": "uint256",
              "name": "price",
              "type": "uint256"
            },
            {
              "internalType": "uint256",
              "name": "tokenId",
              "type": "uint256"
            },
            {
              "internalType": "uint256",
              "name": "tax",
              "type": "uint256"
            },
            {
              "internalType": "uint256",
              "name": "nonce",
              "type": "uint256"
            },
            {
              "internalType": "uint8",
              "name": "v",
              "type": "uint8"
            },
            {
              "internalType": "bytes32",
              "name": "r",
              "type": "bytes32"
            },
            {
              "internalType": "bytes32",
              "name": "s",
              "type": "bytes32"
            }
          ],
          "internalType": "struct OrderTypes.MakerOrder",
          "name": "makerAsk",
          "type": "tuple"
        }
      ],
      "name": "matchAskWithTakerBid",
      "outputs": [],
      "stateMutability": "payable",
      "type": "function"
    },
    {
      "inputs": [],
      "name": "owner",
      "outputs": [
        {
          "internalType": "address",
          "name": "",
          "type": "address"
        }
      ],
      "stateMutability": "view",
      "type": "function"
    },
    {
      "inputs": [],
      "name": "renounceOwnership",
      "outputs": [],
      "stateMutability": "nonpayable",
      "type": "function"
    },
    {
      "inputs": [
        {
          "internalType": "bytes32",
          "name": "role",
          "type": "bytes32"
        },
        {
          "internalType": "address",
          "name": "account",
          "type": "address"
        }
      ],
      "name": "renounceRole",
      "outputs": [],
      "stateMutability": "nonpayable",
      "type": "function"
    },
    {
      "inputs": [
        {
          "internalType": "bytes32",
          "name": "role",
          "type": "bytes32"
        },
        {
          "internalType": "address",
          "name": "account",
          "type": "address"
        }
      ],
      "name": "revokeRole",
      "outputs": [],
      "stateMutability": "nonpayable",
      "type": "function"
    },
    {
      "inputs": [
        {
          "internalType": "bytes4",
          "name": "interfaceId",
          "type": "bytes4"
        }
      ],
      "name": "supportsInterface",
      "outputs": [
        {
          "internalType": "bool",
          "name": "",
          "type": "bool"
        }
      ],
      "stateMutability": "view",
      "type": "function"
    },
    {
      "inputs": [
        {
          "internalType": "address",
          "name": "newOwner",
          "type": "address"
        }
      ],
      "name": "transferOwnership",
      "outputs": [],
      "stateMutability": "nonpayable",
      "type": "function"
    }
  ],
  "bytecode": "0x608060405234801561001057600080fd5b5061280f806100206000396000f3fe6080604052600436106100a75760003560e01c80638da5cb5b116100645780638da5cb5b146101a657806391d14854146101d1578063a217fddf1461020e578063d547741f14610239578063f2fde38b14610262578063ff4494e21461028b576100a7565b806301ffc9a7146100ac578063248a9ca3146100e95780632f2ff15d1461012657806336568abe1461014f578063715018a6146101785780638129fc1c1461018f575b600080fd5b3480156100b857600080fd5b506100d360048036038101906100ce9190611c30565b6102a7565b6040516100e09190612061565b60405180910390f35b3480156100f557600080fd5b50610110600480360381019061010b9190611bcb565b610321565b60405161011d919061207c565b60405180910390f35b34801561013257600080fd5b5061014d60048036038101906101489190611bf4565b610341565b005b34801561015b57600080fd5b5061017660048036038101906101719190611bf4565b610362565b005b34801561018457600080fd5b5061018d6103e5565b005b34801561019b57600080fd5b506101a46103f9565b005b3480156101b257600080fd5b506101bb61053f565b6040516101c89190611fa1565b60405180910390f35b3480156101dd57600080fd5b506101f860048036038101906101f39190611bf4565b610569565b6040516102059190612061565b60405180910390f35b34801561021a57600080fd5b506102236105d4565b604051610230919061207c565b60405180910390f35b34801561024557600080fd5b50610260600480360381019061025b9190611bf4565b6105db565b005b34801561026e57600080fd5b5061028960048036038101906102849190611b50565b6105fc565b005b6102a560048036038101906102a09190611c59565b610680565b005b60007f7965db0b000000000000000000000000000000000000000000000000000000007bffffffffffffffffffffffffffffffffffffffffffffffffffffffff1916827bffffffffffffffffffffffffffffffffffffffffffffffffffffffff1916148061031a575061031982610ddf565b5b9050919050565b600060976000838152602001908152602001600020600101549050919050565b61034a82610321565b61035381610e49565b61035d8383610e5d565b505050565b61036a610f3e565b73ffffffffffffffffffffffffffffffffffffffff168173ffffffffffffffffffffffffffffffffffffffff16146103d7576040517f08c379a00000000000000000000000000000000000000000000000000000000081526004016103ce9061229c565b60405180910390fd5b6103e18282610f46565b5050565b6103ed611028565b6103f760006110a6565b565b60008060019054906101000a900460ff1615905080801561042a5750600160008054906101000a900460ff1660ff16105b8061045757506104393061116c565b1580156104565750600160008054906101000a900460ff1660ff16145b5b610496576040517f08c379a000000000000000000000000000000000000000000000000000000000815260040161048d9061221c565b60405180910390fd5b60016000806101000a81548160ff021916908360ff16021790555080156104d3576001600060016101000a81548160ff0219169083151502179055505b6104db61118f565b6104e36111e8565b801561053c5760008060016101000a81548160ff0219169083151502179055507f7f26b83ff96e1f2b6a682f133852f6798a09c465da95921460cefb38474024986001604051610533919061219f565b60405180910390a15b50565b600060c960009054906101000a900473ffffffffffffffffffffffffffffffffffffffff16905090565b60006097600084815260200190815260200160002060000160008373ffffffffffffffffffffffffffffffffffffffff1673ffffffffffffffffffffffffffffffffffffffff16815260200190815260200160002060009054906101000a900460ff16905092915050565b6000801b81565b6105e482610321565b6105ed81610e49565b6105f78383610f46565b505050565b610604611028565b600073ffffffffffffffffffffffffffffffffffffffff168173ffffffffffffffffffffffffffffffffffffffff161415610674576040517f08c379a000000000000000000000000000000000000000000000000000000000815260040161066b906121fc565b60405180910390fd5b61067d816110a6565b50565b610688611241565b60fc600082602001602081019061069f9190611b50565b73ffffffffffffffffffffffffffffffffffffffff1673ffffffffffffffffffffffffffffffffffffffff16815260200190815260200160002060008260e00135815260200190815260200160002060009054906101000a900460ff1615610733576040517fb27a358b00000000000000000000000000000000000000000000000000000000815260040160405180910390fd5b8160200160208101906107469190611b50565b73ffffffffffffffffffffffffffffffffffffffff1681602001602081019061076f9190611b50565b73ffffffffffffffffffffffffffffffffffffffff1614156107bd576040517f09686b3200000000000000000000000000000000000000000000000000000000815260040160405180910390fd5b8060000160208101906107d09190611ba2565b80156107ec57508160000160208101906107ea9190611ba2565b155b610822576040517f09686b3200000000000000000000000000000000000000000000000000000000815260040160405180910390fd5b8160200160208101906108359190611b50565b73ffffffffffffffffffffffffffffffffffffffff163373ffffffffffffffffffffffffffffffffffffffff16146108b8573382602001602081019061087b9190611b50565b6040517f0998336e0000000000000000000000000000000000000000000000000000000081526004016108af929190611fbc565b60405180910390fd5b81606001358160a00135146108f9576040517f90d85bce00000000000000000000000000000000000000000000000000000000815260040160405180910390fd5b600073ffffffffffffffffffffffffffffffffffffffff168160200160208101906109249190611b50565b73ffffffffffffffffffffffffffffffffffffffff1614806109845750600073ffffffffffffffffffffffffffffffffffffffff1681604001602081019061096c9190611b50565b73ffffffffffffffffffffffffffffffffffffffff16145b156109bb576040517fd92e233d00000000000000000000000000000000000000000000000000000000815260040160405180910390fd5b60006109cb348360c00135611291565b90508160800135811015610a0a576040517ebfc92100000000000000000000000000000000000000000000000000000000815260040160405180910390fd5b6000610a7883610100016020810190610a239190611c96565b846101200135856101400135866020016020810190610a429190611b50565b876060016020810190610a559190611b50565b886040016020810190610a689190611b50565b8960e00135898b60a001356112a7565b905080610ab1576040517f74d40f3a00000000000000000000000000000000000000000000000000000000815260040160405180910390fd5b600160fc6000856020016020810190610aca9190611b50565b73ffffffffffffffffffffffffffffffffffffffff1673ffffffffffffffffffffffffffffffffffffffff16815260200190815260200160002060008560e00135815260200190815260200160002060006101000a81548160ff0219169083151502179055506000836040016020810190610b459190611b50565b73ffffffffffffffffffffffffffffffffffffffff168460c0013584610b6b91906123b9565b604051610b7790611f52565b60006040518083038185875af1925050503d8060008114610bb4576040519150601f19603f3d011682016040523d82523d6000602084013e610bb9565b606091505b5050905080610bf4576040517f625a40e600000000000000000000000000000000000000000000000000000000815260040160405180910390fd5b6000610bfe61053f565b73ffffffffffffffffffffffffffffffffffffffff1660028660c00135610c25919061235f565b604051610c3190611f52565b60006040518083038185875af1925050503d8060008114610c6e576040519150601f19603f3d011682016040523d82523d6000602084013e610c73565b606091505b5050905080610cae576040517f625a40e600000000000000000000000000000000000000000000000000000000815260040160405180910390fd5b846060016020810190610cc19190611b50565b73ffffffffffffffffffffffffffffffffffffffff166323b872dd866020016020810190610cef9190611b50565b886020016020810190610d029190611b50565b8860a001356040518463ffffffff1660e01b8152600401610d259392919061202a565b600060405180830381600087803b158015610d3f57600080fd5b505af1158015610d53573d6000803e3d6000fd5b505050508460a001357f6366d51f57b6146ec74b8df7acf2bbd7506c7e6f81786de0c37b5d52845187e5866060016020810190610d909190611b50565b876020016020810190610da39190611b50565b896020016020810190610db69190611b50565b88604051610dc79493929190611fe5565b60405180910390a250505050610ddb61155c565b5050565b60007f01ffc9a7000000000000000000000000000000000000000000000000000000007bffffffffffffffffffffffffffffffffffffffffffffffffffffffff1916827bffffffffffffffffffffffffffffffffffffffffffffffffffffffff1916149050919050565b610e5a81610e55610f3e565b611565565b50565b610e678282610569565b610f3a5760016097600084815260200190815260200160002060000160008373ffffffffffffffffffffffffffffffffffffffff1673ffffffffffffffffffffffffffffffffffffffff16815260200190815260200160002060006101000a81548160ff021916908315150217905550610edf610f3e565b73ffffffffffffffffffffffffffffffffffffffff168173ffffffffffffffffffffffffffffffffffffffff16837f2f8788117e7eff1d82e926ec794901d17c78024a50270940304540a733656f0d60405160405180910390a45b5050565b600033905090565b610f508282610569565b156110245760006097600084815260200190815260200160002060000160008373ffffffffffffffffffffffffffffffffffffffff1673ffffffffffffffffffffffffffffffffffffffff16815260200190815260200160002060006101000a81548160ff021916908315150217905550610fc9610f3e565b73ffffffffffffffffffffffffffffffffffffffff168173ffffffffffffffffffffffffffffffffffffffff16837ff6391f5c32d9c69d2a47ea670b442974b53935d1edc7fd64eb21e047a839171b60405160405180910390a45b5050565b611030610f3e565b73ffffffffffffffffffffffffffffffffffffffff1661104e61053f565b73ffffffffffffffffffffffffffffffffffffffff16146110a4576040517f08c379a000000000000000000000000000000000000000000000000000000000815260040161109b9061223c565b60405180910390fd5b565b600060c960009054906101000a900473ffffffffffffffffffffffffffffffffffffffff1690508160c960006101000a81548173ffffffffffffffffffffffffffffffffffffffff021916908373ffffffffffffffffffffffffffffffffffffffff1602179055508173ffffffffffffffffffffffffffffffffffffffff168173ffffffffffffffffffffffffffffffffffffffff167f8be0079c531659141344cd1fd0a4f28419497f9722a3daafe3b4186f6b6457e060405160405180910390a35050565b6000808273ffffffffffffffffffffffffffffffffffffffff163b119050919050565b600060019054906101000a900460ff166111de576040517f08c379a00000000000000000000000000000000000000000000000000000000081526004016111d59061225c565b60405180910390fd5b6111e66115ea565b565b600060019054906101000a900460ff16611237576040517f08c379a000000000000000000000000000000000000000000000000000000000815260040161122e9061225c565b60405180910390fd5b61123f61164b565b565b60026001541415611287576040517f08c379a000000000000000000000000000000000000000000000000000000000815260040161127e9061227c565b60405180910390fd5b6002600181905550565b6000818361129f91906123b9565b905092915050565b6000806112b26116a3565b905060007fbe589f2ff551cc0e34e0fd2c45e991803d1e17147e70abd459351cea519b745060018a8a8a898b8a6040516020016112f6989796959493929190612097565b60405160208183030381529060405280519060200120905060008282604051602001611323929190611f1b565b60405160208183030381529060405280519060200120905060006001828f8f8f60405160008152602001604052604051611360949392919061215a565b6020604051602081039080840390855afa158015611382573d6000803e3d6000fd5b5050506020604051035190508a73ffffffffffffffffffffffffffffffffffffffff168173ffffffffffffffffffffffffffffffffffffffff16146113f3576040517f74d40f3a00000000000000000000000000000000000000000000000000000000815260040160405180910390fd5b600073ffffffffffffffffffffffffffffffffffffffff168173ffffffffffffffffffffffffffffffffffffffff16141561145a576040517f74d40f3a00000000000000000000000000000000000000000000000000000000815260040160405180910390fd5b8973ffffffffffffffffffffffffffffffffffffffff16636352211e876040518263ffffffff1660e01b815260040161149391906122bc565b60206040518083038186803b1580156114ab57600080fd5b505afa1580156114bf573d6000803e3d6000fd5b505050506040513d601f19601f820116820180604052508101906114e39190611b79565b73ffffffffffffffffffffffffffffffffffffffff168173ffffffffffffffffffffffffffffffffffffffff1614611547576040517f49e27cff00000000000000000000000000000000000000000000000000000000815260040160405180910390fd5b60019450505050509998505050505050505050565b60018081905550565b61156f8282610569565b6115e65761157c81611774565b61158a8360001c60206117a1565b60405160200161159b929190611f67565b6040516020818303038152906040526040517f08c379a00000000000000000000000000000000000000000000000000000000081526004016115dd91906121ba565b60405180910390fd5b5050565b600060019054906101000a900460ff16611639576040517f08c379a00000000000000000000000000000000000000000000000000000000081526004016116309061225c565b60405180910390fd5b611649611644610f3e565b6110a6565b565b600060019054906101000a900460ff1661169a576040517f08c379a00000000000000000000000000000000000000000000000000000000081526004016116919061225c565b60405180910390fd5b60018081905550565b6000807f91ab3d17e3a50a9d89e63fd30b92be7f5336b03b287bb946787a83a9d62a27666040518060400160405280600b81526020017f4d61726b6574506c616365000000000000000000000000000000000000000000815250805190602001206040518060400160405280600181526020017f310000000000000000000000000000000000000000000000000000000000000081525080519060200120306040516020016117559493929190612115565b6040516020818303038152906040528051906020012090508091505090565b606061179a8273ffffffffffffffffffffffffffffffffffffffff16601460ff166117a1565b9050919050565b6060600060028360026117b4919061235f565b6117be9190612309565b67ffffffffffffffff8111156117fd577f4e487b7100000000000000000000000000000000000000000000000000000000600052604160045260246000fd5b6040519080825280601f01601f19166020018201604052801561182f5781602001600182028036833780820191505090505b5090507f30000000000000000000000000000000000000000000000000000000000000008160008151811061188d577f4e487b7100000000000000000000000000000000000000000000000000000000600052603260045260246000fd5b60200101907effffffffffffffffffffffffffffffffffffffffffffffffffffffffffffff1916908160001a9053507f780000000000000000000000000000000000000000000000000000000000000081600181518110611917577f4e487b7100000000000000000000000000000000000000000000000000000000600052603260045260246000fd5b60200101907effffffffffffffffffffffffffffffffffffffffffffffffffffffffffffff1916908160001a90535060006001846002611957919061235f565b6119619190612309565b90505b6001811115611a4d577f3031323334353637383961626364656600000000000000000000000000000000600f8616601081106119c9577f4e487b7100000000000000000000000000000000000000000000000000000000600052603260045260246000fd5b1a60f81b828281518110611a06577f4e487b7100000000000000000000000000000000000000000000000000000000600052603260045260246000fd5b60200101907effffffffffffffffffffffffffffffffffffffffffffffffffffffffffffff1916908160001a905350600485901c945080611a46906124bd565b9050611964565b5060008414611a91576040517f08c379a0000000000000000000000000000000000000000000000000000000008152600401611a88906121dc565b60405180910390fd5b8091505092915050565b600081359050611aaa81612766565b92915050565b600081519050611abf81612766565b92915050565b600081359050611ad48161277d565b92915050565b600081359050611ae981612794565b92915050565b600081359050611afe816127ab565b92915050565b60006101608284031215611b1757600080fd5b81905092915050565b600060808284031215611b3257600080fd5b81905092915050565b600081359050611b4a816127c2565b92915050565b600060208284031215611b6257600080fd5b6000611b7084828501611a9b565b91505092915050565b600060208284031215611b8b57600080fd5b6000611b9984828501611ab0565b91505092915050565b600060208284031215611bb457600080fd5b6000611bc284828501611ac5565b91505092915050565b600060208284031215611bdd57600080fd5b6000611beb84828501611ada565b91505092915050565b60008060408385031215611c0757600080fd5b6000611c1585828601611ada565b9250506020611c2685828601611a9b565b9150509250929050565b600060208284031215611c4257600080fd5b6000611c5084828501611aef565b91505092915050565b6000806101e08385031215611c6d57600080fd5b6000611c7b85828601611b20565b9250506080611c8c85828601611b04565b9150509250929050565b600060208284031215611ca857600080fd5b6000611cb684828501611b3b565b91505092915050565b611cc8816123ed565b82525050565b611cd7816123ff565b82525050565b611ce68161240b565b82525050565b611cfd611cf88261240b565b6124e7565b82525050565b611d0c81612478565b82525050565b6000611d1d826122d7565b611d2781856122ed565b9350611d3781856020860161248a565b611d4081612520565b840191505092915050565b6000611d56826122d7565b611d6081856122fe565b9350611d7081856020860161248a565b80840191505092915050565b6000611d896020836122ed565b9150611d9482612531565b602082019050919050565b6000611dac6026836122ed565b9150611db78261255a565b604082019050919050565b6000611dcf6002836122fe565b9150611dda826125a9565b600282019050919050565b6000611df2602e836122ed565b9150611dfd826125d2565b604082019050919050565b6000611e156020836122ed565b9150611e2082612621565b602082019050919050565b6000611e386000836122e2565b9150611e438261264a565b600082019050919050565b6000611e5b602b836122ed565b9150611e668261264d565b604082019050919050565b6000611e7e6017836122fe565b9150611e898261269c565b601782019050919050565b6000611ea1601f836122ed565b9150611eac826126c5565b602082019050919050565b6000611ec46011836122fe565b9150611ecf826126ee565b601182019050919050565b6000611ee7602f836122ed565b9150611ef282612717565b604082019050919050565b611f0681612461565b82525050565b611f158161246b565b82525050565b6000611f2682611dc2565b9150611f328285611cec565b602082019150611f428284611cec565b6020820191508190509392505050565b6000611f5d82611e2b565b9150819050919050565b6000611f7282611e71565b9150611f7e8285611d4b565b9150611f8982611eb7565b9150611f958284611d4b565b91508190509392505050565b6000602082019050611fb66000830184611cbf565b92915050565b6000604082019050611fd16000830185611cbf565b611fde6020830184611cbf565b9392505050565b6000608082019050611ffa6000830187611cbf565b6120076020830186611cbf565b6120146040830185611cbf565b6120216060830184611efd565b95945050505050565b600060608201905061203f6000830186611cbf565b61204c6020830185611cbf565b6120596040830184611efd565b949350505050565b60006020820190506120766000830184611cce565b92915050565b60006020820190506120916000830184611cdd565b92915050565b6000610100820190506120ad600083018b611cdd565b6120ba602083018a611cce565b6120c76040830189611cbf565b6120d46060830188611cbf565b6120e16080830187611cbf565b6120ee60a0830186611efd565b6120fb60c0830185611efd565b61210860e0830184611efd565b9998505050505050505050565b600060808201905061212a6000830187611cdd565b6121376020830186611cdd565b6121446040830185611cdd565b6121516060830184611cbf565b95945050505050565b600060808201905061216f6000830187611cdd565b61217c6020830186611f0c565b6121896040830185611cdd565b6121966060830184611cdd565b95945050505050565b60006020820190506121b46000830184611d03565b92915050565b600060208201905081810360008301526121d48184611d12565b905092915050565b600060208201905081810360008301526121f581611d7c565b9050919050565b6000602082019050818103600083015261221581611d9f565b9050919050565b6000602082019050818103600083015261223581611de5565b9050919050565b6000602082019050818103600083015261225581611e08565b9050919050565b6000602082019050818103600083015261227581611e4e565b9050919050565b6000602082019050818103600083015261229581611e94565b9050919050565b600060208201905081810360008301526122b581611eda565b9050919050565b60006020820190506122d16000830184611efd565b92915050565b600081519050919050565b600081905092915050565b600082825260208201905092915050565b600081905092915050565b600061231482612461565b915061231f83612461565b9250827fffffffffffffffffffffffffffffffffffffffffffffffffffffffffffffffff03821115612354576123536124f1565b5b828201905092915050565b600061236a82612461565b915061237583612461565b9250817fffffffffffffffffffffffffffffffffffffffffffffffffffffffffffffffff04831182151516156123ae576123ad6124f1565b5b828202905092915050565b60006123c482612461565b91506123cf83612461565b9250828210156123e2576123e16124f1565b5b828203905092915050565b60006123f882612441565b9050919050565b60008115159050919050565b6000819050919050565b60007fffffffff0000000000000000000000000000000000000000000000000000000082169050919050565b600073ffffffffffffffffffffffffffffffffffffffff82169050919050565b6000819050919050565b600060ff82169050919050565b60006124838261246b565b9050919050565b60005b838110156124a857808201518184015260208101905061248d565b838111156124b7576000848401525b50505050565b60006124c882612461565b915060008214156124dc576124db6124f1565b5b600182039050919050565b6000819050919050565b7f4e487b7100000000000000000000000000000000000000000000000000000000600052601160045260246000fd5b6000601f19601f8301169050919050565b7f537472696e67733a20686578206c656e67746820696e73756666696369656e74600082015250565b7f4f776e61626c653a206e6577206f776e657220697320746865207a65726f206160008201527f6464726573730000000000000000000000000000000000000000000000000000602082015250565b7f1901000000000000000000000000000000000000000000000000000000000000600082015250565b7f496e697469616c697a61626c653a20636f6e747261637420697320616c72656160008201527f647920696e697469616c697a6564000000000000000000000000000000000000602082015250565b7f4f776e61626c653a2063616c6c6572206973206e6f7420746865206f776e6572600082015250565b50565b7f496e697469616c697a61626c653a20636f6e7472616374206973206e6f74206960008201527f6e697469616c697a696e67000000000000000000000000000000000000000000602082015250565b7f416363657373436f6e74726f6c3a206163636f756e7420000000000000000000600082015250565b7f5265656e7472616e637947756172643a207265656e7472616e742063616c6c00600082015250565b7f206973206d697373696e6720726f6c6520000000000000000000000000000000600082015250565b7f416363657373436f6e74726f6c3a2063616e206f6e6c792072656e6f756e636560008201527f20726f6c657320666f722073656c660000000000000000000000000000000000602082015250565b61276f816123ed565b811461277a57600080fd5b50565b612786816123ff565b811461279157600080fd5b50565b61279d8161240b565b81146127a857600080fd5b50565b6127b481612415565b81146127bf57600080fd5b50565b6127cb8161246b565b81146127d657600080fd5b5056fea26469706673582212205666b47c30668d6adcebe2b5aa3b9fa04293da5744d130c6d8fcd0085530804f64736f6c63430008040033",
  "linkReferences": {},
  "deployedLinkReferences": {}
}