{
  "_format": "hh-sol-artifact-1",
  "contractName": "NFTMarket",
  "sourceName": "contracts/NFTMarket.sol",
  "abi": [
    {
      "inputs": [],
      "name": "Failed",
      "type": "error"
    },
    {
      "inputs": [
        {
          "internalType": "uint256",
          "name": "available",
          "type": "uint256"
        },
        {
          "internalType": "uint256",
          "name": "required",
          "type": "uint256"
        }
      ],
      "name": "InSufficientAllowance",
      "type": "error"
    },
    {
      "inputs": [],
      "name": "InValidSignature",
      "type": "error"
    },
    {
      "inputs": [],
      "name": "InValidTokenId",
      "type": "error"
    },
    {
      "inputs": [],
      "name": "InvalidOwner",
      "type": "error"
    },
    {
      "inputs": [],
      "name": "InvalidPrice",
      "type": "error"
    },
    {
      "inputs": [],
      "name": "OrderExectued",
      "type": "error"
    },
    {
      "inputs": [],
      "name": "UnAuthorized",
      "type": "error"
    },
    {
      "inputs": [],
      "name": "UnAuthorizedApproval",
      "type": "error"
    },
    {
      "inputs": [
        {
          "internalType": "address",
          "name": "available",
          "type": "address"
        },
        {
          "internalType": "address",
          "name": "required",
          "type": "address"
        }
      ],
      "name": "UnAuthorizedOwner",
      "type": "error"
    },
    {
      "inputs": [],
      "name": "WrongOrder",
      "type": "error"
    },
    {
      "inputs": [],
      "name": "ZeroAddress",
      "type": "error"
    },
    {
      "anonymous": false,
      "inputs": [
        {
          "indexed": false,
          "internalType": "uint8",
          "name": "version",
          "type": "uint8"
        }
      ],
      "name": "Initialized",
      "type": "event"
    },
    {
      "anonymous": false,
      "inputs": [
        {
          "indexed": true,
          "internalType": "address",
          "name": "previousOwner",
          "type": "address"
        },
        {
          "indexed": true,
          "internalType": "address",
          "name": "newOwner",
          "type": "address"
        }
      ],
      "name": "OwnershipTransferred",
      "type": "event"
    },
    {
      "anonymous": false,
      "inputs": [
        {
          "indexed": true,
          "internalType": "bytes32",
          "name": "role",
          "type": "bytes32"
        },
        {
          "indexed": true,
          "internalType": "bytes32",
          "name": "previousAdminRole",
          "type": "bytes32"
        },
        {
          "indexed": true,
          "internalType": "bytes32",
          "name": "newAdminRole",
          "type": "bytes32"
        }
      ],
      "name": "RoleAdminChanged",
      "type": "event"
    },
    {
      "anonymous": false,
      "inputs": [
        {
          "indexed": true,
          "internalType": "bytes32",
          "name": "role",
          "type": "bytes32"
        },
        {
          "indexed": true,
          "internalType": "address",
          "name": "account",
          "type": "address"
        },
        {
          "indexed": true,
          "internalType": "address",
          "name": "sender",
          "type": "address"
        }
      ],
      "name": "RoleGranted",
      "type": "event"
    },
    {
      "anonymous": false,
      "inputs": [
        {
          "indexed": true,
          "internalType": "bytes32",
          "name": "role",
          "type": "bytes32"
        },
        {
          "indexed": true,
          "internalType": "address",
          "name": "account",
          "type": "address"
        },
        {
          "indexed": true,
          "internalType": "address",
          "name": "sender",
          "type": "address"
        }
      ],
      "name": "RoleRevoked",
      "type": "event"
    },
    {
      "anonymous": false,
      "inputs": [
        {
          "indexed": false,
          "internalType": "address",
          "name": "nftContract",
          "type": "address"
        },
        {
          "indexed": false,
          "internalType": "address",
          "name": "from",
          "type": "address"
        },
        {
          "indexed": false,
          "internalType": "address",
          "name": "to",
          "type": "address"
        },
        {
          "indexed": true,
          "internalType": "uint256",
          "name": "tokenId",
          "type": "uint256"
        },
        {
          "indexed": false,
          "internalType": "uint256",
          "name": "price",
          "type": "uint256"
        }
      ],
      "name": "TransferNft",
      "type": "event"
    },
    {
      "inputs": [],
      "name": "DEFAULT_ADMIN_ROLE",
      "outputs": [
        {
          "internalType": "bytes32",
          "name": "",
          "type": "bytes32"
        }
      ],
      "stateMutability": "view",
      "type": "function"
    },
    {
      "inputs": [
        {
          "internalType": "bytes32",
          "name": "role",
          "type": "bytes32"
        }
      ],
      "name": "getRoleAdmin",
      "outputs": [
        {
          "internalType": "bytes32",
          "name": "",
          "type": "bytes32"
        }
      ],
      "stateMutability": "view",
      "type": "function"
    },
    {
      "inputs": [
        {
          "internalType": "bytes32",
          "name": "role",
          "type": "bytes32"
        },
        {
          "internalType": "address",
          "name": "account",
          "type": "address"
        }
      ],
      "name": "grantRole",
      "outputs": [],
      "stateMutability": "nonpayable",
      "type": "function"
    },
    {
      "inputs": [
        {
          "internalType": "bytes32",
          "name": "role",
          "type": "bytes32"
        },
        {
          "internalType": "address",
          "name": "account",
          "type": "address"
        }
      ],
      "name": "hasRole",
      "outputs": [
        {
          "internalType": "bool",
          "name": "",
          "type": "bool"
        }
      ],
      "stateMutability": "view",
      "type": "function"
    },
    {
      "inputs": [
        {
          "internalType": "address",
          "name": "token",
          "type": "address"
        }
      ],
      "name": "initialize",
      "outputs": [],
      "stateMutability": "nonpayable",
      "type": "function"
    },
    {
      "inputs": [
        {
          "components": [
            {
              "internalType": "bool",
              "name": "isOrderAsk",
              "type": "bool"
            },
            {
              "internalType": "address",
              "name": "taker",
              "type": "address"
            },
            {
              "internalType": "uint256",
              "name": "price",
              "type": "uint256"
            },
            {
              "internalType": "uint256",
              "name": "tokenId",
              "type": "uint256"
            }
          ],
          "internalType": "struct OrderTypes.TakerOrder",
          "name": "takerBid",
          "type": "tuple"
        },
        {
          "components": [
            {
              "internalType": "bool",
              "name": "isOrderAsk",
              "type": "bool"
            },
            {
              "internalType": "address",
              "name": "signer",
              "type": "address"
            },
            {
              "internalType": "address",
              "name": "baseAccount",
              "type": "address"
            },
            {
              "internalType": "address",
              "name": "nftContract",
              "type": "address"
            },
            {
              "internalType": "address",
              "name": "nftOwner",
              "type": "address"
            },
            {
              "internalType": "uint256",
              "name": "price",
              "type": "uint256"
            },
            {
              "internalType": "uint256",
              "name": "tokenId",
              "type": "uint256"
            },
            {
              "internalType": "uint256",
              "name": "tax",
              "type": "uint256"
            },
            {
              "internalType": "uint256",
              "name": "royalty",
              "type": "uint256"
            },
            {
              "internalType": "uint256",
              "name": "nonce",
              "type": "uint256"
            },
            {
              "internalType": "uint8",
              "name": "v",
              "type": "uint8"
            },
            {
              "internalType": "bytes32",
              "name": "r",
              "type": "bytes32"
            },
            {
              "internalType": "bytes32",
              "name": "s",
              "type": "bytes32"
            }
          ],
          "internalType": "struct OrderTypes.MakerOrder",
          "name": "makerAsk",
          "type": "tuple"
        }
      ],
      "name": "matchAskWithTakerBid",
      "outputs": [],
      "stateMutability": "payable",
      "type": "function"
    },
    {
      "inputs": [
        {
          "components": [
            {
              "internalType": "bool",
              "name": "isOrderAsk",
              "type": "bool"
            },
            {
              "internalType": "address",
              "name": "taker",
              "type": "address"
            },
            {
              "internalType": "uint256",
              "name": "price",
              "type": "uint256"
            },
            {
              "internalType": "uint256",
              "name": "tokenId",
              "type": "uint256"
            }
          ],
          "internalType": "struct OrderTypes.TakerOrder",
          "name": "takerAsk",
          "type": "tuple"
        },
        {
          "components": [
            {
              "internalType": "bool",
              "name": "isOrderAsk",
              "type": "bool"
            },
            {
              "internalType": "address",
              "name": "signer",
              "type": "address"
            },
            {
              "internalType": "address",
              "name": "baseAccount",
              "type": "address"
            },
            {
              "internalType": "address",
              "name": "nftContract",
              "type": "address"
            },
            {
              "internalType": "address",
              "name": "nftOwner",
              "type": "address"
            },
            {
              "internalType": "uint256",
              "name": "price",
              "type": "uint256"
            },
            {
              "internalType": "uint256",
              "name": "tokenId",
              "type": "uint256"
            },
            {
              "internalType": "uint256",
              "name": "tax",
              "type": "uint256"
            },
            {
              "internalType": "uint256",
              "name": "royalty",
              "type": "uint256"
            },
            {
              "internalType": "uint256",
              "name": "nonce",
              "type": "uint256"
            },
            {
              "internalType": "uint8",
              "name": "v",
              "type": "uint8"
            },
            {
              "internalType": "bytes32",
              "name": "r",
              "type": "bytes32"
            },
            {
              "internalType": "bytes32",
              "name": "s",
              "type": "bytes32"
            }
          ],
          "internalType": "struct OrderTypes.MakerOrder",
          "name": "makerBid",
          "type": "tuple"
        }
      ],
      "name": "matchBidWithTakerAsk",
      "outputs": [],
      "stateMutability": "nonpayable",
      "type": "function"
    },
    {
      "inputs": [],
      "name": "owner",
      "outputs": [
        {
          "internalType": "address",
          "name": "",
          "type": "address"
        }
      ],
      "stateMutability": "view",
      "type": "function"
    },
    {
      "inputs": [],
      "name": "renounceOwnership",
      "outputs": [],
      "stateMutability": "nonpayable",
      "type": "function"
    },
    {
      "inputs": [
        {
          "internalType": "bytes32",
          "name": "role",
          "type": "bytes32"
        },
        {
          "internalType": "address",
          "name": "account",
          "type": "address"
        }
      ],
      "name": "renounceRole",
      "outputs": [],
      "stateMutability": "nonpayable",
      "type": "function"
    },
    {
      "inputs": [
        {
          "internalType": "bytes32",
          "name": "role",
          "type": "bytes32"
        },
        {
          "internalType": "address",
          "name": "account",
          "type": "address"
        }
      ],
      "name": "revokeRole",
      "outputs": [],
      "stateMutability": "nonpayable",
      "type": "function"
    },
    {
      "inputs": [
        {
          "internalType": "bytes4",
          "name": "interfaceId",
          "type": "bytes4"
        }
      ],
      "name": "supportsInterface",
      "outputs": [
        {
          "internalType": "bool",
          "name": "",
          "type": "bool"
        }
      ],
      "stateMutability": "view",
      "type": "function"
    },
    {
      "inputs": [
        {
          "internalType": "address",
          "name": "newOwner",
          "type": "address"
        }
      ],
      "name": "transferOwnership",
      "outputs": [],
      "stateMutability": "nonpayable",
      "type": "function"
    }
  ],
  "bytecode": "0x608060405234801561001057600080fd5b50613d5d806100206000396000f3fe6080604052600436106100c25760003560e01c80638da5cb5b1161007f578063ac3be8d611610059578063ac3be8d614610259578063c4d66de814610282578063d547741f146102ab578063f2fde38b146102d4576100c2565b80638da5cb5b146101c657806391d14854146101f1578063a217fddf1461022e576100c2565b806301ffc9a7146100c7578063248a9ca3146101045780632f2ff15d1461014157806336568abe1461016a5780634bcfb6d214610193578063715018a6146101af575b600080fd5b3480156100d357600080fd5b506100ee60048036038101906100e99190612e81565b6102fd565b6040516100fb9190612ec9565b60405180910390f35b34801561011057600080fd5b5061012b60048036038101906101269190612f1a565b610377565b6040516101389190612f56565b60405180910390f35b34801561014d57600080fd5b5061016860048036038101906101639190612fcf565b610397565b005b34801561017657600080fd5b50610191600480360381019061018c9190612fcf565b6103b8565b005b6101ad60048036038101906101a89190613053565b61043b565b005b3480156101bb57600080fd5b506101c461105e565b005b3480156101d257600080fd5b506101db611072565b6040516101e891906130a3565b60405180910390f35b3480156101fd57600080fd5b5061021860048036038101906102139190612fcf565b61109c565b6040516102259190612ec9565b60405180910390f35b34801561023a57600080fd5b50610243611107565b6040516102509190612f56565b60405180910390f35b34801561026557600080fd5b50610280600480360381019061027b9190613053565b61110e565b005b34801561028e57600080fd5b506102a960048036038101906102a491906130be565b611f4f565b005b3480156102b757600080fd5b506102d260048036038101906102cd9190612fcf565b6120d7565b005b3480156102e057600080fd5b506102fb60048036038101906102f691906130be565b6120f8565b005b60007f7965db0b000000000000000000000000000000000000000000000000000000007bffffffffffffffffffffffffffffffffffffffffffffffffffffffff1916827bffffffffffffffffffffffffffffffffffffffffffffffffffffffff19161480610370575061036f8261217c565b5b9050919050565b600060976000838152602001908152602001600020600101549050919050565b6103a082610377565b6103a9816121e6565b6103b383836121fa565b505050565b6103c06122db565b73ffffffffffffffffffffffffffffffffffffffff168173ffffffffffffffffffffffffffffffffffffffff161461042d576040517f08c379a00000000000000000000000000000000000000000000000000000000081526004016104249061316e565b60405180910390fd5b61043782826122e3565b5050565b6104436123c5565b60fd600082602001602081019061045a91906130be565b73ffffffffffffffffffffffffffffffffffffffff1673ffffffffffffffffffffffffffffffffffffffff1681526020019081526020016000206000826101200135815260200190815260200160002060009054906101000a900460ff16156104ef576040517fb27a358b00000000000000000000000000000000000000000000000000000000815260040160405180910390fd5b81602001602081019061050291906130be565b73ffffffffffffffffffffffffffffffffffffffff1681602001602081019061052b91906130be565b73ffffffffffffffffffffffffffffffffffffffff161415610579576040517f09686b3200000000000000000000000000000000000000000000000000000000815260040160405180910390fd5b80600001602081019061058c91906131ba565b80156105a857508160000160208101906105a691906131ba565b155b6105de576040517f09686b3200000000000000000000000000000000000000000000000000000000815260040160405180910390fd5b8160200160208101906105f191906130be565b73ffffffffffffffffffffffffffffffffffffffff163373ffffffffffffffffffffffffffffffffffffffff1614610674573382602001602081019061063791906130be565b6040517f0998336e00000000000000000000000000000000000000000000000000000000815260040161066b9291906131e7565b60405180910390fd5b81606001358160c00135146106b5576040517f90d85bce00000000000000000000000000000000000000000000000000000000815260040160405180910390fd5b8060600160208101906106c891906130be565b73ffffffffffffffffffffffffffffffffffffffff16636352211e8260c001356040518263ffffffff1660e01b81526004016107049190613229565b60206040518083038186803b15801561071c57600080fd5b505afa158015610730573d6000803e3d6000fd5b505050506040513d601f19601f820116820180604052508101906107549190613259565b73ffffffffffffffffffffffffffffffffffffffff1681608001602081019061077d91906130be565b73ffffffffffffffffffffffffffffffffffffffff16146107ca576040517f49e27cff00000000000000000000000000000000000000000000000000000000815260040160405180910390fd5b600073ffffffffffffffffffffffffffffffffffffffff168160200160208101906107f591906130be565b73ffffffffffffffffffffffffffffffffffffffff1614806108555750600073ffffffffffffffffffffffffffffffffffffffff1681604001602081019061083d91906130be565b73ffffffffffffffffffffffffffffffffffffffff16145b1561088c576040517fd92e233d00000000000000000000000000000000000000000000000000000000815260040160405180910390fd5b600061089c348360e00135612415565b90508160a001358360400135146108de576040517ebfc92100000000000000000000000000000000000000000000000000000000815260040160405180910390fd5b8160a0013581101561091b576040517ebfc92100000000000000000000000000000000000000000000000000000000815260040160405180910390fd5b600061093a836000600181111561093557610934613286565b5b61242b565b905080610973576040517f74d40f3a00000000000000000000000000000000000000000000000000000000815260040160405180910390fd5b600160fd600085602001602081019061098c91906130be565b73ffffffffffffffffffffffffffffffffffffffff1673ffffffffffffffffffffffffffffffffffffffff1681526020019081526020016000206000856101200135815260200190815260200160002060006101000a81548160ff02191690831515021790555060fe6000846060016020810190610a0a91906130be565b73ffffffffffffffffffffffffffffffffffffffff1673ffffffffffffffffffffffffffffffffffffffff16815260200190815260200160002060008460c00135815260200190815260200160002060009054906101000a900460ff1615610c7857600060ff6000856060016020810190610a8591906130be565b73ffffffffffffffffffffffffffffffffffffffff1673ffffffffffffffffffffffffffffffffffffffff16815260200190815260200160002060008560c00135815260200190815260200160002060009054906101000a900473ffffffffffffffffffffffffffffffffffffffff1673ffffffffffffffffffffffffffffffffffffffff16846101000135604051610b1d906132e6565b60006040518083038185875af1925050503d8060008114610b5a576040519150601f19603f3d011682016040523d82523d6000602084013e610b5f565b606091505b5050905080610b9a576040517f625a40e600000000000000000000000000000000000000000000000000000000815260040160405180910390fd5b83610100013583610bab919061332a565b92506000846020016020810190610bc291906130be565b73ffffffffffffffffffffffffffffffffffffffff168560e0013585610be8919061332a565b604051610bf4906132e6565b60006040518083038185875af1925050503d8060008114610c31576040519150601f19603f3d011682016040523d82523d6000602084013e610c36565b606091505b5050905080610c71576040517f625a40e600000000000000000000000000000000000000000000000000000000815260040160405180910390fd5b5050610e74565b600160fe6000856060016020810190610c9191906130be565b73ffffffffffffffffffffffffffffffffffffffff1673ffffffffffffffffffffffffffffffffffffffff16815260200190815260200160002060008560c00135815260200190815260200160002060006101000a81548160ff021916908315150217905550826040016020810190610d0a91906130be565b60ff6000856060016020810190610d2191906130be565b73ffffffffffffffffffffffffffffffffffffffff1673ffffffffffffffffffffffffffffffffffffffff16815260200190815260200160002060008560c00135815260200190815260200160002060006101000a81548173ffffffffffffffffffffffffffffffffffffffff021916908373ffffffffffffffffffffffffffffffffffffffff1602179055506000836040016020810190610dc391906130be565b73ffffffffffffffffffffffffffffffffffffffff168460e0013584610de9919061332a565b604051610df5906132e6565b60006040518083038185875af1925050503d8060008114610e32576040519150601f19603f3d011682016040523d82523d6000602084013e610e37565b606091505b5050905080610e72576040517f625a40e600000000000000000000000000000000000000000000000000000000815260040160405180910390fd5b505b6000610e7e611072565b73ffffffffffffffffffffffffffffffffffffffff1660028560e00135610ea5919061335e565b604051610eb1906132e6565b60006040518083038185875af1925050503d8060008114610eee576040519150601f19603f3d011682016040523d82523d6000602084013e610ef3565b606091505b5050905080610f2e576040517f625a40e600000000000000000000000000000000000000000000000000000000815260040160405180910390fd5b836060016020810190610f4191906130be565b73ffffffffffffffffffffffffffffffffffffffff166323b872dd856020016020810190610f6f91906130be565b876020016020810190610f8291906130be565b8760c001356040518463ffffffff1660e01b8152600401610fa5939291906133b8565b600060405180830381600087803b158015610fbf57600080fd5b505af1158015610fd3573d6000803e3d6000fd5b505050508360c001357f6366d51f57b6146ec74b8df7acf2bbd7506c7e6f81786de0c37b5d52845187e585606001602081019061101091906130be565b86602001602081019061102391906130be565b88602001602081019061103691906130be565b8760405161104794939291906133ef565b60405180910390a250505061105a6126ac565b5050565b6110666126b5565b6110706000612733565b565b600060c960009054906101000a900473ffffffffffffffffffffffffffffffffffffffff16905090565b60006097600084815260200190815260200160002060000160008373ffffffffffffffffffffffffffffffffffffffff1673ffffffffffffffffffffffffffffffffffffffff16815260200190815260200160002060009054906101000a900460ff16905092915050565b6000801b81565b6111166123c5565b60fd600082602001602081019061112d91906130be565b73ffffffffffffffffffffffffffffffffffffffff1673ffffffffffffffffffffffffffffffffffffffff1681526020019081526020016000206000826101200135815260200190815260200160002060009054906101000a900460ff16156111c2576040517fb27a358b00000000000000000000000000000000000000000000000000000000815260040160405180910390fd5b8160000160208101906111d591906131ba565b80156111f157508060000160208101906111ef91906131ba565b155b611227576040517f09686b3200000000000000000000000000000000000000000000000000000000815260040160405180910390fd5b600073ffffffffffffffffffffffffffffffffffffffff163373ffffffffffffffffffffffffffffffffffffffff16141561128e576040517fd92e233d00000000000000000000000000000000000000000000000000000000815260040160405180910390fd5b600073ffffffffffffffffffffffffffffffffffffffff168160200160208101906112b991906130be565b73ffffffffffffffffffffffffffffffffffffffff161415611307576040517fd92e233d00000000000000000000000000000000000000000000000000000000815260040160405180910390fd5b80606001602081019061131a91906130be565b73ffffffffffffffffffffffffffffffffffffffff16636352211e8260c001356040518263ffffffff1660e01b81526004016113569190613229565b60206040518083038186803b15801561136e57600080fd5b505afa158015611382573d6000803e3d6000fd5b505050506040513d601f19601f820116820180604052508101906113a69190613259565b73ffffffffffffffffffffffffffffffffffffffff163373ffffffffffffffffffffffffffffffffffffffff161461140a576040517f49e27cff00000000000000000000000000000000000000000000000000000000815260040160405180910390fd5b80606001602081019061141d91906130be565b73ffffffffffffffffffffffffffffffffffffffff16636352211e8260c001356040518263ffffffff1660e01b81526004016114599190613229565b60206040518083038186803b15801561147157600080fd5b505afa158015611485573d6000803e3d6000fd5b505050506040513d601f19601f820116820180604052508101906114a99190613259565b73ffffffffffffffffffffffffffffffffffffffff168160800160208101906114d291906130be565b73ffffffffffffffffffffffffffffffffffffffff161461151f576040517f49e27cff00000000000000000000000000000000000000000000000000000000815260040160405180910390fd5b81606001358160c0013514611560576040517f90d85bce00000000000000000000000000000000000000000000000000000000815260040160405180910390fd5b600060fc60009054906101000a900473ffffffffffffffffffffffffffffffffffffffff1690508160e001358260a0013561159b9190613434565b8173ffffffffffffffffffffffffffffffffffffffff1663dd62ed3e8460200160208101906115ca91906130be565b306040518363ffffffff1660e01b81526004016115e89291906131e7565b60206040518083038186803b15801561160057600080fd5b505afa158015611614573d6000803e3d6000fd5b505050506040513d601f19601f8201168201806040525081019061163891906134b6565b101561172c578073ffffffffffffffffffffffffffffffffffffffff1663dd62ed3e83602001602081019061166d91906130be565b306040518363ffffffff1660e01b815260040161168b9291906131e7565b60206040518083038186803b1580156116a357600080fd5b505afa1580156116b7573d6000803e3d6000fd5b505050506040513d601f19601f820116820180604052508101906116db91906134b6565b8260e001358360a001356116ef9190613434565b6040517f415820ce0000000000000000000000000000000000000000000000000000000081526004016117239291906134e3565b60405180910390fd5b600061174a8360018081111561174557611744613286565b5b61242b565b905080611783576040517f74d40f3a00000000000000000000000000000000000000000000000000000000815260040160405180910390fd5b600160fd600085602001602081019061179c91906130be565b73ffffffffffffffffffffffffffffffffffffffff1673ffffffffffffffffffffffffffffffffffffffff1681526020019081526020016000206000856101200135815260200190815260200160002060006101000a81548160ff02191690831515021790555060fe600084606001602081019061181a91906130be565b73ffffffffffffffffffffffffffffffffffffffff1673ffffffffffffffffffffffffffffffffffffffff16815260200190815260200160002060008460c00135815260200190815260200160002060009054906101000a900460ff1615611aef5760008273ffffffffffffffffffffffffffffffffffffffff166323b872dd8560200160208101906118ad91906130be565b60ff60008860600160208101906118c491906130be565b73ffffffffffffffffffffffffffffffffffffffff1673ffffffffffffffffffffffffffffffffffffffff16815260200190815260200160002060008860c00135815260200190815260200160002060009054906101000a900473ffffffffffffffffffffffffffffffffffffffff168761010001356040518463ffffffff1660e01b8152600401611958939291906133b8565b602060405180830381600087803b15801561197257600080fd5b505af1158015611986573d6000803e3d6000fd5b505050506040513d601f19601f820116820180604052508101906119aa9190613521565b9050806119e3576040517f625a40e600000000000000000000000000000000000000000000000000000000815260040160405180910390fd5b60008461010001358560a001356119fa919061332a565b905060008473ffffffffffffffffffffffffffffffffffffffff166323b872dd876020016020810190611a2d91906130be565b338960e0013586611a3e919061332a565b6040518463ffffffff1660e01b8152600401611a5c939291906133b8565b602060405180830381600087803b158015611a7657600080fd5b505af1158015611a8a573d6000803e3d6000fd5b505050506040513d601f19601f82011682018060405250810190611aae9190613521565b905080611ae7576040517f625a40e600000000000000000000000000000000000000000000000000000000815260040160405180910390fd5b505050611d28565b600160fe6000856060016020810190611b0891906130be565b73ffffffffffffffffffffffffffffffffffffffff1673ffffffffffffffffffffffffffffffffffffffff16815260200190815260200160002060008560c00135815260200190815260200160002060006101000a81548160ff021916908315150217905550826040016020810190611b8191906130be565b60ff6000856060016020810190611b9891906130be565b73ffffffffffffffffffffffffffffffffffffffff1673ffffffffffffffffffffffffffffffffffffffff16815260200190815260200160002060008560c00135815260200190815260200160002060006101000a81548173ffffffffffffffffffffffffffffffffffffffff021916908373ffffffffffffffffffffffffffffffffffffffff16021790555060008273ffffffffffffffffffffffffffffffffffffffff166323b872dd856020016020810190611c5691906130be565b866040016020810190611c6991906130be565b8760e001358860a00135611c7d919061332a565b6040518463ffffffff1660e01b8152600401611c9b939291906133b8565b602060405180830381600087803b158015611cb557600080fd5b505af1158015611cc9573d6000803e3d6000fd5b505050506040513d601f19601f82011682018060405250810190611ced9190613521565b905080611d26576040517f625a40e600000000000000000000000000000000000000000000000000000000815260040160405180910390fd5b505b60008273ffffffffffffffffffffffffffffffffffffffff166323b872dd856020016020810190611d5991906130be565b611d61611072565b60028860e00135611d72919061335e565b6040518463ffffffff1660e01b8152600401611d90939291906133b8565b602060405180830381600087803b158015611daa57600080fd5b505af1158015611dbe573d6000803e3d6000fd5b505050506040513d601f19601f82011682018060405250810190611de29190613521565b905080611e1b576040517f625a40e600000000000000000000000000000000000000000000000000000000815260040160405180910390fd5b836060016020810190611e2e91906130be565b73ffffffffffffffffffffffffffffffffffffffff166323b872dd856080016020810190611e5c91906130be565b866020016020810190611e6f91906130be565b8760c001356040518463ffffffff1660e01b8152600401611e92939291906133b8565b600060405180830381600087803b158015611eac57600080fd5b505af1158015611ec0573d6000803e3d6000fd5b505050508360c001357f6366d51f57b6146ec74b8df7acf2bbd7506c7e6f81786de0c37b5d52845187e5856060016020810190611efd91906130be565b866080016020810190611f1091906130be565b876020016020810190611f2391906130be565b8860a00135604051611f3894939291906133ef565b60405180910390a2505050611f4b6126ac565b5050565b60008060019054906101000a900460ff16159050808015611f805750600160008054906101000a900460ff1660ff16105b80611fad5750611f8f306127f9565b158015611fac5750600160008054906101000a900460ff1660ff16145b5b611fec576040517f08c379a0000000000000000000000000000000000000000000000000000000008152600401611fe3906135c0565b60405180910390fd5b60016000806101000a81548160ff021916908360ff1602179055508015612029576001600060016101000a81548160ff0219169083151502179055505b8160fc60006101000a81548173ffffffffffffffffffffffffffffffffffffffff021916908373ffffffffffffffffffffffffffffffffffffffff16021790555061207261281c565b61207a612875565b80156120d35760008060016101000a81548160ff0219169083151502179055507f7f26b83ff96e1f2b6a682f133852f6798a09c465da95921460cefb384740249860016040516120ca9190613632565b60405180910390a15b5050565b6120e082610377565b6120e9816121e6565b6120f383836122e3565b505050565b6121006126b5565b600073ffffffffffffffffffffffffffffffffffffffff168173ffffffffffffffffffffffffffffffffffffffff161415612170576040517f08c379a0000000000000000000000000000000000000000000000000000000008152600401612167906136bf565b60405180910390fd5b61217981612733565b50565b60007f01ffc9a7000000000000000000000000000000000000000000000000000000007bffffffffffffffffffffffffffffffffffffffffffffffffffffffff1916827bffffffffffffffffffffffffffffffffffffffffffffffffffffffff1916149050919050565b6121f7816121f26122db565b6128ce565b50565b612204828261109c565b6122d75760016097600084815260200190815260200160002060000160008373ffffffffffffffffffffffffffffffffffffffff1673ffffffffffffffffffffffffffffffffffffffff16815260200190815260200160002060006101000a81548160ff02191690831515021790555061227c6122db565b73ffffffffffffffffffffffffffffffffffffffff168173ffffffffffffffffffffffffffffffffffffffff16837f2f8788117e7eff1d82e926ec794901d17c78024a50270940304540a733656f0d60405160405180910390a45b5050565b600033905090565b6122ed828261109c565b156123c15760006097600084815260200190815260200160002060000160008373ffffffffffffffffffffffffffffffffffffffff1673ffffffffffffffffffffffffffffffffffffffff16815260200190815260200160002060006101000a81548160ff0219169083151502179055506123666122db565b73ffffffffffffffffffffffffffffffffffffffff168173ffffffffffffffffffffffffffffffffffffffff16837ff6391f5c32d9c69d2a47ea670b442974b53935d1edc7fd64eb21e047a839171b60405160405180910390a45b5050565b6002600154141561240b576040517f08c379a00000000000000000000000000000000000000000000000000000000081526004016124029061372b565b60405180910390fd5b6002600181905550565b60008183612423919061332a565b905092915050565b600080612436612953565b90506000808460ff1614156124b6576124af85602001602081019061245b91906130be565b86606001602081019061246e91906130be565b87604001602081019061248191906130be565b88608001602081019061249491906130be565b8961012001358a60a001358b60c001358c6101000135612a24565b9050612523565b6125208560200160208101906124cc91906130be565b8660600160208101906124df91906130be565b8760400160208101906124f291906130be565b88608001602081019061250591906130be565b8961012001358a60a001358b60c001358c6101000135612a93565b90505b600082826040516020016125389291906137c3565b6040516020818303038152906040528051906020012090506000600182886101400160208101906125699190613826565b8961016001358a6101800135604051600081526020016040526040516125929493929190613862565b6020604051602081039080840390855afa1580156125b4573d6000803e3d6000fd5b5050506020604051035190508660200160208101906125d391906130be565b73ffffffffffffffffffffffffffffffffffffffff168173ffffffffffffffffffffffffffffffffffffffff1614612637576040517f74d40f3a00000000000000000000000000000000000000000000000000000000815260040160405180910390fd5b600073ffffffffffffffffffffffffffffffffffffffff168173ffffffffffffffffffffffffffffffffffffffff16141561269e576040517f74d40f3a00000000000000000000000000000000000000000000000000000000815260040160405180910390fd5b600194505050505092915050565b60018081905550565b6126bd6122db565b73ffffffffffffffffffffffffffffffffffffffff166126db611072565b73ffffffffffffffffffffffffffffffffffffffff1614612731576040517f08c379a0000000000000000000000000000000000000000000000000000000008152600401612728906138f3565b60405180910390fd5b565b600060c960009054906101000a900473ffffffffffffffffffffffffffffffffffffffff1690508160c960006101000a81548173ffffffffffffffffffffffffffffffffffffffff021916908373ffffffffffffffffffffffffffffffffffffffff1602179055508173ffffffffffffffffffffffffffffffffffffffff168173ffffffffffffffffffffffffffffffffffffffff167f8be0079c531659141344cd1fd0a4f28419497f9722a3daafe3b4186f6b6457e060405160405180910390a35050565b6000808273ffffffffffffffffffffffffffffffffffffffff163b119050919050565b600060019054906101000a900460ff1661286b576040517f08c379a000000000000000000000000000000000000000000000000000000000815260040161286290613985565b60405180910390fd5b612873612b02565b565b600060019054906101000a900460ff166128c4576040517f08c379a00000000000000000000000000000000000000000000000000000000081526004016128bb90613985565b60405180910390fd5b6128cc612b63565b565b6128d8828261109c565b61294f576128e581612bbb565b6128f38360001c6020612be8565b604051602001612904929190613aac565b6040516020818303038152906040526040517f08c379a00000000000000000000000000000000000000000000000000000000081526004016129469190613b30565b60405180910390fd5b5050565b6000807f91ab3d17e3a50a9d89e63fd30b92be7f5336b03b287bb946787a83a9d62a27666040518060400160405280600b81526020017f4d61726b6574506c616365000000000000000000000000000000000000000000815250805190602001206040518060400160405280600181526020017f31000000000000000000000000000000000000000000000000000000000000008152508051906020012030604051602001612a059493929190613b52565b6040516020818303038152906040528051906020012090508091505090565b6000807fde19192832a1975200f4fdf72330640a6424891e423a602daa425f9ce7e0354f60018b8b8b8b8a8c8b8b604051602001612a6b9a99989796959493929190613b97565b6040516020818303038152906040528051906020012090508091505098975050505050505050565b6000807fb456f4d5847c5a34817e8a33e0d37bb4992ff545a1e3ca7dffa630675ce0b4e260008b8b8b8b8a8c8b8b604051602001612ada9a99989796959493929190613b97565b6040516020818303038152906040528051906020012090508091505098975050505050505050565b600060019054906101000a900460ff16612b51576040517f08c379a0000000000000000000000000000000000000000000000000000000008152600401612b4890613985565b60405180910390fd5b612b61612b5c6122db565b612733565b565b600060019054906101000a900460ff16612bb2576040517f08c379a0000000000000000000000000000000000000000000000000000000008152600401612ba990613985565b60405180910390fd5b60018081905550565b6060612be18273ffffffffffffffffffffffffffffffffffffffff16601460ff16612be8565b9050919050565b606060006002836002612bfb919061335e565b612c059190613434565b67ffffffffffffffff811115612c1e57612c1d613c33565b5b6040519080825280601f01601f191660200182016040528015612c505781602001600182028036833780820191505090505b5090507f300000000000000000000000000000000000000000000000000000000000000081600081518110612c8857612c87613c62565b5b60200101907effffffffffffffffffffffffffffffffffffffffffffffffffffffffffffff1916908160001a9053507f780000000000000000000000000000000000000000000000000000000000000081600181518110612cec57612ceb613c62565b5b60200101907effffffffffffffffffffffffffffffffffffffffffffffffffffffffffffff1916908160001a90535060006001846002612d2c919061335e565b612d369190613434565b90505b6001811115612dd6577f3031323334353637383961626364656600000000000000000000000000000000600f861660108110612d7857612d77613c62565b5b1a60f81b828281518110612d8f57612d8e613c62565b5b60200101907effffffffffffffffffffffffffffffffffffffffffffffffffffffffffffff1916908160001a905350600485901c945080612dcf90613c91565b9050612d39565b5060008414612e1a576040517f08c379a0000000000000000000000000000000000000000000000000000000008152600401612e1190613d07565b60405180910390fd5b8091505092915050565b600080fd5b60007fffffffff0000000000000000000000000000000000000000000000000000000082169050919050565b612e5e81612e29565b8114612e6957600080fd5b50565b600081359050612e7b81612e55565b92915050565b600060208284031215612e9757612e96612e24565b5b6000612ea584828501612e6c565b91505092915050565b60008115159050919050565b612ec381612eae565b82525050565b6000602082019050612ede6000830184612eba565b92915050565b6000819050919050565b612ef781612ee4565b8114612f0257600080fd5b50565b600081359050612f1481612eee565b92915050565b600060208284031215612f3057612f2f612e24565b5b6000612f3e84828501612f05565b91505092915050565b612f5081612ee4565b82525050565b6000602082019050612f6b6000830184612f47565b92915050565b600073ffffffffffffffffffffffffffffffffffffffff82169050919050565b6000612f9c82612f71565b9050919050565b612fac81612f91565b8114612fb757600080fd5b50565b600081359050612fc981612fa3565b92915050565b60008060408385031215612fe657612fe5612e24565b5b6000612ff485828601612f05565b925050602061300585828601612fba565b9150509250929050565b600080fd5b60006080828403121561302a5761302961300f565b5b81905092915050565b60006101a0828403121561304a5761304961300f565b5b81905092915050565b600080610220838503121561306b5761306a612e24565b5b600061307985828601613014565b925050608061308a85828601613033565b9150509250929050565b61309d81612f91565b82525050565b60006020820190506130b86000830184613094565b92915050565b6000602082840312156130d4576130d3612e24565b5b60006130e284828501612fba565b91505092915050565b600082825260208201905092915050565b7f416363657373436f6e74726f6c3a2063616e206f6e6c792072656e6f756e636560008201527f20726f6c657320666f722073656c660000000000000000000000000000000000602082015250565b6000613158602f836130eb565b9150613163826130fc565b604082019050919050565b600060208201905081810360008301526131878161314b565b9050919050565b61319781612eae565b81146131a257600080fd5b50565b6000813590506131b48161318e565b92915050565b6000602082840312156131d0576131cf612e24565b5b60006131de848285016131a5565b91505092915050565b60006040820190506131fc6000830185613094565b6132096020830184613094565b9392505050565b6000819050919050565b61322381613210565b82525050565b600060208201905061323e600083018461321a565b92915050565b60008151905061325381612fa3565b92915050565b60006020828403121561326f5761326e612e24565b5b600061327d84828501613244565b91505092915050565b7f4e487b7100000000000000000000000000000000000000000000000000000000600052602160045260246000fd5b600081905092915050565b50565b60006132d06000836132b5565b91506132db826132c0565b600082019050919050565b60006132f1826132c3565b9150819050919050565b7f4e487b7100000000000000000000000000000000000000000000000000000000600052601160045260246000fd5b600061333582613210565b915061334083613210565b925082821015613353576133526132fb565b5b828203905092915050565b600061336982613210565b915061337483613210565b9250817fffffffffffffffffffffffffffffffffffffffffffffffffffffffffffffffff04831182151516156133ad576133ac6132fb565b5b828202905092915050565b60006060820190506133cd6000830186613094565b6133da6020830185613094565b6133e7604083018461321a565b949350505050565b60006080820190506134046000830187613094565b6134116020830186613094565b61341e6040830185613094565b61342b606083018461321a565b95945050505050565b600061343f82613210565b915061344a83613210565b9250827fffffffffffffffffffffffffffffffffffffffffffffffffffffffffffffffff0382111561347f5761347e6132fb565b5b828201905092915050565b61349381613210565b811461349e57600080fd5b50565b6000815190506134b08161348a565b92915050565b6000602082840312156134cc576134cb612e24565b5b60006134da848285016134a1565b91505092915050565b60006040820190506134f8600083018561321a565b613505602083018461321a565b9392505050565b60008151905061351b8161318e565b92915050565b60006020828403121561353757613536612e24565b5b60006135458482850161350c565b91505092915050565b7f496e697469616c697a61626c653a20636f6e747261637420697320616c72656160008201527f647920696e697469616c697a6564000000000000000000000000000000000000602082015250565b60006135aa602e836130eb565b91506135b58261354e565b604082019050919050565b600060208201905081810360008301526135d98161359d565b9050919050565b6000819050919050565b600060ff82169050919050565b6000819050919050565b600061361c613617613612846135e0565b6135f7565b6135ea565b9050919050565b61362c81613601565b82525050565b60006020820190506136476000830184613623565b92915050565b7f4f776e61626c653a206e6577206f776e657220697320746865207a65726f206160008201527f6464726573730000000000000000000000000000000000000000000000000000602082015250565b60006136a96026836130eb565b91506136b48261364d565b604082019050919050565b600060208201905081810360008301526136d88161369c565b9050919050565b7f5265656e7472616e637947756172643a207265656e7472616e742063616c6c00600082015250565b6000613715601f836130eb565b9150613720826136df565b602082019050919050565b6000602082019050818103600083015261374481613708565b9050919050565b600081905092915050565b7f1901000000000000000000000000000000000000000000000000000000000000600082015250565b600061378c60028361374b565b915061379782613756565b600282019050919050565b6000819050919050565b6137bd6137b882612ee4565b6137a2565b82525050565b60006137ce8261377f565b91506137da82856137ac565b6020820191506137ea82846137ac565b6020820191508190509392505050565b613803816135ea565b811461380e57600080fd5b50565b600081359050613820816137fa565b92915050565b60006020828403121561383c5761383b612e24565b5b600061384a84828501613811565b91505092915050565b61385c816135ea565b82525050565b60006080820190506138776000830187612f47565b6138846020830186613853565b6138916040830185612f47565b61389e6060830184612f47565b95945050505050565b7f4f776e61626c653a2063616c6c6572206973206e6f7420746865206f776e6572600082015250565b60006138dd6020836130eb565b91506138e8826138a7565b602082019050919050565b6000602082019050818103600083015261390c816138d0565b9050919050565b7f496e697469616c697a61626c653a20636f6e7472616374206973206e6f74206960008201527f6e697469616c697a696e67000000000000000000000000000000000000000000602082015250565b600061396f602b836130eb565b915061397a82613913565b604082019050919050565b6000602082019050818103600083015261399e81613962565b9050919050565b7f416363657373436f6e74726f6c3a206163636f756e7420000000000000000000600082015250565b60006139db60178361374b565b91506139e6826139a5565b601782019050919050565b600081519050919050565b60005b83811015613a1a5780820151818401526020810190506139ff565b83811115613a29576000848401525b50505050565b6000613a3a826139f1565b613a44818561374b565b9350613a548185602086016139fc565b80840191505092915050565b7f206973206d697373696e6720726f6c6520000000000000000000000000000000600082015250565b6000613a9660118361374b565b9150613aa182613a60565b601182019050919050565b6000613ab7826139ce565b9150613ac38285613a2f565b9150613ace82613a89565b9150613ada8284613a2f565b91508190509392505050565b6000601f19601f8301169050919050565b6000613b02826139f1565b613b0c81856130eb565b9350613b1c8185602086016139fc565b613b2581613ae6565b840191505092915050565b60006020820190508181036000830152613b4a8184613af7565b905092915050565b6000608082019050613b676000830187612f47565b613b746020830186612f47565b613b816040830185612f47565b613b8e6060830184613094565b95945050505050565b600061014082019050613bad600083018d612f47565b613bba602083018c612eba565b613bc7604083018b613094565b613bd4606083018a613094565b613be16080830189613094565b613bee60a0830188613094565b613bfb60c083018761321a565b613c0860e083018661321a565b613c1661010083018561321a565b613c2461012083018461321a565b9b9a5050505050505050505050565b7f4e487b7100000000000000000000000000000000000000000000000000000000600052604160045260246000fd5b7f4e487b7100000000000000000000000000000000000000000000000000000000600052603260045260246000fd5b6000613c9c82613210565b91506000821415613cb057613caf6132fb565b5b600182039050919050565b7f537472696e67733a20686578206c656e67746820696e73756666696369656e74600082015250565b6000613cf16020836130eb565b9150613cfc82613cbb565b602082019050919050565b60006020820190508181036000830152613d2081613ce4565b905091905056fea2646970667358221220bf1db70d7dc1052f27443072076a6b2f5195bec39f15ae71a7595af95c1f1bef64736f6c63430008090033",
  "linkReferences": {},
  "deployedLinkReferences": {}
}