{
  "_format": "hh-sol-artifact-1",
  "contractName": "NFTMarket",
  "sourceName": "contracts/NFTMarket.sol",
  "abi": [
    {
      "inputs": [],
      "name": "Failed",
      "type": "error"
    },
    {
      "inputs": [
        {
          "internalType": "uint256",
          "name": "available",
          "type": "uint256"
        },
        {
          "internalType": "uint256",
          "name": "required",
          "type": "uint256"
        }
      ],
      "name": "InSufficientAllowance",
      "type": "error"
    },
    {
      "inputs": [],
      "name": "InValidSignature",
      "type": "error"
    },
    {
      "inputs": [],
      "name": "InValidTokenId",
      "type": "error"
    },
    {
      "inputs": [],
      "name": "InvalidOwner",
      "type": "error"
    },
    {
      "inputs": [],
      "name": "InvalidPrice",
      "type": "error"
    },
    {
      "inputs": [],
      "name": "OrderExectued",
      "type": "error"
    },
    {
      "inputs": [],
      "name": "UnAuthorized",
      "type": "error"
    },
    {
      "inputs": [],
      "name": "UnAuthorizedApproval",
      "type": "error"
    },
    {
      "inputs": [
        {
          "internalType": "address",
          "name": "available",
          "type": "address"
        },
        {
          "internalType": "address",
          "name": "required",
          "type": "address"
        }
      ],
      "name": "UnAuthorizedOwner",
      "type": "error"
    },
    {
      "inputs": [],
      "name": "WrongOrder",
      "type": "error"
    },
    {
      "inputs": [],
      "name": "ZeroAddress",
      "type": "error"
    },
    {
      "anonymous": false,
      "inputs": [
        {
          "indexed": false,
          "internalType": "uint8",
          "name": "version",
          "type": "uint8"
        }
      ],
      "name": "Initialized",
      "type": "event"
    },
    {
      "anonymous": false,
      "inputs": [
        {
          "indexed": true,
          "internalType": "address",
          "name": "previousOwner",
          "type": "address"
        },
        {
          "indexed": true,
          "internalType": "address",
          "name": "newOwner",
          "type": "address"
        }
      ],
      "name": "OwnershipTransferred",
      "type": "event"
    },
    {
      "anonymous": false,
      "inputs": [
        {
          "indexed": true,
          "internalType": "bytes32",
          "name": "role",
          "type": "bytes32"
        },
        {
          "indexed": true,
          "internalType": "bytes32",
          "name": "previousAdminRole",
          "type": "bytes32"
        },
        {
          "indexed": true,
          "internalType": "bytes32",
          "name": "newAdminRole",
          "type": "bytes32"
        }
      ],
      "name": "RoleAdminChanged",
      "type": "event"
    },
    {
      "anonymous": false,
      "inputs": [
        {
          "indexed": true,
          "internalType": "bytes32",
          "name": "role",
          "type": "bytes32"
        },
        {
          "indexed": true,
          "internalType": "address",
          "name": "account",
          "type": "address"
        },
        {
          "indexed": true,
          "internalType": "address",
          "name": "sender",
          "type": "address"
        }
      ],
      "name": "RoleGranted",
      "type": "event"
    },
    {
      "anonymous": false,
      "inputs": [
        {
          "indexed": true,
          "internalType": "bytes32",
          "name": "role",
          "type": "bytes32"
        },
        {
          "indexed": true,
          "internalType": "address",
          "name": "account",
          "type": "address"
        },
        {
          "indexed": true,
          "internalType": "address",
          "name": "sender",
          "type": "address"
        }
      ],
      "name": "RoleRevoked",
      "type": "event"
    },
    {
      "anonymous": false,
      "inputs": [
        {
          "indexed": false,
          "internalType": "address",
          "name": "nftContract",
          "type": "address"
        },
        {
          "indexed": false,
          "internalType": "address",
          "name": "from",
          "type": "address"
        },
        {
          "indexed": false,
          "internalType": "address",
          "name": "to",
          "type": "address"
        },
        {
          "indexed": true,
          "internalType": "uint256",
          "name": "tokenId",
          "type": "uint256"
        },
        {
          "indexed": false,
          "internalType": "uint256",
          "name": "price",
          "type": "uint256"
        }
      ],
      "name": "TransferNft",
      "type": "event"
    },
    {
      "inputs": [],
      "name": "DEFAULT_ADMIN_ROLE",
      "outputs": [
        {
          "internalType": "bytes32",
          "name": "",
          "type": "bytes32"
        }
      ],
      "stateMutability": "view",
      "type": "function"
    },
    {
      "inputs": [
        {
          "internalType": "bytes32",
          "name": "role",
          "type": "bytes32"
        }
      ],
      "name": "getRoleAdmin",
      "outputs": [
        {
          "internalType": "bytes32",
          "name": "",
          "type": "bytes32"
        }
      ],
      "stateMutability": "view",
      "type": "function"
    },
    {
      "inputs": [
        {
          "internalType": "bytes32",
          "name": "role",
          "type": "bytes32"
        },
        {
          "internalType": "address",
          "name": "account",
          "type": "address"
        }
      ],
      "name": "grantRole",
      "outputs": [],
      "stateMutability": "nonpayable",
      "type": "function"
    },
    {
      "inputs": [
        {
          "internalType": "bytes32",
          "name": "role",
          "type": "bytes32"
        },
        {
          "internalType": "address",
          "name": "account",
          "type": "address"
        }
      ],
      "name": "hasRole",
      "outputs": [
        {
          "internalType": "bool",
          "name": "",
          "type": "bool"
        }
      ],
      "stateMutability": "view",
      "type": "function"
    },
    {
      "inputs": [],
      "name": "initialize",
      "outputs": [],
      "stateMutability": "nonpayable",
      "type": "function"
    },
    {
      "inputs": [
        {
          "components": [
            {
              "internalType": "bool",
              "name": "isOrderAsk",
              "type": "bool"
            },
            {
              "internalType": "address",
              "name": "taker",
              "type": "address"
            },
            {
              "internalType": "uint256",
              "name": "price",
              "type": "uint256"
            },
            {
              "internalType": "uint256",
              "name": "tokenId",
              "type": "uint256"
            }
          ],
          "internalType": "struct OrderTypes.TakerOrder",
          "name": "takerBid",
          "type": "tuple"
        },
        {
          "components": [
            {
              "internalType": "bool",
              "name": "isOrderAsk",
              "type": "bool"
            },
            {
              "internalType": "address",
              "name": "signer",
              "type": "address"
            },
            {
              "internalType": "address",
              "name": "baseAccount",
              "type": "address"
            },
            {
              "internalType": "address",
              "name": "nftContract",
              "type": "address"
            },
            {
              "internalType": "uint256",
              "name": "price",
              "type": "uint256"
            },
            {
              "internalType": "uint256",
              "name": "tokenId",
              "type": "uint256"
            },
            {
              "internalType": "uint256",
              "name": "tax",
              "type": "uint256"
            },
            {
              "internalType": "uint256",
              "name": "nonce",
              "type": "uint256"
            },
            {
              "internalType": "uint8",
              "name": "v",
              "type": "uint8"
            },
            {
              "internalType": "bytes32",
              "name": "r",
              "type": "bytes32"
            },
            {
              "internalType": "bytes32",
              "name": "s",
              "type": "bytes32"
            }
          ],
          "internalType": "struct OrderTypes.MakerOrder",
          "name": "makerAsk",
          "type": "tuple"
        }
      ],
      "name": "matchAskWithTakerBid",
      "outputs": [],
      "stateMutability": "payable",
      "type": "function"
    },
    {
      "inputs": [],
      "name": "owner",
      "outputs": [
        {
          "internalType": "address",
          "name": "",
          "type": "address"
        }
      ],
      "stateMutability": "view",
      "type": "function"
    },
    {
      "inputs": [],
      "name": "renounceOwnership",
      "outputs": [],
      "stateMutability": "nonpayable",
      "type": "function"
    },
    {
      "inputs": [
        {
          "internalType": "bytes32",
          "name": "role",
          "type": "bytes32"
        },
        {
          "internalType": "address",
          "name": "account",
          "type": "address"
        }
      ],
      "name": "renounceRole",
      "outputs": [],
      "stateMutability": "nonpayable",
      "type": "function"
    },
    {
      "inputs": [
        {
          "internalType": "bytes32",
          "name": "role",
          "type": "bytes32"
        },
        {
          "internalType": "address",
          "name": "account",
          "type": "address"
        }
      ],
      "name": "revokeRole",
      "outputs": [],
      "stateMutability": "nonpayable",
      "type": "function"
    },
    {
      "inputs": [
        {
          "internalType": "bytes4",
          "name": "interfaceId",
          "type": "bytes4"
        }
      ],
      "name": "supportsInterface",
      "outputs": [
        {
          "internalType": "bool",
          "name": "",
          "type": "bool"
        }
      ],
      "stateMutability": "view",
      "type": "function"
    },
    {
      "inputs": [
        {
          "internalType": "address",
          "name": "newOwner",
          "type": "address"
        }
      ],
      "name": "transferOwnership",
      "outputs": [],
      "stateMutability": "nonpayable",
      "type": "function"
    }
  ],
  "bytecode": "0x608060405234801561001057600080fd5b50612785806100206000396000f3fe6080604052600436106100a75760003560e01c80638da5cb5b116100645780638da5cb5b146101a657806391d14854146101d1578063a217fddf1461020e578063d547741f14610239578063f2fde38b14610262578063ff4494e21461028b576100a7565b806301ffc9a7146100ac578063248a9ca3146100e95780632f2ff15d1461012657806336568abe1461014f578063715018a6146101785780638129fc1c1461018f575b600080fd5b3480156100b857600080fd5b506100d360048036038101906100ce9190611ba6565b6102a7565b6040516100e09190611fd7565b60405180910390f35b3480156100f557600080fd5b50610110600480360381019061010b9190611b41565b610321565b60405161011d9190611ff2565b60405180910390f35b34801561013257600080fd5b5061014d60048036038101906101489190611b6a565b610341565b005b34801561015b57600080fd5b5061017660048036038101906101719190611b6a565b610362565b005b34801561018457600080fd5b5061018d6103e5565b005b34801561019b57600080fd5b506101a46103f9565b005b3480156101b257600080fd5b506101bb61053f565b6040516101c89190611f17565b60405180910390f35b3480156101dd57600080fd5b506101f860048036038101906101f39190611b6a565b610569565b6040516102059190611fd7565b60405180910390f35b34801561021a57600080fd5b506102236105d4565b6040516102309190611ff2565b60405180910390f35b34801561024557600080fd5b50610260600480360381019061025b9190611b6a565b6105db565b005b34801561026e57600080fd5b5061028960048036038101906102849190611ac6565b6105fc565b005b6102a560048036038101906102a09190611bcf565b610680565b005b60007f7965db0b000000000000000000000000000000000000000000000000000000007bffffffffffffffffffffffffffffffffffffffffffffffffffffffff1916827bffffffffffffffffffffffffffffffffffffffffffffffffffffffff1916148061031a575061031982610d55565b5b9050919050565b600060976000838152602001908152602001600020600101549050919050565b61034a82610321565b61035381610dbf565b61035d8383610dd3565b505050565b61036a610eb4565b73ffffffffffffffffffffffffffffffffffffffff168173ffffffffffffffffffffffffffffffffffffffff16146103d7576040517f08c379a00000000000000000000000000000000000000000000000000000000081526004016103ce90612212565b60405180910390fd5b6103e18282610ebc565b5050565b6103ed610f9e565b6103f7600061101c565b565b60008060019054906101000a900460ff1615905080801561042a5750600160008054906101000a900460ff1660ff16105b806104575750610439306110e2565b1580156104565750600160008054906101000a900460ff1660ff16145b5b610496576040517f08c379a000000000000000000000000000000000000000000000000000000000815260040161048d90612192565b60405180910390fd5b60016000806101000a81548160ff021916908360ff16021790555080156104d3576001600060016101000a81548160ff0219169083151502179055505b6104db611105565b6104e361115e565b801561053c5760008060016101000a81548160ff0219169083151502179055507f7f26b83ff96e1f2b6a682f133852f6798a09c465da95921460cefb384740249860016040516105339190612115565b60405180910390a15b50565b600060c960009054906101000a900473ffffffffffffffffffffffffffffffffffffffff16905090565b60006097600084815260200190815260200160002060000160008373ffffffffffffffffffffffffffffffffffffffff1673ffffffffffffffffffffffffffffffffffffffff16815260200190815260200160002060009054906101000a900460ff16905092915050565b6000801b81565b6105e482610321565b6105ed81610dbf565b6105f78383610ebc565b505050565b610604610f9e565b600073ffffffffffffffffffffffffffffffffffffffff168173ffffffffffffffffffffffffffffffffffffffff161415610674576040517f08c379a000000000000000000000000000000000000000000000000000000000815260040161066b90612172565b60405180910390fd5b61067d8161101c565b50565b6106886111b7565b60fc600082602001602081019061069f9190611ac6565b73ffffffffffffffffffffffffffffffffffffffff1673ffffffffffffffffffffffffffffffffffffffff16815260200190815260200160002060008260e00135815260200190815260200160002060009054906101000a900460ff1615610733576040517fb27a358b00000000000000000000000000000000000000000000000000000000815260040160405180910390fd5b8060000160208101906107469190611b18565b801561076257508160000160208101906107609190611b18565b155b610798576040517f09686b3200000000000000000000000000000000000000000000000000000000815260040160405180910390fd5b8160200160208101906107ab9190611ac6565b73ffffffffffffffffffffffffffffffffffffffff163373ffffffffffffffffffffffffffffffffffffffff161461082e57338260200160208101906107f19190611ac6565b6040517f0998336e000000000000000000000000000000000000000000000000000000008152600401610825929190611f32565b60405180910390fd5b81606001358160a001351461086f576040517f90d85bce00000000000000000000000000000000000000000000000000000000815260040160405180910390fd5b600073ffffffffffffffffffffffffffffffffffffffff1681602001602081019061089a9190611ac6565b73ffffffffffffffffffffffffffffffffffffffff1614806108fa5750600073ffffffffffffffffffffffffffffffffffffffff168160400160208101906108e29190611ac6565b73ffffffffffffffffffffffffffffffffffffffff16145b15610931576040517fd92e233d00000000000000000000000000000000000000000000000000000000815260040160405180910390fd5b6000610941348360c00135611207565b90508160800135811015610980576040517ebfc92100000000000000000000000000000000000000000000000000000000815260040160405180910390fd5b60006109ee836101000160208101906109999190611c0c565b8461012001358561014001358660200160208101906109b89190611ac6565b8760600160208101906109cb9190611ac6565b8860400160208101906109de9190611ac6565b8960e00135898b60a0013561121d565b905080610a27576040517f74d40f3a00000000000000000000000000000000000000000000000000000000815260040160405180910390fd5b600160fc6000856020016020810190610a409190611ac6565b73ffffffffffffffffffffffffffffffffffffffff1673ffffffffffffffffffffffffffffffffffffffff16815260200190815260200160002060008560e00135815260200190815260200160002060006101000a81548160ff0219169083151502179055506000836040016020810190610abb9190611ac6565b73ffffffffffffffffffffffffffffffffffffffff168460c0013584610ae1919061232f565b604051610aed90611ec8565b60006040518083038185875af1925050503d8060008114610b2a576040519150601f19603f3d011682016040523d82523d6000602084013e610b2f565b606091505b5050905080610b6a576040517f625a40e600000000000000000000000000000000000000000000000000000000815260040160405180910390fd5b6000610b7461053f565b73ffffffffffffffffffffffffffffffffffffffff1660028660c00135610b9b91906122d5565b604051610ba790611ec8565b60006040518083038185875af1925050503d8060008114610be4576040519150601f19603f3d011682016040523d82523d6000602084013e610be9565b606091505b5050905080610c24576040517f625a40e600000000000000000000000000000000000000000000000000000000815260040160405180910390fd5b846060016020810190610c379190611ac6565b73ffffffffffffffffffffffffffffffffffffffff166323b872dd866020016020810190610c659190611ac6565b886020016020810190610c789190611ac6565b8860a001356040518463ffffffff1660e01b8152600401610c9b93929190611fa0565b600060405180830381600087803b158015610cb557600080fd5b505af1158015610cc9573d6000803e3d6000fd5b505050508460a001357f6366d51f57b6146ec74b8df7acf2bbd7506c7e6f81786de0c37b5d52845187e5866060016020810190610d069190611ac6565b876020016020810190610d199190611ac6565b896020016020810190610d2c9190611ac6565b88604051610d3d9493929190611f5b565b60405180910390a250505050610d516114d2565b5050565b60007f01ffc9a7000000000000000000000000000000000000000000000000000000007bffffffffffffffffffffffffffffffffffffffffffffffffffffffff1916827bffffffffffffffffffffffffffffffffffffffffffffffffffffffff1916149050919050565b610dd081610dcb610eb4565b6114db565b50565b610ddd8282610569565b610eb05760016097600084815260200190815260200160002060000160008373ffffffffffffffffffffffffffffffffffffffff1673ffffffffffffffffffffffffffffffffffffffff16815260200190815260200160002060006101000a81548160ff021916908315150217905550610e55610eb4565b73ffffffffffffffffffffffffffffffffffffffff168173ffffffffffffffffffffffffffffffffffffffff16837f2f8788117e7eff1d82e926ec794901d17c78024a50270940304540a733656f0d60405160405180910390a45b5050565b600033905090565b610ec68282610569565b15610f9a5760006097600084815260200190815260200160002060000160008373ffffffffffffffffffffffffffffffffffffffff1673ffffffffffffffffffffffffffffffffffffffff16815260200190815260200160002060006101000a81548160ff021916908315150217905550610f3f610eb4565b73ffffffffffffffffffffffffffffffffffffffff168173ffffffffffffffffffffffffffffffffffffffff16837ff6391f5c32d9c69d2a47ea670b442974b53935d1edc7fd64eb21e047a839171b60405160405180910390a45b5050565b610fa6610eb4565b73ffffffffffffffffffffffffffffffffffffffff16610fc461053f565b73ffffffffffffffffffffffffffffffffffffffff161461101a576040517f08c379a0000000000000000000000000000000000000000000000000000000008152600401611011906121b2565b60405180910390fd5b565b600060c960009054906101000a900473ffffffffffffffffffffffffffffffffffffffff1690508160c960006101000a81548173ffffffffffffffffffffffffffffffffffffffff021916908373ffffffffffffffffffffffffffffffffffffffff1602179055508173ffffffffffffffffffffffffffffffffffffffff168173ffffffffffffffffffffffffffffffffffffffff167f8be0079c531659141344cd1fd0a4f28419497f9722a3daafe3b4186f6b6457e060405160405180910390a35050565b6000808273ffffffffffffffffffffffffffffffffffffffff163b119050919050565b600060019054906101000a900460ff16611154576040517f08c379a000000000000000000000000000000000000000000000000000000000815260040161114b906121d2565b60405180910390fd5b61115c611560565b565b600060019054906101000a900460ff166111ad576040517f08c379a00000000000000000000000000000000000000000000000000000000081526004016111a4906121d2565b60405180910390fd5b6111b56115c1565b565b600260015414156111fd576040517f08c379a00000000000000000000000000000000000000000000000000000000081526004016111f4906121f2565b60405180910390fd5b6002600181905550565b60008183611215919061232f565b905092915050565b600080611228611619565b905060007fbe589f2ff551cc0e34e0fd2c45e991803d1e17147e70abd459351cea519b745060018a8a8a898b8a60405160200161126c98979695949392919061200d565b60405160208183030381529060405280519060200120905060008282604051602001611299929190611e91565b60405160208183030381529060405280519060200120905060006001828f8f8f604051600081526020016040526040516112d694939291906120d0565b6020604051602081039080840390855afa1580156112f8573d6000803e3d6000fd5b5050506020604051035190508a73ffffffffffffffffffffffffffffffffffffffff168173ffffffffffffffffffffffffffffffffffffffff1614611369576040517f74d40f3a00000000000000000000000000000000000000000000000000000000815260040160405180910390fd5b600073ffffffffffffffffffffffffffffffffffffffff168173ffffffffffffffffffffffffffffffffffffffff1614156113d0576040517f74d40f3a00000000000000000000000000000000000000000000000000000000815260040160405180910390fd5b8973ffffffffffffffffffffffffffffffffffffffff16636352211e876040518263ffffffff1660e01b81526004016114099190612232565b60206040518083038186803b15801561142157600080fd5b505afa158015611435573d6000803e3d6000fd5b505050506040513d601f19601f820116820180604052508101906114599190611aef565b73ffffffffffffffffffffffffffffffffffffffff168173ffffffffffffffffffffffffffffffffffffffff16146114bd576040517f49e27cff00000000000000000000000000000000000000000000000000000000815260040160405180910390fd5b60019450505050509998505050505050505050565b60018081905550565b6114e58282610569565b61155c576114f2816116ea565b6115008360001c6020611717565b604051602001611511929190611edd565b6040516020818303038152906040526040517f08c379a00000000000000000000000000000000000000000000000000000000081526004016115539190612130565b60405180910390fd5b5050565b600060019054906101000a900460ff166115af576040517f08c379a00000000000000000000000000000000000000000000000000000000081526004016115a6906121d2565b60405180910390fd5b6115bf6115ba610eb4565b61101c565b565b600060019054906101000a900460ff16611610576040517f08c379a0000000000000000000000000000000000000000000000000000000008152600401611607906121d2565b60405180910390fd5b60018081905550565b6000807f91ab3d17e3a50a9d89e63fd30b92be7f5336b03b287bb946787a83a9d62a27666040518060400160405280600b81526020017f4d61726b6574506c616365000000000000000000000000000000000000000000815250805190602001206040518060400160405280600181526020017f310000000000000000000000000000000000000000000000000000000000000081525080519060200120306040516020016116cb949392919061208b565b6040516020818303038152906040528051906020012090508091505090565b60606117108273ffffffffffffffffffffffffffffffffffffffff16601460ff16611717565b9050919050565b60606000600283600261172a91906122d5565b611734919061227f565b67ffffffffffffffff811115611773577f4e487b7100000000000000000000000000000000000000000000000000000000600052604160045260246000fd5b6040519080825280601f01601f1916602001820160405280156117a55781602001600182028036833780820191505090505b5090507f300000000000000000000000000000000000000000000000000000000000000081600081518110611803577f4e487b7100000000000000000000000000000000000000000000000000000000600052603260045260246000fd5b60200101907effffffffffffffffffffffffffffffffffffffffffffffffffffffffffffff1916908160001a9053507f78000000000000000000000000000000000000000000000000000000000000008160018151811061188d577f4e487b7100000000000000000000000000000000000000000000000000000000600052603260045260246000fd5b60200101907effffffffffffffffffffffffffffffffffffffffffffffffffffffffffffff1916908160001a905350600060018460026118cd91906122d5565b6118d7919061227f565b90505b60018111156119c3577f3031323334353637383961626364656600000000000000000000000000000000600f86166010811061193f577f4e487b7100000000000000000000000000000000000000000000000000000000600052603260045260246000fd5b1a60f81b82828151811061197c577f4e487b7100000000000000000000000000000000000000000000000000000000600052603260045260246000fd5b60200101907effffffffffffffffffffffffffffffffffffffffffffffffffffffffffffff1916908160001a905350600485901c9450806119bc90612433565b90506118da565b5060008414611a07576040517f08c379a00000000000000000000000000000000000000000000000000000000081526004016119fe90612152565b60405180910390fd5b8091505092915050565b600081359050611a20816126dc565b92915050565b600081519050611a35816126dc565b92915050565b600081359050611a4a816126f3565b92915050565b600081359050611a5f8161270a565b92915050565b600081359050611a7481612721565b92915050565b60006101608284031215611a8d57600080fd5b81905092915050565b600060808284031215611aa857600080fd5b81905092915050565b600081359050611ac081612738565b92915050565b600060208284031215611ad857600080fd5b6000611ae684828501611a11565b91505092915050565b600060208284031215611b0157600080fd5b6000611b0f84828501611a26565b91505092915050565b600060208284031215611b2a57600080fd5b6000611b3884828501611a3b565b91505092915050565b600060208284031215611b5357600080fd5b6000611b6184828501611a50565b91505092915050565b60008060408385031215611b7d57600080fd5b6000611b8b85828601611a50565b9250506020611b9c85828601611a11565b9150509250929050565b600060208284031215611bb857600080fd5b6000611bc684828501611a65565b91505092915050565b6000806101e08385031215611be357600080fd5b6000611bf185828601611a96565b9250506080611c0285828601611a7a565b9150509250929050565b600060208284031215611c1e57600080fd5b6000611c2c84828501611ab1565b91505092915050565b611c3e81612363565b82525050565b611c4d81612375565b82525050565b611c5c81612381565b82525050565b611c73611c6e82612381565b61245d565b82525050565b611c82816123ee565b82525050565b6000611c938261224d565b611c9d8185612263565b9350611cad818560208601612400565b611cb681612496565b840191505092915050565b6000611ccc8261224d565b611cd68185612274565b9350611ce6818560208601612400565b80840191505092915050565b6000611cff602083612263565b9150611d0a826124a7565b602082019050919050565b6000611d22602683612263565b9150611d2d826124d0565b604082019050919050565b6000611d45600283612274565b9150611d508261251f565b600282019050919050565b6000611d68602e83612263565b9150611d7382612548565b604082019050919050565b6000611d8b602083612263565b9150611d9682612597565b602082019050919050565b6000611dae600083612258565b9150611db9826125c0565b600082019050919050565b6000611dd1602b83612263565b9150611ddc826125c3565b604082019050919050565b6000611df4601783612274565b9150611dff82612612565b601782019050919050565b6000611e17601f83612263565b9150611e228261263b565b602082019050919050565b6000611e3a601183612274565b9150611e4582612664565b601182019050919050565b6000611e5d602f83612263565b9150611e688261268d565b604082019050919050565b611e7c816123d7565b82525050565b611e8b816123e1565b82525050565b6000611e9c82611d38565b9150611ea88285611c62565b602082019150611eb88284611c62565b6020820191508190509392505050565b6000611ed382611da1565b9150819050919050565b6000611ee882611de7565b9150611ef48285611cc1565b9150611eff82611e2d565b9150611f0b8284611cc1565b91508190509392505050565b6000602082019050611f2c6000830184611c35565b92915050565b6000604082019050611f476000830185611c35565b611f546020830184611c35565b9392505050565b6000608082019050611f706000830187611c35565b611f7d6020830186611c35565b611f8a6040830185611c35565b611f976060830184611e73565b95945050505050565b6000606082019050611fb56000830186611c35565b611fc26020830185611c35565b611fcf6040830184611e73565b949350505050565b6000602082019050611fec6000830184611c44565b92915050565b60006020820190506120076000830184611c53565b92915050565b600061010082019050612023600083018b611c53565b612030602083018a611c44565b61203d6040830189611c35565b61204a6060830188611c35565b6120576080830187611c35565b61206460a0830186611e73565b61207160c0830185611e73565b61207e60e0830184611e73565b9998505050505050505050565b60006080820190506120a06000830187611c53565b6120ad6020830186611c53565b6120ba6040830185611c53565b6120c76060830184611c35565b95945050505050565b60006080820190506120e56000830187611c53565b6120f26020830186611e82565b6120ff6040830185611c53565b61210c6060830184611c53565b95945050505050565b600060208201905061212a6000830184611c79565b92915050565b6000602082019050818103600083015261214a8184611c88565b905092915050565b6000602082019050818103600083015261216b81611cf2565b9050919050565b6000602082019050818103600083015261218b81611d15565b9050919050565b600060208201905081810360008301526121ab81611d5b565b9050919050565b600060208201905081810360008301526121cb81611d7e565b9050919050565b600060208201905081810360008301526121eb81611dc4565b9050919050565b6000602082019050818103600083015261220b81611e0a565b9050919050565b6000602082019050818103600083015261222b81611e50565b9050919050565b60006020820190506122476000830184611e73565b92915050565b600081519050919050565b600081905092915050565b600082825260208201905092915050565b600081905092915050565b600061228a826123d7565b9150612295836123d7565b9250827fffffffffffffffffffffffffffffffffffffffffffffffffffffffffffffffff038211156122ca576122c9612467565b5b828201905092915050565b60006122e0826123d7565b91506122eb836123d7565b9250817fffffffffffffffffffffffffffffffffffffffffffffffffffffffffffffffff048311821515161561232457612323612467565b5b828202905092915050565b600061233a826123d7565b9150612345836123d7565b92508282101561235857612357612467565b5b828203905092915050565b600061236e826123b7565b9050919050565b60008115159050919050565b6000819050919050565b60007fffffffff0000000000000000000000000000000000000000000000000000000082169050919050565b600073ffffffffffffffffffffffffffffffffffffffff82169050919050565b6000819050919050565b600060ff82169050919050565b60006123f9826123e1565b9050919050565b60005b8381101561241e578082015181840152602081019050612403565b8381111561242d576000848401525b50505050565b600061243e826123d7565b9150600082141561245257612451612467565b5b600182039050919050565b6000819050919050565b7f4e487b7100000000000000000000000000000000000000000000000000000000600052601160045260246000fd5b6000601f19601f8301169050919050565b7f537472696e67733a20686578206c656e67746820696e73756666696369656e74600082015250565b7f4f776e61626c653a206e6577206f776e657220697320746865207a65726f206160008201527f6464726573730000000000000000000000000000000000000000000000000000602082015250565b7f1901000000000000000000000000000000000000000000000000000000000000600082015250565b7f496e697469616c697a61626c653a20636f6e747261637420697320616c72656160008201527f647920696e697469616c697a6564000000000000000000000000000000000000602082015250565b7f4f776e61626c653a2063616c6c6572206973206e6f7420746865206f776e6572600082015250565b50565b7f496e697469616c697a61626c653a20636f6e7472616374206973206e6f74206960008201527f6e697469616c697a696e67000000000000000000000000000000000000000000602082015250565b7f416363657373436f6e74726f6c3a206163636f756e7420000000000000000000600082015250565b7f5265656e7472616e637947756172643a207265656e7472616e742063616c6c00600082015250565b7f206973206d697373696e6720726f6c6520000000000000000000000000000000600082015250565b7f416363657373436f6e74726f6c3a2063616e206f6e6c792072656e6f756e636560008201527f20726f6c657320666f722073656c660000000000000000000000000000000000602082015250565b6126e581612363565b81146126f057600080fd5b50565b6126fc81612375565b811461270757600080fd5b50565b61271381612381565b811461271e57600080fd5b50565b61272a8161238b565b811461273557600080fd5b50565b612741816123e1565b811461274c57600080fd5b5056fea2646970667358221220c64e296a06f0464f187108b5b71b05166a08addfbddfe807514743d8751ad5fa64736f6c63430008040033",
  "linkReferences": {},
  "deployedLinkReferences": {}
}